{
  "contractName": "researchDAO",
  "abi": [
    {
      "constant": true,
      "inputs": [],
      "name": "rDAO_totalTokenSupply",
      "outputs": [
        {
          "name": "",
          "type": "uint256"
        }
      ],
      "payable": false,
      "stateMutability": "view",
      "type": "function"
    },
    {
      "constant": true,
      "inputs": [
        {
          "name": "",
          "type": "address"
        },
        {
          "name": "",
          "type": "uint256"
        }
      ],
      "name": "proposalsOfMembers",
      "outputs": [
        {
          "name": "",
          "type": "uint256"
        }
      ],
      "payable": false,
      "stateMutability": "view",
      "type": "function"
    },
    {
      "constant": true,
      "inputs": [
        {
          "name": "",
          "type": "address"
        }
      ],
      "name": "members",
      "outputs": [
        {
          "name": "shares",
          "type": "uint256"
        },
        {
          "name": "tokens",
          "type": "uint256"
        }
      ],
      "payable": false,
      "stateMutability": "view",
      "type": "function"
    },
    {
      "constant": true,
      "inputs": [],
      "name": "proposalCounter",
      "outputs": [
        {
          "name": "",
          "type": "uint256"
        }
      ],
      "payable": false,
      "stateMutability": "view",
      "type": "function"
    },
    {
      "constant": true,
      "inputs": [],
      "name": "totalSharesRequested",
      "outputs": [
        {
          "name": "",
          "type": "uint256"
        }
      ],
      "payable": false,
      "stateMutability": "view",
      "type": "function"
    },
    {
      "constant": true,
      "inputs": [
        {
          "name": "",
          "type": "uint256"
        }
      ],
      "name": "globalProcessingReward",
      "outputs": [
        {
          "name": "",
          "type": "uint256"
        },
        {
          "name": "proposer",
          "type": "address"
        },
        {
          "name": "applicant",
          "type": "address"
        },
        {
          "name": "sharesRequested",
          "type": "uint256"
        },
        {
          "name": "title",
          "type": "string"
        },
        {
          "name": "documentationAddress",
          "type": "bytes32"
        },
        {
          "name": "fundingGoal",
          "type": "uint256"
        },
        {
          "name": "isProposalOpen",
          "type": "bool"
        },
        {
          "name": "creationTimestamp",
          "type": "uint256"
        },
        {
          "name": "yesVote",
          "type": "uint256"
        },
        {
          "name": "noVote",
          "type": "uint256"
        },
        {
          "name": "didPass",
          "type": "bool"
        },
        {
          "name": "externalFundsCollected",
          "type": "uint256"
        },
        {
          "name": "isProposalOrApplication",
          "type": "bool"
        }
      ],
      "payable": false,
      "stateMutability": "view",
      "type": "function"
    },
    {
      "constant": true,
      "inputs": [
        {
          "name": "",
          "type": "uint256"
        }
      ],
      "name": "proposalQueue",
      "outputs": [
        {
          "name": "proposalIndex",
          "type": "uint256"
        },
        {
          "name": "proposer",
          "type": "address"
        },
        {
          "name": "applicant",
          "type": "address"
        },
        {
          "name": "sharesRequested",
          "type": "uint256"
        },
        {
          "name": "title",
          "type": "string"
        },
        {
          "name": "documentationAddress",
          "type": "bytes32"
        },
        {
          "name": "fundingGoal",
          "type": "uint256"
        },
        {
          "name": "isProposalOpen",
          "type": "bool"
        },
        {
          "name": "creationTimestamp",
          "type": "uint256"
        },
        {
          "name": "yesVote",
          "type": "uint256"
        },
        {
          "name": "noVote",
          "type": "uint256"
        },
        {
          "name": "didPass",
          "type": "bool"
        },
        {
          "name": "externalFundsCollected",
          "type": "uint256"
        },
        {
          "name": "isProposalOrApplication",
          "type": "bool"
        }
      ],
      "payable": false,
      "stateMutability": "view",
      "type": "function"
    },
    {
      "constant": true,
      "inputs": [],
      "name": "rDAO_totalShareSupply",
      "outputs": [
        {
          "name": "",
          "type": "uint256"
        }
      ],
      "payable": false,
      "stateMutability": "view",
      "type": "function"
    },
    {
      "constant": true,
      "inputs": [],
      "name": "globalDilutionBound",
      "outputs": [
        {
          "name": "",
          "type": "uint8"
        }
      ],
      "payable": false,
      "stateMutability": "view",
      "type": "function"
    },
    {
      "constant": true,
      "inputs": [],
      "name": "globalQuorum",
      "outputs": [
        {
          "name": "",
          "type": "uint8"
        }
      ],
      "payable": false,
      "stateMutability": "view",
      "type": "function"
    },
    {
      "constant": true,
      "inputs": [],
      "name": "guildERC20Token",
      "outputs": [
        {
          "name": "",
          "type": "address"
        }
      ],
      "payable": false,
      "stateMutability": "view",
      "type": "function"
    },
    {
      "constant": true,
      "inputs": [
        {
          "name": "",
          "type": "uint256"
        }
      ],
      "name": "globalVotingPeriod",
      "outputs": [
        {
          "name": "",
          "type": "uint256"
        }
      ],
      "payable": false,
      "stateMutability": "view",
      "type": "function"
    },
    {
      "constant": true,
      "inputs": [],
      "name": "globalRagequitPeriod",
      "outputs": [
        {
          "name": "",
          "type": "uint256"
        }
      ],
      "payable": false,
      "stateMutability": "view",
      "type": "function"
    },
    {
      "constant": true,
      "inputs": [
        {
          "name": "",
          "type": "uint256"
        }
      ],
      "name": "memberArray",
      "outputs": [
        {
          "name": "",
          "type": "address"
        }
      ],
      "payable": false,
      "stateMutability": "view",
      "type": "function"
    },
    {
      "constant": true,
      "inputs": [],
      "name": "globalMajority",
      "outputs": [
        {
          "name": "",
          "type": "uint8"
        }
      ],
      "payable": false,
      "stateMutability": "view",
      "type": "function"
    },
    {
      "constant": true,
      "inputs": [],
      "name": "globalTokensPerDeposit",
      "outputs": [
        {
          "name": "",
          "type": "uint256"
        }
      ],
      "payable": false,
      "stateMutability": "view",
      "type": "function"
    },
    {
      "inputs": [
        {
          "name": "_globalVotingPeriod",
          "type": "uint256"
        },
        {
          "name": "_globalRagequitPeriod",
          "type": "uint256"
        },
        {
          "name": "_globalProposalDeposit",
          "type": "uint256"
        },
        {
          "name": "_globalProcessingReward",
          "type": "uint256"
        },
        {
          "name": "_initialSharesRequested",
          "type": "uint256"
        },
        {
          "name": "_globalTokensPerDeposit",
          "type": "uint256"
        },
        {
          "name": "_globalQuorum",
          "type": "uint8"
        },
        {
          "name": "_globalMajority",
          "type": "uint8"
        }
      ],
      "payable": false,
      "stateMutability": "view",
      "type": "function",
      "constant": true,
      "name": "globalProposalDeposit",
      "outputs": [
        {
          "name": "",
          "type": "uint256"
        }
      ]
    },
    {
      "payable": false,
      "stateMutability": "view",
      "type": "function",
      "constant": true,
      "inputs": [],
      "name": "globalSummoningTime",
      "outputs": [
        {
          "name": "",
          "type": "uint256"
        }
      ]
    },
    {
      "anonymous": false,
      "inputs": [
        {
          "indexed": true,
          "name": "_globalVotingPeriod",
          "type": "uint256"
        },
        {
          "indexed": false,
          "name": "_globalRagequitPeriod",
          "type": "uint256"
        },
        {
          "name": "_globalProposalDeposit",
          "type": "uint256"
        },
        {
          "name": "_globalProcessingReward",
          "type": "uint256"
        },
        {
          "name": "_initialSharesRequested",
          "type": "uint256"
        },
        {
          "name": "_globalTokensPerDeposit",
          "type": "uint256"
        },
        {
          "name": "_globalQuorum",
          "type": "uint8"
        },
        {
          "name": "_globalMajority",
          "type": "uint8"
        },
        {
          "name": "_globalDilutionBound",
          "type": "uint8"
        }
      ],
      "name": "Summoned",
      "type": "constructor",
      "payable": false,
      "stateMutability": "nonpayable"
    },
    {
      "anonymous": false,
      "inputs": [
        {
          "indexed": false,
          "name": "proposalIndex",
          "type": "uint256"
        },
        {
          "indexed": true,
          "name": "proposer",
          "type": "address"
        },
        {
          "indexed": false,
          "name": "title",
          "type": "string"
        },
        {
          "indexed": false,
          "name": "documentationAddress",
          "type": "bytes32"
        },
        {
          "indexed": false,
          "name": "isProposalOrApplication",
          "type": "bool"
        }
      ],
      "name": "SubmittedProposal",
      "type": "fallback",
      "payable": true,
      "stateMutability": "payable"
    },
    {
      "anonymous": false,
      "inputs": [
        {
          "indexed": true,
          "name": "summoner",
          "type": "address"
        },
        {
          "indexed": false,
          "name": "initialShares",
          "type": "uint256"
        },
        {
          "indexed": false,
          "name": "vote",
          "type": "uint8"
        }
      ],
      "name": "Summoned",
      "type": "event"
    },
    {
      "anonymous": false,
      "inputs": [
        {
          "indexed": false,
          "name": "proposalIndex",
          "type": "uint256"
        },
        {
          "indexed": true,
          "name": "proposer",
          "type": "address"
        },
        {
          "indexed": false,
          "name": "title",
          "type": "string"
        },
        {
          "indexed": false,
          "name": "documentationAddress",
          "type": "bytes32"
        },
        {
          "indexed": false,
          "name": "isProposalOrApplication",
          "type": "bool"
        }
      ],
      "name": "SubmittedProposal",
      "type": "event"
    },
    {
      "anonymous": false,
      "inputs": [
        {
          "indexed": false,
          "name": "proposalIndex",
          "type": "uint256"
        },
        {
          "indexed": false,
          "name": "voter",
          "type": "address"
        },
        {
          "indexed": false,
          "name": "vote",
          "type": "uint8"
        }
      ],
      "name": "SubmittedVote",
      "type": "event"
    },
    {
      "anonymous": false,
      "inputs": [
        {
          "indexed": false,
          "name": "proposalIndex",
          "type": "uint256"
        },
        {
          "indexed": false,
          "name": "didPass",
          "type": "bool"
        }
      ],
      "name": "ProcessedProposal",
      "type": "event"
    },
    {
      "anonymous": false,
      "inputs": [
        {
          "indexed": false,
          "name": "applicant",
          "type": "address"
        },
        {
          "indexed": false,
          "name": "sharesMinted",
          "type": "uint256"
        }
      ],
      "name": "MemberJoinedGuild",
      "type": "event"
    },
    {
      "anonymous": false,
      "inputs": [],
      "name": "AbortedProposal",
      "type": "event"
    },
    {
      "anonymous": false,
      "inputs": [],
      "name": "ExternalFundGuild",
      "type": "event"
    },
    {
      "constant": false,
      "inputs": [
        {
          "name": "_isProposalOrApplication",
          "type": "bool"
        },
        {
          "name": "_applicant",
          "type": "address"
        },
        {
          "name": "_title",
          "type": "string"
        },
        {
          "name": "_documentationAddress",
          "type": "bytes32"
        },
        {
          "name": "_fundingGoal",
          "type": "uint256"
        },
        {
          "name": "_sharesRequested",
          "type": "uint256"
        }
      ],
      "name": "ExternalFundProposal",
      "outputs": [],
      "payable": true,
      "stateMutability": "payable",
      "type": "event",
      "anonymous": false
    },
    {
      "constant": false,
      "inputs": [
        {
          "name": "_proposalIndex",
          "type": "uint256"
        },
        {
          "name": "_uint8vote",
          "type": "uint8"
        }
      ],
      "name": "RageQuit",
      "outputs": [],
      "payable": false,
      "stateMutability": "nonpayable",
      "type": "event",
      "anonymous": false
    },
    {
      "constant": false,
      "inputs": [
        {
          "name": "_isProposalOrApplication",
          "type": "bool"
        },
        {
          "name": "_applicant",
          "type": "address"
        },
        {
          "name": "_title",
          "type": "string"
        },
        {
          "name": "_documentationAddress",
          "type": "bytes32"
        },
        {
          "name": "_fundingGoal",
          "type": "uint256"
        },
        {
          "name": "_sharesRequested",
          "type": "uint256"
        }
      ],
      "name": "submitProposal",
      "outputs": [],
      "payable": true,
      "stateMutability": "payable",
      "type": "function"
    },
    {
      "constant": false,
      "inputs": [
        {
          "name": "_proposalIndex",
          "type": "uint256"
        },
        {
          "name": "_uint8vote",
          "type": "uint8"
        }
      ],
      "name": "submitVote",
      "outputs": [],
      "payable": false,
      "stateMutability": "nonpayable",
      "type": "function"
    },
    {
      "constant": false,
      "inputs": [
        {
          "name": "_proposalIndex",
          "type": "uint256"
        }
      ],
      "name": "processProposal",
      "outputs": [],
      "payable": false,
      "stateMutability": "nonpayable",
      "type": "function"
    },
    {
      "constant": false,
      "inputs": [],
      "name": "rageQuit",
      "outputs": [],
      "payable": false,
      "stateMutability": "nonpayable",
      "type": "function"
    },
    {
      "constant": false,
      "inputs": [],
      "name": "depositFunds",
      "outputs": [],
      "payable": false,
      "stateMutability": "nonpayable",
      "type": "function"
    },
    {
      "constant": false,
      "inputs": [],
      "name": "withdrawFunds",
      "outputs": [],
      "payable": false,
      "stateMutability": "nonpayable",
      "type": "function"
    },
    {
      "constant": false,
      "inputs": [],
      "name": "externalFundProposal",
      "outputs": [],
      "payable": false,
      "stateMutability": "nonpayable",
      "type": "function"
    },
    {
      "constant": false,
      "inputs": [],
      "name": "externalFundDAO",
      "outputs": [],
      "payable": false,
      "stateMutability": "nonpayable",
      "type": "function"
    }
  ],
  "bytecode": "0x60806040523480156200001157600080fd5b5060405161012080620039a783398101806040526101208110156200003557600080fd5b8101908080519060200190929190805190602001909291908051906020019092919080519060200190929190805190602001909291908051906020019092919080519060200190929190805190602001909291908051906020019092919050505060008911151562000135576040517f08c379a00000000000000000000000000000000000000000000000000000000081526004018080602001828103825260308152602001807f7244414f3a3a636f6e7374727563746f72202d20566f74696e6720706572696f81526020017f642063616e6e6f74206265207a65726f0000000000000000000000000000000081525060400191505060405180910390fd5b670de0b6b3a76400008911151515620001dc576040517f08c379a00000000000000000000000000000000000000000000000000000000081526004018080602001828103825260368152602001807f7244414f3a3a636f6e7374727563746f72202d20566f74696e6720706572696f81526020017f64206973206f7574206f6620626f756e6461726965730000000000000000000081525060400191505060405180910390fd5b6000881115156200027b576040517f08c379a00000000000000000000000000000000000000000000000000000000081526004018080602001828103825260328152602001807f7244414f3a3a636f6e7374727563746f72202d2052616765717569742070657281526020017f696f642063616e6e6f74206265207a65726f000000000000000000000000000081525060400191505060405180910390fd5b670de0b6b3a7640000881115151562000322576040517f08c379a00000000000000000000000000000000000000000000000000000000081526004018080602001828103825260388152602001807f7244414f3a3a636f6e7374727563746f72202d2052616765717569742070657281526020017f696f64206973206f7574206f6620626f756e646172696573000000000000000081525060400191505060405180910390fd5b600087111515620003c1576040517f08c379a000000000000000000000000000000000000000000000000000000000815260040180806020018281038252603f8152602001807f7244414f3a3a636f6e7374727563746f72202d2050726f706f73616c2064657081526020017f6f7369742063616e6e6f74206265206e65676174697665206f72207a65726f0081525060400191505060405180910390fd5b670de0b6b3a7640000871115151562000468576040517f08c379a00000000000000000000000000000000000000000000000000000000081526004018080602001828103825260398152602001807f7244414f3a3a636f6e7374727563746f72202d2050726f706f73616c2064657081526020017f6f736974206973206f7574206f6620626f756e6461726965730000000000000081525060400191505060405180910390fd5b6000861115156200052d576040517f08c379a000000000000000000000000000000000000000000000000000000000815260040180806020018281038252604b8152602001807f7244414f3a3a636f6e7374727563746f72202d2050726f63657373696e67207281526020017f65776172642063616e2774206265207a65726f2e20497420736572766573206181526020017f7320696e63656e7469766500000000000000000000000000000000000000000081525060600191505060405180910390fd5b670de0b6b3a76400008611151515620005d4576040517f08c379a000000000000000000000000000000000000000000000000000000000815260040180806020018281038252603a8152602001807f7244414f3a3a636f6e7374727563746f72202d2050726f63657373696e67207281526020017f6577617264206973206f7574206f6620626f756e64617269657300000000000081525060400191505060405180910390fd5b60008511151562000673576040517f08c379a000000000000000000000000000000000000000000000000000000000815260040180806020018281038252603c8152602001807f7244414f3a3a636f6e7374727563746f72202d20496e697469616c6c7920726581526020017f717565737465642073686172652063616e2774206265207a65726f2e0000000081525060400191505060405180910390fd5b670de0b6b3a7640000851115151562000740576040517f08c379a00000000000000000000000000000000000000000000000000000000081526004018080602001828103825260428152602001807f7244414f3a3a636f6e7374727563746f72202d20496e697469616c6c7920726581526020017f71756573746564207368617265206973206f7574206f6620626f756e6461726981526020017f657300000000000000000000000000000000000000000000000000000000000081525060600191505060405180910390fd5b600084111515620007df576040517f08c379a000000000000000000000000000000000000000000000000000000000815260040180806020018281038252603b8152602001807f7244414f3a3a636f6e7374727563746f72202d20546f6b656e7320706572204581526020017f5448206465706f73697465642063616e2774206265207a65726f2e000000000081525060400191505060405180910390fd5b670de0b6b3a76400008411151515620008ac576040517f08c379a00000000000000000000000000000000000000000000000000000000081526004018080602001828103825260418152602001807f7244414f3a3a636f6e7374727563746f72202d20546f6b656e7320706572204581526020017f5448206465706f7369746564206973206f7574206f6620626f756e646172696581526020017f730000000000000000000000000000000000000000000000000000000000000081525060600191505060405180910390fd5b60008360ff161115156200094e576040517f08c379a00000000000000000000000000000000000000000000000000000000081526004018080602001828103825260298152602001807f7244414f3a3a636f6e7374727563746f72202d2051756f72756d2063616e277481526020017f206265207a65726f2e000000000000000000000000000000000000000000000081525060400191505060405180910390fd5b606460ff168360ff1611151515620009f4576040517f08c379a000000000000000000000000000000000000000000000000000000000815260040180806020018281038252602f8152602001807f7244414f3a3a636f6e7374727563746f72202d2051756f72756d206973206f7581526020017f74206f6620626f756e646172696573000000000000000000000000000000000081525060400191505060405180910390fd5b60008260ff1611151562000a96576040517f08c379a000000000000000000000000000000000000000000000000000000000815260040180806020018281038252602b8152602001807f7244414f3a3a636f6e7374727563746f72202d204d616a6f726974792063616e81526020017f2774206265207a65726f2e00000000000000000000000000000000000000000081525060400191505060405180910390fd5b606460ff168260ff161115151562000b3c576040517f08c379a00000000000000000000000000000000000000000000000000000000081526004018080602001828103825260318152602001807f7244414f3a3a636f6e7374727563746f72202d204d616a6f726974792069732081526020017f6f7574206f6620626f756e64617269657300000000000000000000000000000081525060400191505060405180910390fd5b60008160ff1611151562000bde576040517f08c379a00000000000000000000000000000000000000000000000000000000081526004018080602001828103825260318152602001807f7244414f3a3a636f6e7374727563746f72202d2044696c7574696f6e20626f7581526020017f6e642063616e2774206265207a65726f2e00000000000000000000000000000081525060400191505060405180910390fd5b606460ff168160ff161115151562000c84576040517f08c379a00000000000000000000000000000000000000000000000000000000081526004018080602001828103825260378152602001807f7244414f3a3a636f6e7374727563746f72202d2044696c7574696f6e20626f7581526020017f6e64206973206f7574206f6620626f756e64617269657300000000000000000081525060400191505060405180910390fd5b886001819055508760028190555062000cbd670de0b6b3a76400008862000ec6640100000000026200272a179091906401000000009004565b600381905550856004819055508360068190555082600760006101000a81548160ff021916908360ff16021790555081600760016101000a81548160ff021916908360ff16021790555080600760026101000a81548160ff021916908360ff16021790555060093390806001815401808255809150509060018203906000526020600020016000909192909190916101000a81548173ffffffffffffffffffffffffffffffffffffffff021916908373ffffffffffffffffffffffffffffffffffffffff1602179055505084600860003373ffffffffffffffffffffffffffffffffffffffff1673ffffffffffffffffffffffffffffffffffffffff16815260200190815260200160002060000181905550600860003373ffffffffffffffffffffffffffffffffffffffff1673ffffffffffffffffffffffffffffffffffffffff16815260200190815260200160002060000154600e81905550426005819055506000600a819055503373ffffffffffffffffffffffffffffffffffffffff167f0e8aa7f796bed52c73f9870426b0a412b431824dadecf05d1ea47c409f84425e600860003373ffffffffffffffffffffffffffffffffffffffff1673ffffffffffffffffffffffffffffffffffffffff168152602001908152602001600020600001546040518082815260200191505060405180910390a250505050505050505062000f97565b60008083141562000edb576000905062000f91565b6000828402905082848281151562000eef57fe5b0414151562000f8c576040517f08c379a00000000000000000000000000000000000000000000000000000000081526004018080602001828103825260218152602001807f536166654d6174683a206d756c7469706c69636174696f6e206f766572666c6f81526020017f770000000000000000000000000000000000000000000000000000000000000081525060400191505060405180910390fd5b809150505b92915050565b612a008062000fa76000396000f3fe608060405260043610610154576000357c0100000000000000000000000000000000000000000000000000000000900463ffffffff16806303e247661461015657806307f733d21461018157806308ae4b0c146101f05780630c0512e91461025c5780631a396a4a1461028757806324600fc3146102b25780632efea6d8146102c95780633b214a74146102f45780636984c90b146104675780636a5e46281461047e57806377ff703614610495578063889229df146104c05780638b594efc146104f157806399653fbe14610522578063aa5535721461056a578063b0ccbf8c146105c1578063bf6a32b0146105d8578063c58b4bc014610603578063c726dea81461062e578063d055cde4146106a9578063d3f4e514146106da578063e2c41dbc146107df578063e4729d43146107f6578063e63bc62d14610821578063f1662e6d1461085c578063ffa1345b14610887575b005b34801561016257600080fd5b5061016b6108b2565b6040518082815260200191505060405180910390f35b34801561018d57600080fd5b506101da600480360360408110156101a457600080fd5b81019080803573ffffffffffffffffffffffffffffffffffffffff169060200190929190803590602001909291905050506108b8565b6040518082815260200191505060405180910390f35b3480156101fc57600080fd5b5061023f6004803603602081101561021357600080fd5b81019080803573ffffffffffffffffffffffffffffffffffffffff1690602001909291905050506108e8565b604051808381526020018281526020019250505060405180910390f35b34801561026857600080fd5b5061027161090c565b6040518082815260200191505060405180910390f35b34801561029357600080fd5b5061029c610912565b6040518082815260200191505060405180910390f35b3480156102be57600080fd5b506102c7610918565b005b3480156102d557600080fd5b506102de6109fa565b6040518082815260200191505060405180910390f35b34801561030057600080fd5b5061032d6004803603602081101561031757600080fd5b8101908080359060200190929190505050610a00565b604051808f81526020018e73ffffffffffffffffffffffffffffffffffffffff1673ffffffffffffffffffffffffffffffffffffffff1681526020018d73ffffffffffffffffffffffffffffffffffffffff1673ffffffffffffffffffffffffffffffffffffffff1681526020018c8152602001806020018b81526020018a815260200189151515158152602001888152602001878152602001868152602001851515151581526020018481526020018315151515815260200182810382528c818151815260200191508051906020019080838360005b8381101561041f578082015181840152602081019050610404565b50505050905090810190601f16801561044c5780820380516001836020036101000a031916815260200191505b509f5050505050505050505050505050505060405180910390f35b34801561047357600080fd5b5061047c610b7a565b005b34801561048a57600080fd5b50610493610c5c565b005b3480156104a157600080fd5b506104aa610d3e565b6040518082815260200191505060405180910390f35b3480156104cc57600080fd5b506104d5610d44565b604051808260ff1660ff16815260200191505060405180910390f35b3480156104fd57600080fd5b50610506610d57565b604051808260ff1660ff16815260200191505060405180910390f35b34801561052e57600080fd5b506105686004803603604081101561054557600080fd5b8101908080359060200190929190803560ff169060200190929190505050610d6a565b005b34801561057657600080fd5b5061057f6113fd565b604051808273ffffffffffffffffffffffffffffffffffffffff1673ffffffffffffffffffffffffffffffffffffffff16815260200191505060405180910390f35b3480156105cd57600080fd5b506105d6611422565b005b3480156105e457600080fd5b506105ed611504565b6040518082815260200191505060405180910390f35b34801561060f57600080fd5b5061061861150a565b6040518082815260200191505060405180910390f35b34801561063a57600080fd5b506106676004803603602081101561065157600080fd5b8101908080359060200190929190505050611510565b604051808273ffffffffffffffffffffffffffffffffffffffff1673ffffffffffffffffffffffffffffffffffffffff16815260200191505060405180910390f35b3480156106b557600080fd5b506106be61154e565b604051808260ff1660ff16815260200191505060405180910390f35b6107dd600480360360c08110156106f057600080fd5b81019080803515159060200190929190803573ffffffffffffffffffffffffffffffffffffffff1690602001909291908035906020019064010000000081111561073957600080fd5b82018360208201111561074b57600080fd5b8035906020019184600183028401116401000000008311171561076d57600080fd5b91908080601f016020809104026020016040519081016040528093929190818152602001838380828437600081840152601f19601f820116905080830192505050505050509192919290803590602001909291908035906020019092919080359060200190929190505050611561565b005b3480156107eb57600080fd5b506107f4611e64565b005b34801561080257600080fd5b5061080b611f46565b6040518082815260200191505060405180910390f35b34801561082d57600080fd5b5061085a6004803603602081101561084457600080fd5b8101908080359060200190929190505050611f4c565b005b34801561086857600080fd5b50610871612609565b6040518082815260200191505060405180910390f35b34801561089357600080fd5b5061089c61260f565b6040518082815260200191505060405180910390f35b600d5481565b600c602052816000526040600020818154811015156108d357fe5b90600052602060002001600091509150505481565b60086020528060005260406000206000915090508060000154908060010154905082565b600a5481565b600f5481565b6000600860003373ffffffffffffffffffffffffffffffffffffffff1673ffffffffffffffffffffffffffffffffffffffff168152602001908152602001600020600001541115156109f8576040517f08c379a000000000000000000000000000000000000000000000000000000000815260040180806020018281038252602e8152602001807f7244414f3a3a6d656d6265724f6e6c79202d206e6f742061206d656d6265722081526020017f6f6620726573656172636844414f00000000000000000000000000000000000081525060400191505060405180910390fd5b565b60045481565b600b81815481101515610a0f57fe5b90600052602060002090600f02016000915090508060000154908060010160009054906101000a900473ffffffffffffffffffffffffffffffffffffffff16908060020160009054906101000a900473ffffffffffffffffffffffffffffffffffffffff1690806003015490806004018054600181600116156101000203166002900480601f016020809104026020016040519081016040528092919081815260200182805460018160011615610100020316600290048015610b135780601f10610ae857610100808354040283529160200191610b13565b820191906000526020600020905b815481529060010190602001808311610af657829003601f168201915b5050505050908060050154908060060154908060070160009054906101000a900460ff169080600801549080600a01549080600b01549080600c0160009054906101000a900460ff169080600d01549080600e0160009054906101000a900460ff1690508e565b6000600860003373ffffffffffffffffffffffffffffffffffffffff1673ffffffffffffffffffffffffffffffffffffffff16815260200190815260200160002060000154111515610c5a576040517f08c379a000000000000000000000000000000000000000000000000000000000815260040180806020018281038252602e8152602001807f7244414f3a3a6d656d6265724f6e6c79202d206e6f742061206d656d6265722081526020017f6f6620726573656172636844414f00000000000000000000000000000000000081525060400191505060405180910390fd5b565b6000600860003373ffffffffffffffffffffffffffffffffffffffff1673ffffffffffffffffffffffffffffffffffffffff16815260200190815260200160002060000154111515610d3c576040517f08c379a000000000000000000000000000000000000000000000000000000000815260040180806020018281038252602e8152602001807f7244414f3a3a6d656d6265724f6e6c79202d206e6f742061206d656d6265722081526020017f6f6620726573656172636844414f00000000000000000000000000000000000081525060400191505060405180910390fd5b565b600e5481565b600760029054906101000a900460ff1681565b600760009054906101000a900460ff1681565b6000600860003373ffffffffffffffffffffffffffffffffffffffff1673ffffffffffffffffffffffffffffffffffffffff16815260200190815260200160002060000154111515610e4a576040517f08c379a000000000000000000000000000000000000000000000000000000000815260040180806020018281038252602e8152602001807f7244414f3a3a6d656d6265724f6e6c79202d206e6f742061206d656d6265722081526020017f6f6620726573656172636844414f00000000000000000000000000000000000081525060400191505060405180910390fd5b6000600b610e6260018561261590919063ffffffff16565b815481101515610e6e57fe5b90600052602060002090600f02019050600a548311151515610f44576040517f08c379a00000000000000000000000000000000000000000000000000000000081526004018080602001828103825260448152602001807f7244414f3a3a7375626d6974566f7465202d2070726f706f73616c496e64657881526020017f206973206e6f742076616c69642c206e6f74206578697374696e672070726f7081526020017f6f73616c0000000000000000000000000000000000000000000000000000000081525060600191505060405180910390fd5b6000816008015460015442031090506001151581151514151561101b576040517f08c379a000000000000000000000000000000000000000000000000000000000815260040180806020018281038252605c8152602001807f7244414f3a3a7375626d6974566f7465202d2070726f706f73616c207065726981526020017f6f6420656e6465642c206e6f206c6f6e676572206163636570747320766f746581526020017f732e2054696d6520746f2070726f6365737350726f706f73616c28290000000081525060600191505060405180910390fd5b60038360ff161015156110bc576040517f08c379a00000000000000000000000000000000000000000000000000000000081526004018080602001828103825260318152602001807f7244414f3a3a7375626d6974566f7465202d205f75696e7438766f7465206d7581526020017f7374206265206c657373207468616e203300000000000000000000000000000081525060400191505060405180910390fd5b60008360ff1660028111156110cd57fe5b9050600060028111156110dc57fe5b8360090160003373ffffffffffffffffffffffffffffffffffffffff1673ffffffffffffffffffffffffffffffffffffffff16815260200190815260200160002060009054906101000a900460ff16600281111561113657fe5b1415156111d1576040517f08c379a00000000000000000000000000000000000000000000000000000000081526004018080602001828103825260278152602001807f7244414f3a3a7375626d6974566f7465202d206d656d62657220616c7265616481526020017f7920766f7465640000000000000000000000000000000000000000000000000081525060400191505060405180910390fd5b808360090160003373ffffffffffffffffffffffffffffffffffffffff1673ffffffffffffffffffffffffffffffffffffffff16815260200190815260200160002060006101000a81548160ff0219169083600281111561122e57fe5b02179055506001600281111561124057fe5b81600281111561124c57fe5b14156112da57600860003373ffffffffffffffffffffffffffffffffffffffff1673ffffffffffffffffffffffffffffffffffffffff16815260200190815260200160002060000154600b6112ab60018861261590919063ffffffff16565b8154811015156112b757fe5b90600052602060002090600f0201600a016000828254019250508190555061137d565b6002808111156112e657fe5b8160028111156112f257fe5b141561137c57600860003373ffffffffffffffffffffffffffffffffffffffff1673ffffffffffffffffffffffffffffffffffffffff16815260200190815260200160002060000154600b61135160018861261590919063ffffffff16565b81548110151561135d57fe5b90600052602060002090600f0201600b01600082825401925050819055505b5b7f25a0c31eb8e3cc4efdd26be8ef3500e0bac7e9743fbb14a4a105653e862c26d1853386604051808481526020018373ffffffffffffffffffffffffffffffffffffffff1673ffffffffffffffffffffffffffffffffffffffff1681526020018260ff1660ff168152602001935050505060405180910390a15050505050565b6000809054906101000a900473ffffffffffffffffffffffffffffffffffffffff1681565b6000600860003373ffffffffffffffffffffffffffffffffffffffff1673ffffffffffffffffffffffffffffffffffffffff16815260200190815260200160002060000154111515611502576040517f08c379a000000000000000000000000000000000000000000000000000000000815260040180806020018281038252602e8152602001807f7244414f3a3a6d656d6265724f6e6c79202d206e6f742061206d656d6265722081526020017f6f6620726573656172636844414f00000000000000000000000000000000000081525060400191505060405180910390fd5b565b60015481565b60025481565b60098181548110151561151f57fe5b906000526020600020016000915054906101000a900473ffffffffffffffffffffffffffffffffffffffff1681565b600760019054906101000a900460ff1681565b6000600860003373ffffffffffffffffffffffffffffffffffffffff1673ffffffffffffffffffffffffffffffffffffffff16815260200190815260200160002060000154111515611641576040517f08c379a000000000000000000000000000000000000000000000000000000000815260040180806020018281038252602e8152602001807f7244414f3a3a6d656d6265724f6e6c79202d206e6f742061206d656d6265722081526020017f6f6620726573656172636844414f00000000000000000000000000000000000081525060400191505060405180910390fd5b60035434141515611706576040517f08c379a00000000000000000000000000000000000000000000000000000000081526004018080602001828103825260438152602001807f7244414f3a3a7375626d697450726f706f73616c202d2050726f706f73616c2081526020017f6465706f736974206973206e6f7420657175616c20746f20726571756972656d81526020017f656e74000000000000000000000000000000000000000000000000000000000081525060600191505060405180910390fd5b6000602060ff161115156117a8576040517f08c379a00000000000000000000000000000000000000000000000000000000081526004018080602001828103825260388152602001807f7244414f3a3a7375626d697450726f706f73616c202d2041747461636865642081526020017f646f63756d656e746174696f6e206973206d697373696e67000000000000000081525060400191505060405180910390fd5b6001151586151514156118fe57600082111515611853576040517f08c379a00000000000000000000000000000000000000000000000000000000081526004018080602001828103825260328152602001807f7244414f3a3a7375626d697450726f706f73616c202d2046756e64696e67206781526020017f6f616c2063616e6e6f74206265207a65726f000000000000000000000000000081525060400191505060405180910390fd5b670de0b6b3a764000082111515156118f9576040517f08c379a00000000000000000000000000000000000000000000000000000000081526004018080602001828103825260388152602001807f7244414f3a3a7375626d697450726f706f73616c202d2046756e64696e67206781526020017f6f616c206973206f7574206f6620626f756e646172696573000000000000000081525060400191505060405180910390fd5b600090505b600015158615151415611a82576000811115156119a9576040517f08c379a00000000000000000000000000000000000000000000000000000000081526004018080602001828103825260368152602001807f7244414f3a3a7375626d697450726f706f73616c202d2053686172657320726581526020017f717565737465642063616e6e6f74206265207a65726f0000000000000000000081525060400191505060405180910390fd5b60006119d4600f546119c6600e54856126a090919063ffffffff16565b6126a090919063ffffffff16565b9050670de0b6b3a76400008111151515611a7c576040517f08c379a000000000000000000000000000000000000000000000000000000000815260040180806020018281038252603c8152602001807f7244414f3a3a7375626d697450726f706f73616c202d2053686172657320726581526020017f71756573746564206973206f7574206f6620626f756e6461726965730000000081525060400191505060405180910390fd5b60009250505b6000611a9a6001600a546126a090919063ffffffff16565b9050611ab26001600a546126a090919063ffffffff16565b600a81905550611ac061288a565b6101c0604051908101604052808381526020013373ffffffffffffffffffffffffffffffffffffffff1681526020018873ffffffffffffffffffffffffffffffffffffffff1681526020018481526020018781526020018681526020018581526020016001151581526020014281526020016000815260200160008152602001600015158152602001600081526020018915158152509050871515611b7f57611b788160600151600f546126a090919063ffffffff16565b600f819055505b600b819080600181540180825580915050906001820390600052602060002090600f0201600090919290919091506000820151816000015560208201518160010160006101000a81548173ffffffffffffffffffffffffffffffffffffffff021916908373ffffffffffffffffffffffffffffffffffffffff16021790555060408201518160020160006101000a81548173ffffffffffffffffffffffffffffffffffffffff021916908373ffffffffffffffffffffffffffffffffffffffff160217905550606082015181600301556080820151816004019080519060200190611c6b92919061292f565b5060a0820151816005015560c0820151816006015560e08201518160070160006101000a81548160ff021916908315150217905550610100820151816008015561012082015181600a015561014082015181600b015561016082015181600c0160006101000a81548160ff02191690831515021790555061018082015181600d01556101a082015181600e0160006101000a81548160ff021916908315150217905550505050600c60003373ffffffffffffffffffffffffffffffffffffffff1673ffffffffffffffffffffffffffffffffffffffff1681526020019081526020016000208290806001815401808255809150509060018203906000526020600020016000909192909190915055503373ffffffffffffffffffffffffffffffffffffffff167f5112e1fd2fccbfb994e10502638ec30741ddd29d276dcee5a7eefb22aea8a543826000015183608001518460a00151856101a00151604051808581526020018060200184815260200183151515158152602001828103825285818151815260200191508051906020019080838360005b83811015611e1d578082015181840152602081019050611e02565b50505050905090810190601f168015611e4a5780820380516001836020036101000a031916815260200191505b509550505050505060405180910390a25050505050505050565b6000600860003373ffffffffffffffffffffffffffffffffffffffff1673ffffffffffffffffffffffffffffffffffffffff16815260200190815260200160002060000154111515611f44576040517f08c379a000000000000000000000000000000000000000000000000000000000815260040180806020018281038252602e8152602001807f7244414f3a3a6d656d6265724f6e6c79202d206e6f742061206d656d6265722081526020017f6f6620726573656172636844414f00000000000000000000000000000000000081525060400191505060405180910390fd5b565b60065481565b6000600860003373ffffffffffffffffffffffffffffffffffffffff1673ffffffffffffffffffffffffffffffffffffffff1681526020019081526020016000206000015411151561202c576040517f08c379a000000000000000000000000000000000000000000000000000000000815260040180806020018281038252602e8152602001807f7244414f3a3a6d656d6265724f6e6c79202d206e6f742061206d656d6265722081526020017f6f6620726573656172636844414f00000000000000000000000000000000000081525060400191505060405180910390fd5b6000600b61204460018461261590919063ffffffff16565b81548110151561205057fe5b90600052602060002090600f02019050600a548211151515612126576040517f08c379a00000000000000000000000000000000000000000000000000000000081526004018080602001828103825260498152602001807f7244414f3a3a70726f6365737350726f706f73616c202d2070726f706f73616c81526020017f496e646578206973206e6f742076616c69642c206e6f74206578697374696e6781526020017f2070726f706f73616c000000000000000000000000000000000000000000000081525060600191505060405180910390fd5b600081600801546001544203119050600015158115151415156121d7576040517f08c379a00000000000000000000000000000000000000000000000000000000081526004018080602001828103825260398152602001807f7244414f3a3a70726f6365737350726f706f73616c202d2070726f706f73616c81526020017f206973207374696c6c206f70656e20666f7220766f74696e670000000000000081525060400191505060405180910390fd5b81600b015482600a01541182600c0160006101000a81548160ff021916908315150217905550600061221a83600b015484600a01546126a090919063ffffffff16565b9050612243600760009054906101000a900460ff1660ff16600e5461272a90919063ffffffff16565b61225760648361272a90919063ffffffff16565b1183600c0160006101000a81548160ff021916908315150217905550600760019054906101000a900460ff1660ff166122b060646122a28487600a01546127f790919063ffffffff16565b61272a90919063ffffffff16565b1183600c0160006101000a81548160ff02191690831515021790555060008360070160006101000a81548160ff0219169083151502179055506123028360030154600f5461261590919063ffffffff16565b600f819055506001151583600c0160009054906101000a900460ff16151514156124df576001151583600e0160009054906101000a900460ff16151514156123b8578260010160009054906101000a900473ffffffffffffffffffffffffffffffffffffffff1673ffffffffffffffffffffffffffffffffffffffff166108fc84600601549081150290604051600060405180830381858888f193505050501580156123b2573d6000803e3d6000fd5b506124da565b6000151583600e0160009054906101000a900460ff16151514156124d9578260030154600860008560020160009054906101000a900473ffffffffffffffffffffffffffffffffffffffff1673ffffffffffffffffffffffffffffffffffffffff1673ffffffffffffffffffffffffffffffffffffffff168152602001908152602001600020600001819055507f74d524b329f99ba73ae6076b03ebe7fba2d19412d52c9ba4c4373e85937c45d48360020160009054906101000a900473ffffffffffffffffffffffffffffffffffffffff168460030154604051808373ffffffffffffffffffffffffffffffffffffffff1673ffffffffffffffffffffffffffffffffffffffff1681526020018281526020019250505060405180910390a15b5b6124f5565b6000151583600c0160009054906101000a905050505b8260010160009054906101000a900473ffffffffffffffffffffffffffffffffffffffff1673ffffffffffffffffffffffffffffffffffffffff166108fc6003549081150290604051600060405180830381858888f19350505050158015612561573d6000803e3d6000fd5b503373ffffffffffffffffffffffffffffffffffffffff166108fc6004549081150290604051600060405180830381858888f193505050501580156125aa573d6000803e3d6000fd5b507f85acde6aac08108614a0800c99b5790887e4d6edcef99cf6f9eadc9fc597467c836000015484600c0160009054906101000a900460ff1660405180838152602001821515151581526020019250505060405180910390a150505050565b60035481565b60055481565b600082821115151561268f576040517f08c379a000000000000000000000000000000000000000000000000000000000815260040180806020018281038252601e8152602001807f536166654d6174683a207375627472616374696f6e206f766572666c6f77000081525060200191505060405180910390fd5b600082840390508091505092915050565b6000808284019050838110151515612720576040517f08c379a000000000000000000000000000000000000000000000000000000000815260040180806020018281038252601b8152602001807f536166654d6174683a206164646974696f6e206f766572666c6f77000000000081525060200191505060405180910390fd5b8091505092915050565b60008083141561273d57600090506127f1565b6000828402905082848281151561275057fe5b041415156127ec576040517f08c379a00000000000000000000000000000000000000000000000000000000081526004018080602001828103825260218152602001807f536166654d6174683a206d756c7469706c69636174696f6e206f766572666c6f81526020017f770000000000000000000000000000000000000000000000000000000000000081525060400191505060405180910390fd5b809150505b92915050565b60008082111515612870576040517f08c379a000000000000000000000000000000000000000000000000000000000815260040180806020018281038252601a8152602001807f536166654d6174683a206469766973696f6e206279207a65726f00000000000081525060200191505060405180910390fd5b6000828481151561287d57fe5b0490508091505092915050565b6101c06040519081016040528060008152602001600073ffffffffffffffffffffffffffffffffffffffff168152602001600073ffffffffffffffffffffffffffffffffffffffff16815260200160008152602001606081526020016000801916815260200160008152602001600015158152602001600081526020016000815260200160008152602001600015158152602001600081526020016000151581525090565b828054600181600116156101000203166002900490600052602060002090601f016020900481019282601f1061297057805160ff191683800117855561299e565b8280016001018555821561299e579182015b8281111561299d578251825591602001919060010190612982565b5b5090506129ab91906129af565b5090565b6129d191905b808211156129cd5760008160009055506001016129b5565b5090565b9056fea165627a7a723058204d4ca4ed39d2d8f58203c5ab7067bdb5ea20dd3034acd47bd4b9b4008c1c7d260029",
  "source": "/// @author Adrian Lenard\n/// @title researchDAO - Collective intelligence for the research community\n/// @notice Purpose of this contract is to enable guild like operation for researchers, while enabling crowdfunding capital to accelerate research funding\n/// @dev All function calls are currently implemented without side effects\n\npragma solidity ^0.5.0;\n\n// Importing SafeMath library for safe operations and ERC20 for token interactions\nimport './OpenZeppelin//SafeMath.sol';\nimport './OpenZeppelin//ERC20.sol';\n\n// Imports for Remix IDE\n//import 'https://github.com/OpenZeppelin/openzeppelin-solidity/blob/master/contracts/math/SafeMath.sol';\n//import 'https://github.com/OpenZeppelin/openzeppelin-solidity/blob/master/contracts/token/ERC20/ERC20.sol';\n\ncontract researchDAO {\n\nusing SafeMath for uint;                     // Enabling contract to use SafeMath library for uint type operations\nERC20 public guildERC20Token;                // Reference for the token used for the DAO\n\n// Global constants for constructor\n\nuint256 public globalVotingPeriod;            // Default value is 30 days or 2.592e+6 seconds\nuint256 public globalRagequitPeriod;          // Default value is 7 days or 604800 seconds\nuint256 public globalProposalDeposit;         // Default value is 10 ETH\nuint256 public globalProcessingReward;        // Default value is 0.1 ETH to incentivize processing. 10 means: 1/10 ETH per\nuint256 public globalSummoningTime;           // The block.timestamp at contract deployment\nuint256 public globalTokensPerDeposit;        // The amount of tokens minted per 1 ETH deposited\nuint8 public globalQuorum;                    // Default value is 50 for 50%, this sets the required participation for a proposal vote to pass\nuint8 public globalMajority;                  // Default value is 50 for 50%, this sets the number of required Yes votes for a vote to pass\nuint8 public globalDilutionBound;              // Default value is 2 for 2x dilution, this prevents extreme dilution of members\n\n// Security limits thanks to Moloch DAO\n// These numbers are quite arbitrary; they are small enough to avoid overflows when doing calculations\n// with periods or shares, yet big enough to not limit reasonable use cases.\n\nuint256 constant MAX_VOTING_PERIOD_LENGTH = 10**18;     // maximum length of voting period\nuint256 constant MAX_GRACE_PERIOD_LENGTH = 10**18;      // maximum length of grace period\nuint256 constant MAX_NUMBER_OF_SHARES = 10**18;         // maximum number of shares that can be minted\nuint256 constant MAX_NUMBER_OF_TOKENS = 10**18;         // maximum number of tokens that can be minted\nuint256 constant MAX_TOKEN_MULTIPLIER = 10**18;         // maximum number for token multiplier that can be used\nuint256 constant MAX_PROCESS_REWARD = 10**18;           // maximum number for processing reward that can be used\nuint256 constant MAX_INITIAL_SHARE = 10**18;            // maximum number for initial share request that can be used\nuint256 constant MAX_TOKENS_PER_DEPOSIT = 10**18;       // maximum number for token per deposit multiper that can be used\nuint256 constant MAX_FUNDING_GOAL = 10**18;             // maximum number for funding that can be used\nuint8 constant MAX_QUORUM = 10**2;                      // maximum number for quorum that can be used\nuint8 constant MAX_MAJORITY = 10**2;                    // maximum number for majority that can be used\nuint8 constant MAX_DILUTION_BOUND = 10**2;              // maximum number for dilution bound that can be used\n\n// Events\n\nevent Summoned(address indexed summoner, uint256 initialShares );\n\nevent SubmittedProposal(\n  uint256 proposalIndex,\n  address indexed proposer,\n  string title,\n  bytes32 documentationAddress,\n  bool isProposalOrApplication);\nevent SubmittedVote(uint256 proposalIndex, address voter, uint8 vote);\nevent ProcessedProposal(uint256 proposalIndex, bool didPass);\nevent MemberJoinedGuild(address applicant, uint256 sharesMinted);\nevent AbortedProposal();\nevent ExternalFundGuild();\nevent ExternalFundProposal();\nevent RageQuit();\n\n\n// Guild governance - These variables are responsible for governance related values\n\n// Members\nstruct Member {\n    uint256 shares;   // rDAO voting shares - voting power\n    uint256 tokens;   // rDAO tokens - monetary power\n\n}\nmapping(address => Member) public members;   // Storing member details in a mapping\naddress[] public memberArray;                 // Member array\n\n// Votes\nenum Vote {\n    Null,   // default value\n    Yes,\n    No\n}\n// Proposal structure\nstruct Proposal {     // This struct serves as the framework for a proposal to be submitted\n\n    uint256 proposalIndex;  // the numeric ID of the proposal\n    address payable proposer;   // the address of the submitter\n    address applicant;  // the applicant address who would like to join\n    uint256 sharesRequested;  // shares requested for the proposed member\n    string  title;  // simple title for the proposal, e.g.: Adrian L. new membership proposal\n    bytes32 documentationAddress;   // IPFS hash of the detailed documentation, e.g.: research project description\n    uint256 fundingGoal;  // amount of the required funding, coming from guild fund and external contributors\n    bool isProposalOpen;   // state of the proposal, default is open, closed in processProposal() call\n    uint256 creationTimestamp;  // block.timestamp when proposal is submitted\n    mapping(address => Vote) votesByMembers;   // stores each members vote in a mapping\n    uint256 yesVote;  // #of Yes votes\n    uint256 noVote;   // #of No votes\n    bool    didPass;  // result state of proposal, changed when calling processProposal()\n    uint256 externalFundsCollected;  // the amount received from external contributors\n    bool isProposalOrApplication;   // This is used for switching between member application and proposal for research.\n                                       // [0 = proposal for research, 1 = new member application]\n    //uint256 percentForSale;   // percentage of the fundable share - to be implemented lated\n    }\n\n\nuint256 public proposalCounter;     // Storing actual highest index for proposals - incremented upon submitProposal()\nProposal[] public proposalQueue;    // Storing proposals in an array for queuing\nmapping(address => uint256[]) public proposalsOfMembers;   // Storing proposals for each member in an array\n\n// Guild bank - These variables handle internal token and share allocations\n\n// Member shares and tokens are stored in the Member struct used in members mapping\nuint256 public rDAO_totalTokenSupply;                // Counting the total supply minted\nuint256 public rDAO_totalShareSupply;                // Counting the total shares issued\nuint256 public totalSharesRequested;                 // Counting the total shares requested in the currently open proposals\n\n// Modifiers\n\n// memberOnly serves as the restriction modifier for function calls\nmodifier memberOnly {\n    require(members[msg.sender].shares > 0, \"rDAO::memberOnly - not a member of researchDAO\");\n    _;\n}\n\n\n// Summoning constructor\n/// @notice Constructor function for summoning the DAO\n/// @param _globalVotingPeriod The number which sets the voting period in seconds\n/// @param _globalRagequitPeriod The number which sets the ragequit period in seconds\n/// @param _globalProposalDeposit The number that sets the required deposit upon proposal submission\n/// @param _globalProcessingReward The number that sets the reward value when a member processes an ended proposal\n/// @param _initialSharesRequested The number of the shares the summoner receives when summoning the DAO\n/// @param _globalTokensPerDeposit The number of tokens minted when a member deposits Eth to the guild bank\n/// @param _globalQuorum The quorum percentage required for a vote to pass\n/// @param _globalMajority The majority percentage that is requirement for Yes votes to pass\n\n  constructor(\n  //address _guildERC20Token,       // Will be implemented later\n  uint256 _globalVotingPeriod,\n  uint256 _globalRagequitPeriod,\n  uint256 _globalProposalDeposit,\n  uint256 _globalProcessingReward,\n  uint256 _initialSharesRequested,\n  uint256 _globalTokensPerDeposit,\n  uint8 _globalQuorum,\n  uint8 _globalMajority,\n  uint8 _globalDilutionBound)\n  public\n  {\n    // Checking summoning global constant values for security limits\n    require(_globalVotingPeriod > 0,                                \"rDAO::constructor - Voting period cannot be zero\");\n    require(_globalVotingPeriod <= MAX_VOTING_PERIOD_LENGTH,        \"rDAO::constructor - Voting period is out of boundaries\");\n    require(_globalRagequitPeriod > 0,                              \"rDAO::constructor - Ragequit period cannot be zero\");\n    require(_globalRagequitPeriod <= MAX_VOTING_PERIOD_LENGTH,      \"rDAO::constructor - Ragequit period is out of boundaries\");\n    require(_globalProposalDeposit > 0,                             \"rDAO::constructor - Proposal deposit cannot be negative or zero\");\n    require(_globalProposalDeposit <= MAX_TOKEN_MULTIPLIER,         \"rDAO::constructor - Proposal deposit is out of boundaries\");\n    require(_globalProcessingReward > 0,                            \"rDAO::constructor - Processing reward can't be zero. It serves as incentive\");\n    require(_globalProcessingReward <= MAX_PROCESS_REWARD,          \"rDAO::constructor - Processing reward is out of boundaries\");\n    require(_initialSharesRequested > 0,                            \"rDAO::constructor - Initially requested share can't be zero.\");\n    require(_initialSharesRequested <= MAX_INITIAL_SHARE,           \"rDAO::constructor - Initially requested share is out of boundaries\");\n    require(_globalTokensPerDeposit > 0,                            \"rDAO::constructor - Tokens per ETH deposited can't be zero.\");\n    require(_globalTokensPerDeposit <= MAX_TOKENS_PER_DEPOSIT,      \"rDAO::constructor - Tokens per ETH deposited is out of boundaries\");\n    require(_globalQuorum > 0,                                      \"rDAO::constructor - Quorum can't be zero.\");\n    require(_globalQuorum <= MAX_QUORUM,                            \"rDAO::constructor - Quorum is out of boundaries\");\n    require(_globalMajority > 0,                                    \"rDAO::constructor - Majority can't be zero.\");\n    require(_globalMajority <= MAX_MAJORITY,                        \"rDAO::constructor - Majority is out of boundaries\");\n    require(_globalDilutionBound > 0,                               \"rDAO::constructor - Dilution bound can't be zero.\");\n    require(_globalDilutionBound <= MAX_DILUTION_BOUND,             \"rDAO::constructor - Dilution bound is out of boundaries\");\n\n    // Setting global constansts based on constructor parameters\n    globalVotingPeriod = _globalVotingPeriod;\n    globalRagequitPeriod = _globalRagequitPeriod;\n    globalProposalDeposit = _globalProposalDeposit.mul(1e18); // Converting wei to Ether\n    globalProcessingReward = _globalProcessingReward;\n    globalTokensPerDeposit = _globalTokensPerDeposit;\n    globalQuorum = _globalQuorum;\n    globalMajority = _globalMajority;\n    globalDilutionBound = _globalDilutionBound;\n\n    // Storing summoner as a member\n    memberArray.push(msg.sender);\n\n    // Setting up initial founding member and storing his shares in members mapping\n    members[msg.sender].shares = _initialSharesRequested;\n\n    // Initializing share supply according to summon parameters\n    rDAO_totalShareSupply = members[msg.sender].shares;\n\n    // Storing the timestamp of the summoning (now is alias for block.timestamp)\n    globalSummoningTime = now;\n\n    // Counter initialization\n    proposalCounter = 0;\n\n    // Emitting the corresponding event with the summoners address and the allocated share number\n    emit Summoned(msg.sender, members[msg.sender].shares);\n\n  }\n\n// Functions\n// ---------\n// submitProposal()           when a member proposes something either for research or new membership application\n// submitVote()               when a member casts a vote on a given proposal from within the DAO\n// processProposal()          when a member finalizes a proposal by closing it and executing it based on the results\n// depositFunds()             when a member wants to deposit ETH in return of guild tokens\n// withdrawFunds()            when a member wants to withdraw his tokens in exchange for ETH\n// rageQuit()                 when a member ragequits and collects his funds based on rDAO token amount\n// externalFundProposal()     when an external contributor funds a specific proposal\n// externalFundDAO()          when an external contributor funds the DAO generally to let internal members decide over the fund\n\n\n/// @notice submitProposal function creates a new proposal submitted by an existing member\n/// @param _isProposalOrApplication Acts as a switch for deciding the proposal type: proposal for research OR proposal for new member application\n/// @param _applicant The address of the applying member\n/// @param _title The title of the submitted proposal\n/// @param _documentationAddress Hash address for the detailed documentation of the proposal\n/// @param _fundingGoal Funds required by the proposer to realize the research proposal\n/// @param _sharesRequested New shares minted for the applying member\n\nfunction submitProposal(\nbool _isProposalOrApplication,\naddress _applicant,\nstring memory _title,\nbytes32 _documentationAddress,\nuint256 _fundingGoal,\n//uint256 _percentForSale,\nuint256 _sharesRequested)\npublic\npayable\nmemberOnly\n{\n  // Checking if there is deposit sent with submitProposal function\n  require(msg.value == globalProposalDeposit,           \"rDAO::submitProposal - Proposal deposit is not equal to requirement\");\n\n  // Checking inputs for all types of proposal\n  require(_documentationAddress.length > 0,             \"rDAO::submitProposal - Attached documentation is missing\");\n\n  // IF proposal for research\n  if ( _isProposalOrApplication == true ) {\n    require(_fundingGoal > 0,                           \"rDAO::submitProposal - Funding goal cannot be zero\");\n    require(_fundingGoal <= MAX_FUNDING_GOAL,           \"rDAO::submitProposal - Funding goal is out of boundaries\");\n    _sharesRequested = 0;                               // Zeroing out. Not needed when proposing a research\n  }\n\n  // IF proposal for new member application\n  if( _isProposalOrApplication == false ) {\n\n    require(_sharesRequested > 0,                       \"rDAO::submitProposal - Shares requested cannot be zero\");\n    uint256 shareUpperBoundaries = _sharesRequested.add(rDAO_totalShareSupply).add(totalSharesRequested);\n    require(shareUpperBoundaries <= MAX_NUMBER_OF_SHARES,   \"rDAO::submitProposal - Shares requested is out of boundaries\");\n    _fundingGoal = 0;                                   // Zeroing out. Not needed when proposing a new member\n\n  }\n\n  // Copying current #for proposals and incrementing counter\n  uint256 _proposalIndex = proposalCounter.add(1);\n  proposalCounter = proposalCounter.add(1);\n\n  // Creating proposal with fn parameters\n  Proposal memory proposal = Proposal({\n    proposalIndex: _proposalIndex,\n    proposer: msg.sender,\n    applicant: _applicant,\n    sharesRequested: _sharesRequested,\n    title: _title,\n    documentationAddress: _documentationAddress,\n    fundingGoal: _fundingGoal,\n    //percentForSale: _percentForSale,\n    isProposalOpen: true,\n    creationTimestamp: now,\n    yesVote: 0,\n    noVote: 0,\n    didPass: false,\n    externalFundsCollected: 0,\n    isProposalOrApplication: _isProposalOrApplication\n  });\n\n  // Adding #of shares requested by the current proposal to totalSharesRequested if this is a member application\n  if (!_isProposalOrApplication) {\n    totalSharesRequested = totalSharesRequested.add(proposal.sharesRequested);\n  }\n\n  // Adding the created proposal to the proposal queue\n  proposalQueue.push(proposal);\n\n  // Adding proposal to proposalsOfMembers mapping array\n  proposalsOfMembers[msg.sender].push(_proposalIndex);\n\n  // Emitting related event\n  emit SubmittedProposal(proposal.proposalIndex, msg.sender, proposal.title, proposal.documentationAddress, proposal.isProposalOrApplication);\n\n}\n\n/// @notice submitVote function to cast a vote on a given proposal\n/// @param _proposalIndex The index/ID of the proposal to vote on\n/// @param _uint8vote The vote - 0: Null, 1: Yes, 2: No\n\nfunction submitVote(\n  uint256 _proposalIndex,\n  uint8 _uint8vote\n)\npublic\nmemberOnly\n{\n  // require proposalIndex to a valid proposal using proposalCount\n  // check timeframe: require VOTING_PERIOD - proposal.creationTimestamp > 0\n  // convert vote from uint to Vote struct to use with votesByMembers\n  // store member and his vote in votesByMembers\n  // mapping (address => Vote) votesByMembers;   // stores each members vote in a mapping\n  // store YesVote or NoVote and add up voter shares\n  // emit Event submittedVote()\n\n  Proposal storage proposal = proposalQueue[_proposalIndex.sub(1)];\n\n  // Checking that the _proposalIndex parameter is a valid proposal\n  require(_proposalIndex <= proposalCounter, \"rDAO::submitVote - proposalIndex is not valid, not existing proposal\");\n\n  // Checking if the proposal voting period has ended\n  bool isTimeLeft = now - globalVotingPeriod < proposal.creationTimestamp;\n  require(isTimeLeft == true, \"rDAO::submitVote - proposal period ended, no longer accepts votes. Time to processProposal()\");\n\n  // Checking that the input parameter _uint8vote is at most 3 and converting it into a Vote sturct\n  require(_uint8vote < 3, \"rDAO::submitVote - _uint8vote must be less than 3\");\n  Vote vote = Vote(_uint8vote);\n\n  // Checking if the member has voted already and storing the casted vote into votesByMembers\n  require(proposal.votesByMembers[msg.sender] == Vote.Null , \"rDAO::submitVote - member already voted\");\n  proposal.votesByMembers[msg.sender] = vote;\n\n  // Incrementing vote counters in proposal based on casted vote times the voting member's shares\n  if (vote == Vote.Yes) {\n    proposalQueue[_proposalIndex.sub(1)].yesVote += members[msg.sender].shares;\n  } else if (vote == Vote.No) {\n    proposalQueue[_proposalIndex.sub(1)].noVote += members[msg.sender].shares;\n  }\n\n  // Emitting the relevant event SubmittedVote()\n  emit SubmittedVote(_proposalIndex, msg.sender, _uint8vote);\n\n}\n\n/// @notice processProposal processes an ended proposal and executes the proposed subject\n/// @param _proposalIndex The index/ID of the proposal to process\n/// @dev If proposal fails need to transfer back external contributions\n\nfunction processProposal(uint256 _proposalIndex)\npublic\nmemberOnly\n{\n  // check if proposal exists\n  // check if proposal has ended\n  // [check if quorum reached ?] 50% minimum\n  // count votes and modify didPass\n  // close proposal - isProposalOpen\n  // based on isProposalOrApplication\n  //      - proposal:    distribute funds or send back contributions\n  //      - application: distribute shares\n  // return proposer ETH deposit\n\n  // Storing proposal data in var\n  Proposal storage proposal = proposalQueue[_proposalIndex.sub(1)];\n\n  // Checking that the _proposalIndex parameter is a valid proposal\n  require(_proposalIndex <= proposalCounter, \"rDAO::processProposal - proposalIndex is not valid, not existing proposal\");\n\n  // Checking if the proposal is still open\n  bool isTimeLeft = now - globalVotingPeriod > proposal.creationTimestamp;\n  require(isTimeLeft == false, \"rDAO::processProposal - proposal is still open for voting\");\n\n  // Setting vote results based on summary of casted votes\n  proposal.didPass = proposal.yesVote > proposal.noVote;\n  // Calculating total vote count\n  uint256 totalVotes = proposal.yesVote.add(proposal.noVote);\n  // Modify result to false if quorum is not reached\n  proposal.didPass = totalVotes.mul(100) > rDAO_totalShareSupply.mul(globalQuorum);\n  // Modifying result to false if majority is not reached\n  proposal.didPass = proposal.yesVote.div(totalVotes).mul(100) > globalMajority;\n\n  // Closing the proposal\n  proposal.isProposalOpen = false;\n\n  // Substracting requested share #of proposal from the current totalSharesRequested counter\n  totalSharesRequested = totalSharesRequested.sub(proposal.sharesRequested);\n\n  // Preventing execution if dilution bound is reached\n  //proposal.didPass =\n\n  if (proposal.didPass == true) {\n    // Execution logic based on proposal type [proposal vs. application]\n    // IF proposal then send funds to proposer if didPass == true\n    // IF application then add applicant to members and mint his shares\n    //\n    // Proposal\n    if (proposal.isProposalOrApplication == true) {\n      // Send out funds to proposer\n      proposal.proposer.transfer(proposal.fundingGoal);\n    }\n    // Application\n    else if (proposal.isProposalOrApplication == false) {\n      // Adding member shares\n      members[proposal.applicant].shares = proposal.sharesRequested;\n      // Emitting event of new joined member\n      emit MemberJoinedGuild(proposal.applicant, proposal.sharesRequested);\n    }\n  }\n  else if (proposal.didPass == false) {\n      // Pay back external contributors\n      /// @dev Needs implementation\n  }\n    // Return deposit to proposer\n    proposal.proposer.transfer(globalProposalDeposit);\n\n    // Paying processing reward to msg.sender\n    msg.sender.transfer(globalProcessingReward);\n\n    // Emitting event\n    emit ProcessedProposal(proposal.proposalIndex, proposal.didPass);\n}\n\n/// @notice Allows guild members to quit the guild if a voting would draw undesired outcome for them\n/// @dev not implemented yet\nfunction rageQuit() public memberOnly {}\n\n/// @notice Allows guild members to deposit funds to the guild in exchange for guild tokens\n/// @dev not implemented yet\nfunction depositFunds() public memberOnly {}\n\n/// @notice Allows guild members to withdraw funds in exchange for guild tokens\n/// @dev not implemented yet\nfunction withdrawFunds() public memberOnly {}\n\n/// @notice Allows external contributors to fund a particular proposal\n/// @dev not implemented yet\nfunction externalFundProposal() public memberOnly {}\n\n/// @notice Allows external contributors to fund the guild bank generally\n/// @dev not implemented yet\nfunction externalFundDAO() public memberOnly {}\n\n// Getter functions\n// Allow contract to receive external general contributions that goes to the guild funds\n///@notice Fallback function for the contract\nfunction() external payable {}\n\n}",
  "sourcePath": "/Users/adr/Documents/GitHub/Bootcamp_FinalProject/Consensys-Bootcamp-Final-Project-researchDAO/contracts/researchDAO.sol",
  "compiler": {
    "name": "solc",
    "version": "0.5.0+commit.1d4f565a.Emscripten.clang"
  },
  "schemaVersion": "3.0.9",
  "updatedAt": "2019-07-13T14:52:06.323Z",
  "devdoc": {
    "methods": {
      "constructor": {
        "params": {
          "_globalMajority": "The majority percentage that is requirement for Yes votes to pass",
          "_globalProcessingReward": "The number that sets the reward value when a member processes an ended proposal",
          "_globalProposalDeposit": "The number that sets the required deposit upon proposal submission",
          "_globalQuorum": "The quorum percentage required for a vote to pass",
          "_globalRagequitPeriod": "The number which sets the ragequit period in seconds",
          "_globalTokensPerDeposit": "The number of tokens minted when a member deposits Eth to the guild bank",
          "_globalVotingPeriod": "The number which sets the voting period in seconds",
          "_initialSharesRequested": "The number of the shares the summoner receives when summoning the DAO"
        }
      },
      "depositFunds()": {
        "details": "not implemented yet"
      },
      "externalFundDAO()": {
        "details": "not implemented yet"
      },
      "externalFundProposal()": {
        "details": "not implemented yet"
      },
      "processProposal(uint256)": {
        "details": "If proposal fails need to transfer back external contributions",
        "params": {
          "_proposalIndex": "The index/ID of the proposal to process"
        }
      },
      "rageQuit()": {
        "details": "not implemented yet"
      },
      "submitProposal(bool,address,string,bytes32,uint256,uint256)": {
        "params": {
          "_applicant": "The address of the applying member",
          "_documentationAddress": "Hash address for the detailed documentation of the proposal",
          "_fundingGoal": "Funds required by the proposer to realize the research proposal",
          "_isProposalOrApplication": "Acts as a switch for deciding the proposal type: proposal for research OR proposal for new member application",
          "_sharesRequested": "New shares minted for the applying member",
          "_title": "The title of the submitted proposal"
        }
      },
      "submitVote(uint256,uint8)": {
        "params": {
          "_proposalIndex": "The index/ID of the proposal to vote on",
          "_uint8vote": "The vote - 0: Null, 1: Yes, 2: No"
        }
      },
      "withdrawFunds()": {
        "details": "not implemented yet"
      }
    }
  },
  "userdoc": {
    "methods": {
      "constructor": "Constructor function for summoning the DAO",
      "depositFunds()": {
        "notice": "Allows guild members to deposit funds to the guild in exchange for guild tokens"
      },
      "externalFundDAO()": {
        "notice": "Allows external contributors to fund the guild bank generally"
      },
      "externalFundProposal()": {
        "notice": "Allows external contributors to fund a particular proposal"
      },
      "processProposal(uint256)": {
        "notice": "processProposal processes an ended proposal and executes the proposed subject"
      },
      "rageQuit()": {
        "notice": "Allows guild members to quit the guild if a voting would draw undesired outcome for them"
      },
      "submitProposal(bool,address,string,bytes32,uint256,uint256)": {
        "notice": "submitProposal function creates a new proposal submitted by an existing member"
      },
      "submitVote(uint256,uint8)": {
        "notice": "submitVote function to cast a vote on a given proposal"
      },
      "withdrawFunds()": {
        "notice": "Allows guild members to withdraw funds in exchange for guild tokens"
      }
    }
  }
}