{
  "contractName": "researchDAO",
  "abi": [
    {
      "constant": true,
      "inputs": [],
      "name": "rDAO_totalTokenSupply",
      "outputs": [
        {
          "name": "",
          "type": "uint256"
        }
      ],
      "payable": false,
      "stateMutability": "view",
      "type": "function"
    },
    {
      "constant": true,
      "inputs": [
        {
          "name": "",
          "type": "address"
        },
        {
          "name": "",
          "type": "uint256"
        }
      ],
      "name": "proposalsOfMembers",
      "outputs": [
        {
          "name": "",
          "type": "bytes"
        }
      ],
      "payable": false,
      "stateMutability": "view",
      "type": "function"
    },
    {
      "constant": true,
      "inputs": [
        {
          "name": "",
          "type": "address"
        }
      ],
      "name": "members",
      "outputs": [
        {
          "name": "shares",
          "type": "uint256"
        },
        {
          "name": "tokens",
          "type": "uint256"
        }
      ],
      "payable": false,
      "stateMutability": "view",
      "type": "function"
    },
    {
      "constant": true,
      "inputs": [],
      "name": "proposalCounter",
      "outputs": [
        {
          "name": "",
          "type": "uint256"
        }
      ],
      "payable": false,
      "stateMutability": "view",
      "type": "function"
    },
    {
      "constant": true,
      "inputs": [],
      "name": "globalProcessingReward",
      "outputs": [
        {
          "name": "",
          "type": "uint256"
        }
      ],
      "payable": false,
      "stateMutability": "view",
      "type": "function"
    },
    {
      "constant": true,
      "inputs": [
        {
          "name": "",
          "type": "uint256"
        }
      ],
      "name": "proposalQueue",
      "outputs": [
        {
          "name": "proposalIndex",
          "type": "uint256"
        },
        {
          "name": "proposer",
          "type": "address"
        },
        {
          "name": "applicant",
          "type": "address"
        },
        {
          "name": "sharesRequested",
          "type": "uint256"
        },
        {
          "name": "title",
          "type": "string"
        },
        {
          "name": "documentationAddress",
          "type": "bytes32"
        },
        {
          "name": "fundingGoal",
          "type": "uint256"
        },
        {
          "name": "isProposalOpen",
          "type": "bool"
        },
        {
          "name": "creationTimestamp",
          "type": "uint256"
        },
        {
          "name": "yesVote",
          "type": "uint256"
        },
        {
          "name": "noVote",
          "type": "uint256"
        },
        {
          "name": "didPass",
          "type": "bool"
        },
        {
          "name": "externalFundsCollected",
          "type": "uint256"
        },
        {
          "name": "isProposalOrApplication",
          "type": "bool"
        }
      ],
      "payable": false,
      "stateMutability": "view",
      "type": "function"
    },
    {
      "constant": true,
      "inputs": [],
      "name": "rDAO_totalShareSupply",
      "outputs": [
        {
          "name": "",
          "type": "uint256"
        }
      ],
      "payable": false,
      "stateMutability": "view",
      "type": "function"
    },
    {
      "constant": true,
      "inputs": [],
      "name": "guildERC20Token",
      "outputs": [
        {
          "name": "",
          "type": "address"
        }
      ],
      "payable": false,
      "stateMutability": "view",
      "type": "function"
    },
    {
      "constant": true,
      "inputs": [],
      "name": "globalTokensPerDepositedETH",
      "outputs": [
        {
          "name": "",
          "type": "uint256"
        }
      ],
      "payable": false,
      "stateMutability": "view",
      "type": "function"
    },
    {
      "constant": true,
      "inputs": [],
      "name": "globalVotingPeriod",
      "outputs": [
        {
          "name": "",
          "type": "uint256"
        }
      ],
      "payable": false,
      "stateMutability": "view",
      "type": "function"
    },
    {
      "constant": true,
      "inputs": [],
      "name": "globalRagequitPeriod",
      "outputs": [
        {
          "name": "",
          "type": "uint256"
        }
      ],
      "payable": false,
      "stateMutability": "view",
      "type": "function"
    },
    {
      "constant": true,
      "inputs": [
        {
          "name": "",
          "type": "uint256"
        }
      ],
      "name": "memberArray",
      "outputs": [
        {
          "name": "",
          "type": "address"
        },
        {
          "name": "proposer",
          "type": "address"
        },
        {
          "name": "applicant",
          "type": "address"
        },
        {
          "name": "sharesRequested",
          "type": "uint256"
        },
        {
          "name": "title",
          "type": "string"
        },
        {
          "name": "documentationAddress",
          "type": "bytes32"
        },
        {
          "name": "fundingGoal",
          "type": "uint256"
        },
        {
          "name": "isProposalOpen",
          "type": "bool"
        },
        {
          "name": "creationTimestamp",
          "type": "uint256"
        },
        {
          "name": "yesVote",
          "type": "uint256"
        },
        {
          "name": "noVote",
          "type": "uint256"
        },
        {
          "name": "didPass",
          "type": "bool"
        },
        {
          "name": "externalFundsCollected",
          "type": "uint256"
        },
        {
          "name": "isProposalOrApplication",
          "type": "bool"
        }
      ],
      "payable": false,
      "stateMutability": "view",
      "type": "function"
    },
    {
      "constant": true,
      "inputs": [
        {
          "name": "",
          "type": "uint256"
        }
      ],
      "name": "proposalsByIndex",
      "outputs": [
        {
          "name": "proposalIndex",
          "type": "uint256"
        },
        {
          "name": "proposer",
          "type": "address"
        },
        {
          "name": "applicant",
          "type": "address"
        },
        {
          "name": "sharesRequested",
          "type": "uint256"
        },
        {
          "name": "title",
          "type": "string"
        },
        {
          "name": "documentationAddress",
          "type": "bytes32"
        },
        {
          "name": "fundingGoal",
          "type": "uint256"
        },
        {
          "name": "isProposalOpen",
          "type": "bool"
        },
        {
          "name": "creationTimestamp",
          "type": "uint256"
        },
        {
          "name": "yesVote",
          "type": "uint256"
        },
        {
          "name": "noVote",
          "type": "uint256"
        },
        {
          "name": "didPass",
          "type": "bool"
        },
        {
          "name": "externalFundsCollected",
          "type": "uint256"
        },
        {
          "name": "isProposalOrApplication",
          "type": "bool"
        }
      ],
      "payable": false,
      "stateMutability": "view",
      "type": "function"
    },
    {
      "constant": true,
      "inputs": [],
      "name": "globalProposalDeposit",
      "outputs": [
        {
          "name": "",
          "type": "uint256"
        }
      ],
      "payable": false,
      "stateMutability": "view",
      "type": "function"
    },
    {
      "inputs": [
        {
          "name": "_globalVotingPeriod",
          "type": "uint256"
        },
        {
          "name": "_globalRagequitPeriod",
          "type": "uint256"
        },
        {
          "name": "_globalProposalDeposit",
          "type": "uint256"
        },
        {
          "name": "_globalProcessingReward",
          "type": "uint256"
        },
        {
          "name": "_initialSharesRequested",
          "type": "uint256"
        },
        {
          "name": "_globalTokensPerDepositedETH",
          "type": "uint256"
        }
      ],
      "payable": false,
      "stateMutability": "view",
      "type": "function",
      "constant": true,
      "name": "globalSummoningTime",
      "outputs": [
        {
          "name": "",
          "type": "uint256"
        }
      ]
    },
    {
      "payable": false,
      "stateMutability": "nonpayable",
      "type": "constructor",
      "inputs": [
        {
          "name": "_globalVotingPeriod",
          "type": "uint256"
        },
        {
          "name": "_globalRagequitPeriod",
          "type": "uint256"
        },
        {
          "name": "_globalProposalDeposit",
          "type": "uint256"
        },
        {
          "name": "_globalProcessingReward",
          "type": "uint256"
        },
        {
          "name": "_initialSharesRequested",
          "type": "uint256"
        },
        {
          "name": "_globalTokensPerDepositedETH",
          "type": "uint256"
        }
      ]
    },
    {
      "anonymous": false,
      "inputs": [
        {
          "indexed": true,
          "name": "summoner",
          "type": "address"
        },
        {
          "indexed": false,
          "name": "initialShares",
          "type": "uint256"
        }
      ],
      "name": "Summoned",
      "type": "fallback",
      "payable": true,
      "stateMutability": "payable"
    },
    {
      "anonymous": false,
      "inputs": [
        {
          "indexed": true,
          "name": "summoner",
          "type": "address"
        },
        {
          "indexed": false,
          "name": "initialShares",
          "type": "uint256"
        },
        {
          "indexed": false,
          "name": "title",
          "type": "string"
        },
        {
          "indexed": false,
          "name": "documentationAddress",
          "type": "bytes32"
        },
        {
          "indexed": false,
          "name": "isProposalOrApplication",
          "type": "bool"
        }
      ],
      "name": "Summoned",
      "type": "event"
    },
    {
      "anonymous": false,
      "inputs": [
        {
          "indexed": false,
          "name": "proposalIndex",
          "type": "uint256"
        },
        {
          "indexed": true,
          "name": "proposer",
          "type": "address"
        },
        {
          "indexed": false,
          "name": "title",
          "type": "string"
        },
        {
          "indexed": false,
          "name": "documentationAddress",
          "type": "bytes32"
        },
        {
          "indexed": false,
          "name": "isProposalOrApplication",
          "type": "bool"
        }
      ],
      "name": "SubmittedProposal",
      "type": "event"
    },
    {
      "anonymous": false,
      "inputs": [],
      "name": "SubmittedVote",
      "type": "event"
    },
    {
      "anonymous": false,
      "inputs": [],
      "name": "ProcessedProposal",
      "type": "event"
    },
    {
      "anonymous": false,
      "inputs": [],
      "name": "AbortedProposal",
      "type": "event"
    },
    {
      "anonymous": false,
      "inputs": [],
      "name": "ExternalFundGuild",
      "type": "event"
    },
    {
      "anonymous": false,
      "inputs": [],
      "name": "ExternalFundProposal",
      "type": "event"
    },
    {
      "constant": false,
      "inputs": [
        {
          "name": "_applicant",
          "type": "address"
        },
        {
          "name": "_title",
          "type": "string"
        },
        {
          "name": "_documentationAddress",
          "type": "bytes32"
        },
        {
          "name": "_fundingGoal",
          "type": "uint256"
        },
        {
          "name": "_sharesRequested",
          "type": "uint256"
        }
      ],
      "name": "RageQuit",
      "outputs": [],
      "payable": false,
      "stateMutability": "nonpayable",
      "type": "event",
      "anonymous": false
    },
    {
      "constant": false,
      "inputs": [
        {
          "name": "_applicant",
          "type": "address"
        },
        {
          "name": "_title",
          "type": "string"
        },
        {
          "name": "_documentationAddress",
          "type": "bytes32"
        },
        {
          "name": "_fundingGoal",
          "type": "uint256"
        },
        {
          "name": "_sharesRequested",
          "type": "uint256"
        }
      ],
      "name": "submitProposal",
      "outputs": [],
      "payable": false,
      "stateMutability": "nonpayable",
      "type": "function"
    }
  ],
  "bytecode": "0x60806040523480156200001157600080fd5b5060405160c080620020c7833981018060405260c08110156200003357600080fd5b8101908080519060200190929190805190602001909291908051906020019092919080519060200190929190805190602001909291908051906020019092919050505060008611151562000115576040517f08c379a00000000000000000000000000000000000000000000000000000000081526004018080602001828103825260308152602001807f7244414f3a3a636f6e7374727563746f72202d20566f74696e6720706572696f81526020017f642063616e6e6f74206265207a65726f0000000000000000000000000000000081525060400191505060405180910390fd5b670de0b6b3a76400008611151515620001bc576040517f08c379a00000000000000000000000000000000000000000000000000000000081526004018080602001828103825260368152602001807f7244414f3a3a636f6e7374727563746f72202d20566f74696e6720706572696f81526020017f64206973206f7574206f6620626f756e6461726965730000000000000000000081525060400191505060405180910390fd5b6000851115156200025b576040517f08c379a00000000000000000000000000000000000000000000000000000000081526004018080602001828103825260328152602001807f7244414f3a3a636f6e7374727563746f72202d2052616765717569742070657281526020017f696f642063616e6e6f74206265207a65726f000000000000000000000000000081525060400191505060405180910390fd5b670de0b6b3a7640000851115151562000302576040517f08c379a00000000000000000000000000000000000000000000000000000000081526004018080602001828103825260388152602001807f7244414f3a3a636f6e7374727563746f72202d2052616765717569742070657281526020017f696f64206973206f7574206f6620626f756e646172696573000000000000000081525060400191505060405180910390fd5b600084111515620003a1576040517f08c379a000000000000000000000000000000000000000000000000000000000815260040180806020018281038252603f8152602001807f7244414f3a3a636f6e7374727563746f72202d2050726f706f73616c2064657081526020017f6f7369742063616e6e6f74206265206e65676174697665206f72207a65726f0081525060400191505060405180910390fd5b670de0b6b3a7640000841115151562000448576040517f08c379a00000000000000000000000000000000000000000000000000000000081526004018080602001828103825260398152602001807f7244414f3a3a636f6e7374727563746f72202d2050726f706f73616c2064657081526020017f6f736974206973206f7574206f6620626f756e6461726965730000000000000081525060400191505060405180910390fd5b6000831115156200050d576040517f08c379a000000000000000000000000000000000000000000000000000000000815260040180806020018281038252604b8152602001807f7244414f3a3a636f6e7374727563746f72202d2050726f63657373696e67207281526020017f65776172642063616e2774206265207a65726f2e20497420736572766573206181526020017f7320696e63656e7469766500000000000000000000000000000000000000000081525060600191505060405180910390fd5b670de0b6b3a76400008311151515620005b4576040517f08c379a000000000000000000000000000000000000000000000000000000000815260040180806020018281038252603a8152602001807f7244414f3a3a636f6e7374727563746f72202d2050726f63657373696e67207281526020017f6577617264206973206f7574206f6620626f756e64617269657300000000000081525060400191505060405180910390fd5b60008211151562000653576040517f08c379a000000000000000000000000000000000000000000000000000000000815260040180806020018281038252603c8152602001807f7244414f3a3a636f6e7374727563746f72202d20496e697469616c6c7920726581526020017f717565737465642073686172652063616e2774206265207a65726f2e0000000081525060400191505060405180910390fd5b670de0b6b3a7640000821115151562000720576040517f08c379a00000000000000000000000000000000000000000000000000000000081526004018080602001828103825260428152602001807f7244414f3a3a636f6e7374727563746f72202d20496e697469616c6c7920726581526020017f71756573746564207368617265206973206f7574206f6620626f756e6461726981526020017f657300000000000000000000000000000000000000000000000000000000000081525060600191505060405180910390fd5b600081111515620007bf576040517f08c379a000000000000000000000000000000000000000000000000000000000815260040180806020018281038252603b8152602001807f7244414f3a3a636f6e7374727563746f72202d20546f6b656e7320706572204581526020017f5448206465706f73697465642063616e2774206265207a65726f2e000000000081525060400191505060405180910390fd5b670de0b6b3a764000081111515156200088c576040517f08c379a00000000000000000000000000000000000000000000000000000000081526004018080602001828103825260418152602001807f7244414f3a3a636f6e7374727563746f72202d20546f6b656e7320706572204581526020017f5448206465706f7369746564206973206f7574206f6620626f756e646172696581526020017f730000000000000000000000000000000000000000000000000000000000000081525060600191505060405180910390fd5b856000819055508460018190555083600281905550600a6003819055508060058190555060083390806001815401808255809150509060018203906000526020600020016000909192909190916101000a81548173ffffffffffffffffffffffffffffffffffffffff021916908373ffffffffffffffffffffffffffffffffffffffff1602179055505081600760003373ffffffffffffffffffffffffffffffffffffffff1673ffffffffffffffffffffffffffffffffffffffff16815260200190815260200160002060000181905550600760003373ffffffffffffffffffffffffffffffffffffffff1673ffffffffffffffffffffffffffffffffffffffff16815260200190815260200160002060000154600e81905550426004819055506000600a819055503373ffffffffffffffffffffffffffffffffffffffff167f0e8aa7f796bed52c73f9870426b0a412b431824dadecf05d1ea47c409f84425e600760003373ffffffffffffffffffffffffffffffffffffffff1673ffffffffffffffffffffffffffffffffffffffff168152602001908152602001600020600001546040518082815260200191505060405180910390a250505050505061166c8062000a5b6000396000f3fe6080604052600436106100e6576000357c0100000000000000000000000000000000000000000000000000000000900463ffffffff16806303e24766146100e857806307f733d21461011357806308ae4b0c146101e75780630c0512e9146102535780632efea6d81461027e57806334574288146102a95780633b214a74146103af57806377ff703614610522578063aa5535721461054d578063ab2c2293146105a4578063bf6a32b0146105cf578063c58b4bc0146105fa578063c726dea814610625578063ec29590b146106a0578063f1662e6d14610813578063ffa1345b1461083e575b005b3480156100f457600080fd5b506100fd610869565b6040518082815260200191505060405180910390f35b34801561011f57600080fd5b5061016c6004803603604081101561013657600080fd5b81019080803573ffffffffffffffffffffffffffffffffffffffff1690602001909291908035906020019092919050505061086f565b6040518080602001828103825283818151815260200191508051906020019080838360005b838110156101ac578082015181840152602081019050610191565b50505050905090810190601f1680156101d95780820380516001836020036101000a031916815260200191505b509250505060405180910390f35b3480156101f357600080fd5b506102366004803603602081101561020a57600080fd5b81019080803573ffffffffffffffffffffffffffffffffffffffff169060200190929190505050610937565b604051808381526020018281526020019250505060405180910390f35b34801561025f57600080fd5b5061026861095b565b6040518082815260200191505060405180910390f35b34801561028a57600080fd5b50610293610961565b6040518082815260200191505060405180910390f35b3480156102b557600080fd5b506103ad600480360360a08110156102cc57600080fd5b81019080803573ffffffffffffffffffffffffffffffffffffffff1690602001909291908035906020019064010000000081111561030957600080fd5b82018360208201111561031b57600080fd5b8035906020019184600183028401116401000000008311171561033d57600080fd5b91908080601f016020809104026020016040519081016040528093929190818152602001838380828437600081840152601f19601f820116905080830192505050505050509192919290803590602001909291908035906020019092919080359060200190929190505050610967565b005b3480156103bb57600080fd5b506103e8600480360360208110156103d257600080fd5b81019080803590602001909291905050506110ff565b604051808f81526020018e73ffffffffffffffffffffffffffffffffffffffff1673ffffffffffffffffffffffffffffffffffffffff1681526020018d73ffffffffffffffffffffffffffffffffffffffff1673ffffffffffffffffffffffffffffffffffffffff1681526020018c8152602001806020018b81526020018a815260200189151515158152602001888152602001878152602001868152602001851515151581526020018481526020018315151515815260200182810382528c818151815260200191508051906020019080838360005b838110156104da5780820151818401526020810190506104bf565b50505050905090810190601f1680156105075780820380516001836020036101000a031916815260200191505b509f5050505050505050505050505050505060405180910390f35b34801561052e57600080fd5b50610537611279565b6040518082815260200191505060405180910390f35b34801561055957600080fd5b5061056261127f565b604051808273ffffffffffffffffffffffffffffffffffffffff1673ffffffffffffffffffffffffffffffffffffffff16815260200191505060405180910390f35b3480156105b057600080fd5b506105b96112a5565b6040518082815260200191505060405180910390f35b3480156105db57600080fd5b506105e46112ab565b6040518082815260200191505060405180910390f35b34801561060657600080fd5b5061060f6112b1565b6040518082815260200191505060405180910390f35b34801561063157600080fd5b5061065e6004803603602081101561064857600080fd5b81019080803590602001909291905050506112b7565b604051808273ffffffffffffffffffffffffffffffffffffffff1673ffffffffffffffffffffffffffffffffffffffff16815260200191505060405180910390f35b3480156106ac57600080fd5b506106d9600480360360208110156106c357600080fd5b81019080803590602001909291905050506112f5565b604051808f81526020018e73ffffffffffffffffffffffffffffffffffffffff1673ffffffffffffffffffffffffffffffffffffffff1681526020018d73ffffffffffffffffffffffffffffffffffffffff1673ffffffffffffffffffffffffffffffffffffffff1681526020018c8152602001806020018b81526020018a815260200189151515158152602001888152602001878152602001868152602001851515151581526020018481526020018315151515815260200182810382528c818151815260200191508051906020019080838360005b838110156107cb5780820151818401526020810190506107b0565b50505050905090810190601f1680156107f85780820380516001836020036101000a031916815260200191505b509f5050505050505050505050505050505060405180910390f35b34801561081f57600080fd5b50610828611460565b6040518082815260200191505060405180910390f35b34801561084a57600080fd5b50610853611466565b6040518082815260200191505060405180910390f35b600d5481565b600c6020528160005260406000208181548110151561088a57fe5b90600052602060002001600091509150508054600181600116156101000203166002900480601f01602080910402602001604051908101604052809291908181526020018280546001816001161561010002031660029004801561092f5780601f106109045761010080835404028352916020019161092f565b820191906000526020600020905b81548152906001019060200180831161091257829003601f168201915b505050505081565b60076020528060005260406000206000915090508060000154908060010154905082565b600a5481565b60035481565b6000600760003373ffffffffffffffffffffffffffffffffffffffff1673ffffffffffffffffffffffffffffffffffffffff16815260200190815260200160002060000154111515610a47576040517f08c379a000000000000000000000000000000000000000000000000000000000815260040180806020018281038252602e8152602001807f7244414f3a3a6d656d6265724f6e6c79202d206e6f742061206d656d6265722081526020017f6f6620726573656172636844414f00000000000000000000000000000000000081525060400191505060405180910390fd5b6000602060ff16111515610ae9576040517f08c379a00000000000000000000000000000000000000000000000000000000081526004018080602001828103825260388152602001807f7244414f3a3a7375626d697450726f706f73616c202d2041747461636865642081526020017f646f63756d656e746174696f6e206973206d697373696e67000000000000000081525060400191505060405180910390fd5b600082111515610b87576040517f08c379a00000000000000000000000000000000000000000000000000000000081526004018080602001828103825260328152602001807f7244414f3a3a7375626d697450726f706f73616c202d2046756e64696e67206781526020017f6f616c2063616e6e6f74206265207a65726f000000000000000000000000000081525060400191505060405180910390fd5b670de0b6b3a76400008211151515610c2d576040517f08c379a00000000000000000000000000000000000000000000000000000000081526004018080602001828103825260388152602001807f7244414f3a3a7375626d697450726f706f73616c202d2046756e64696e67206781526020017f6f616c206973206f7574206f6620626f756e646172696573000000000000000081525060400191505060405180910390fd5b600081111515610ccb576040517f08c379a00000000000000000000000000000000000000000000000000000000081526004018080602001828103825260368152602001807f7244414f3a3a7375626d697450726f706f73616c202d2053686172657320726581526020017f717565737465642063616e6e6f74206265207a65726f0000000000000000000081525060400191505060405180910390fd5b670de0b6b3a76400008111151515610d71576040517f08c379a000000000000000000000000000000000000000000000000000000000815260040180806020018281038252603c8152602001807f7244414f3a3a7375626d697450726f706f73616c202d2053686172657320726581526020017f71756573746564206973206f7574206f6620626f756e6461726965730000000081525060400191505060405180910390fd5b60008073ffffffffffffffffffffffffffffffffffffffff168673ffffffffffffffffffffffffffffffffffffffff1614610dad576001610db0565b60005b90506000610dca6001600a5461146c90919063ffffffff16565b9050610de26001600a5461146c90919063ffffffff16565b50610deb6114f6565b6101c0604051908101604052808381526020013373ffffffffffffffffffffffffffffffffffffffff1681526020018973ffffffffffffffffffffffffffffffffffffffff1681526020018581526020018881526020018781526020018681526020016001151581526020014281526020016000815260200160008152602001600015158152602001600081526020018415158152509050600b819080600181540180825580915050906001820390600052602060002090600f0201600090919290919091506000820151816000015560208201518160010160006101000a81548173ffffffffffffffffffffffffffffffffffffffff021916908373ffffffffffffffffffffffffffffffffffffffff16021790555060408201518160020160006101000a81548173ffffffffffffffffffffffffffffffffffffffff021916908373ffffffffffffffffffffffffffffffffffffffff160217905550606082015181600301556080820151816004019080519060200190610f6f92919061159b565b5060a0820151816005015560c0820151816006015560e08201518160070160006101000a81548160ff021916908315150217905550610100820151816008015561012082015181600a015561014082015181600b015561016082015181600c0160006101000a81548160ff02191690831515021790555061018082015181600d01556101a082015181600e0160006101000a81548160ff0219169083151502179055505050503373ffffffffffffffffffffffffffffffffffffffff167f5112e1fd2fccbfb994e10502638ec30741ddd29d276dcee5a7eefb22aea8a543826000015183608001518460a00151856101a00151604051808581526020018060200184815260200183151515158152602001828103825285818151815260200191508051906020019080838360005b838110156110b857808201518184015260208101905061109d565b50505050905090810190601f1680156110e55780820380516001836020036101000a031916815260200191505b509550505050505060405180910390a25050505050505050565b600b8181548110151561110e57fe5b90600052602060002090600f02016000915090508060000154908060010160009054906101000a900473ffffffffffffffffffffffffffffffffffffffff16908060020160009054906101000a900473ffffffffffffffffffffffffffffffffffffffff1690806003015490806004018054600181600116156101000203166002900480601f0160208091040260200160405190810160405280929190818152602001828054600181600116156101000203166002900480156112125780601f106111e757610100808354040283529160200191611212565b820191906000526020600020905b8154815290600101906020018083116111f557829003601f168201915b5050505050908060050154908060060154908060070160009054906101000a900460ff169080600801549080600a01549080600b01549080600c0160009054906101000a900460ff169080600d01549080600e0160009054906101000a900460ff1690508e565b600e5481565b600660009054906101000a900473ffffffffffffffffffffffffffffffffffffffff1681565b60055481565b60005481565b60015481565b6008818154811015156112c657fe5b906000526020600020016000915054906101000a900473ffffffffffffffffffffffffffffffffffffffff1681565b60096020528060005260406000206000915090508060000154908060010160009054906101000a900473ffffffffffffffffffffffffffffffffffffffff16908060020160009054906101000a900473ffffffffffffffffffffffffffffffffffffffff1690806003015490806004018054600181600116156101000203166002900480601f0160208091040260200160405190810160405280929190818152602001828054600181600116156101000203166002900480156113f95780601f106113ce576101008083540402835291602001916113f9565b820191906000526020600020905b8154815290600101906020018083116113dc57829003601f168201915b5050505050908060050154908060060154908060070160009054906101000a900460ff169080600801549080600a01549080600b01549080600c0160009054906101000a900460ff169080600d01549080600e0160009054906101000a900460ff1690508e565b60025481565b60045481565b60008082840190508381101515156114ec576040517f08c379a000000000000000000000000000000000000000000000000000000000815260040180806020018281038252601b8152602001807f536166654d6174683a206164646974696f6e206f766572666c6f77000000000081525060200191505060405180910390fd5b8091505092915050565b6101c06040519081016040528060008152602001600073ffffffffffffffffffffffffffffffffffffffff168152602001600073ffffffffffffffffffffffffffffffffffffffff16815260200160008152602001606081526020016000801916815260200160008152602001600015158152602001600081526020016000815260200160008152602001600015158152602001600081526020016000151581525090565b828054600181600116156101000203166002900490600052602060002090601f016020900481019282601f106115dc57805160ff191683800117855561160a565b8280016001018555821561160a579182015b828111156116095782518255916020019190600101906115ee565b5b509050611617919061161b565b5090565b61163d91905b80821115611639576000816000905550600101611621565b5090565b9056fea165627a7a72305820b8c7b6079fdd32020441ef82e52887db3e86157231239e54973cd940f25541860029",
  "source": "// researchDAO - Collective intelligence for the research community\n// Ethereum Developer Bootcamp Final Project\n// by Adrian Lenard at 03/07/2019\n// Purpose of this contract is to enable guild like operation for\n// researchers while letting crowdfunding accelerate research funding\n\npragma solidity ^0.5.0;\n\n// Importing SafeMath library for safe operations and ERC20 for token interactions\nimport './OpenZeppelin//SafeMath.sol';\nimport './OpenZeppelin//ERC20.sol';\n\ncontract researchDAO {\n\nusing SafeMath for uint; // Enabling contract to use SafeMath library for uint type operations\n\n// Global constants for constructor\n\nuint256 public globalVotingPeriod;           // Default value is 30 days or 2.592e+6 seconds\nuint256 public globalRagequitPeriod;         // Default value is 7 days or 604800 seconds\nuint256 public globalProposalDeposit;        // Default value is 10 ETH\nuint256 public globalProcessingReward;       // Default value is 0.1 ETH to incentivize processing;paid from funds - Usage - 10 means: 1/10 ETH per processing\nuint256 public globalSummoningTime;          // The block.timestamp at contract deployment\nuint256 public globalTokensPerDepositedETH;  // The amount of tokens minted per 1 ETH deposited\n\nERC20 public guildERC20Token;         // Reference for the token used for the DAO\n\n// Security limits thanks to Moloch DAO\n// These numbers are quite arbitrary; they are small enough to avoid overflows when doing calculations\n// with periods or shares, yet big enough to not limit reasonable use cases.\n\nuint256 constant MAX_VOTING_PERIOD_LENGTH = 10**18;     // maximum length of voting period\nuint256 constant MAX_GRACE_PERIOD_LENGTH = 10**18;      // maximum length of grace period\nuint256 constant MAX_NUMBER_OF_SHARES = 10**18;         // maximum number of shares that can be minted\nuint256 constant MAX_NUMBER_OF_TOKENS = 10**18;         // maximum number of tokens that can be minted\nuint256 constant MAX_TOKEN_MULTIPLIER = 10**18;         // maximum number for token multiplier that can be used\nuint256 constant MAX_PROCESS_REWARD = 10**18;           // maximum number for processing reward that can be used\nuint256 constant MAX_INITIAL_SHARE = 10**18;            // maximum number for initial share request that can be used\nuint256 constant MAX_TOKENS_PER_DEPOSIT = 10**18;       // maximum number for token per deposit multiper that can be used\nuint256 constant MAX_FUNDING_GOAL = 10**18;             // maximum number for funding that can be used\n\n// Events\n\nevent Summoned(address indexed summoner, uint256 initialShares );\n\nevent SubmittedProposal(uint256 proposalIndex, address indexed proposer, string title, bytes32 documentationAddress, bool isProposalOrApplication);\nevent SubmittedVote();\nevent ProcessedProposal();\nevent AbortedProposal();\n\nevent ExternalFundGuild();\nevent ExternalFundProposal();\n\nevent RageQuit();\n\n\n// Guild governance - These variables are responsible for governance related values\n\n// Members\nstruct Member {\n    uint256 shares;   // rDAO voting shares - voting power\n    uint256 tokens;   // rDAO tokens - monetary power\n\n}\nmapping (address => Member) public members;   // Storing member details in a mapping\naddress[] public memberArray;                 // Member array\n\n// Votes\nenum Vote {\n    Null,   // default value\n    Yes,\n    No\n}\n// Proposal structure\nstruct Proposal {     // This struct serves as the framework for a proposal to be submitted\n\n    uint256 proposalIndex;\n    address proposer;\n\n    address applicant;\n    uint256 sharesRequested;\n\n    string  title;\n    bytes32 documentationAddress;\n\n    uint256 fundingGoal;\n    //uint256 percentForSale;\n\n    bool    isProposalOpen;\n    uint256 creationTimestamp;\n\n    mapping (address => Vote) votesByMembers;\n    uint256 yesVote;\n    uint256 noVote;\n    bool    didPass;\n\n    uint256 externalFundsCollected;\n\n    bool    isProposalOrApplication;   // This is used for switching between member application and proposal for research.\n                                       // [0 = proposal for research, 1 = new member application]\n    }\n\nmapping ( uint256 => Proposal ) public proposalsByIndex;    // Storing proposals in a mapping based on proposalIndex as an index\nuint256 public proposalCounter;                             // Storing actual highest index for proposals - incremented upon submitProposal()\nProposal[] public proposalQueue;                            // Storing proposals in an array for queuing\nmapping ( address => bytes[] ) public proposalsOfMembers;   // Storing proposals for each member in an array\n\n// Guild bank - These variables handle internal token and share allocations\n\n// Member shares and tokens are stored in the Member struct used in members mapping\nuint256 public rDAO_totalTokenSupply;                // Counting the total supply minted\nuint256 public rDAO_totalShareSupply;                // Counting the total shares issued\n\n// Modifiers\n\n// memberOnly serves as the restriction modifier for function calls\nmodifier memberOnly {\n    require(members[msg.sender].shares > 0, \"rDAO::memberOnly - not a member of researchDAO\");\n    _;\n}\n\n\n// Summoning constructor\n\n  constructor(\n  //address _guildERC20Token,       // Will be implemented later\n  uint256 _globalVotingPeriod,\n  uint256 _globalRagequitPeriod,\n  uint256 _globalProposalDeposit,\n  uint256 _globalProcessingReward,\n  uint256 _initialSharesRequested,\n  uint256 _globalTokensPerDepositedETH)\n  public\n  {\n    // Checking summoning global constant values for security limits\n    require(_globalVotingPeriod > 0,                                \"rDAO::constructor - Voting period cannot be zero\");\n    require(_globalVotingPeriod <= MAX_VOTING_PERIOD_LENGTH,        \"rDAO::constructor - Voting period is out of boundaries\");\n\n    require(_globalRagequitPeriod > 0,                              \"rDAO::constructor - Ragequit period cannot be zero\");\n    require(_globalRagequitPeriod <= MAX_VOTING_PERIOD_LENGTH,      \"rDAO::constructor - Ragequit period is out of boundaries\");\n\n    require(_globalProposalDeposit > 0,                             \"rDAO::constructor - Proposal deposit cannot be negative or zero\");\n    require(_globalProposalDeposit <= MAX_TOKEN_MULTIPLIER,         \"rDAO::constructor - Proposal deposit is out of boundaries\");\n\n    require(_globalProcessingReward > 0,                            \"rDAO::constructor - Processing reward can't be zero. It serves as incentive\");\n    require(_globalProcessingReward <= MAX_PROCESS_REWARD,          \"rDAO::constructor - Processing reward is out of boundaries\");\n\n    require(_initialSharesRequested > 0,                            \"rDAO::constructor - Initially requested share can't be zero.\");\n    require(_initialSharesRequested <= MAX_INITIAL_SHARE,           \"rDAO::constructor - Initially requested share is out of boundaries\");\n\n    require(_globalTokensPerDepositedETH > 0,                       \"rDAO::constructor - Tokens per ETH deposited can't be zero.\");\n    require(_globalTokensPerDepositedETH <= MAX_TOKENS_PER_DEPOSIT, \"rDAO::constructor - Tokens per ETH deposited is out of boundaries\");\n\n    // Setting global constansts based on constructor parameters\n    globalVotingPeriod = _globalVotingPeriod;\n    globalRagequitPeriod = _globalRagequitPeriod;\n    globalProposalDeposit = _globalProposalDeposit;\n    globalProcessingReward = 10; // _globalProcessingReward.div(100);\n    globalTokensPerDepositedETH = _globalTokensPerDepositedETH;\n\n    // Storing summoner as a member\n    memberArray.push(msg.sender);\n\n    // Setting up initial founding member and storing his shares in members mapping\n    members[msg.sender].shares = _initialSharesRequested;\n\n    // Initializing share supply according to summon parameters\n    rDAO_totalShareSupply = members[msg.sender].shares;\n\n    // Storing the timestamp of the summoning (now is alias for block.timestamp)\n    globalSummoningTime = now;\n\n    // Counter initialization\n    proposalCounter = 0;\n\n    // Emitting the corresponding event with the summoners address and the allocated share number\n    emit Summoned(msg.sender, members[msg.sender].shares);\n\n  }\n\n// Functions\n// ---------\n// submitProposal()           when a member proposes something either for research of new membership\n// submitVote()               when a member casts a vote on a given proposal from within the DAO\n// processProposal()          when a member finalizes a proposal by closing it and executing it based on the results\n// rageQuit()                 when a member ragequits and collects his funds based on rDAO token amount\n// externalFundProposal()     when an external contributor funds a specific proposal\n// externalFundDAO()          when an external contributor funds the DAO generally to let internal members decide over the fund\n\n\nfunction submitProposal(\naddress _applicant,\nstring memory _title,\nbytes32 _documentationAddress,\nuint256 _fundingGoal,\n//uint256 _percentForSale,\nuint256 _sharesRequested)\npublic\nmemberOnly\n{\n\n  require(_documentationAddress.length > 0,           \"rDAO::submitProposal - Attached documentation is missing\");\n  require(_fundingGoal > 0,                           \"rDAO::submitProposal - Funding goal cannot be zero\");\n  require(_fundingGoal <= MAX_FUNDING_GOAL,           \"rDAO::submitProposal - Funding goal is out of boundaries\");\n  //require(_percentForSale = 0,                        \"rDAO::submitProposal - Percent for sale must be zero until implemented properly\");\n  require(_sharesRequested > 0,                       \"rDAO::submitProposal - Shares requested cannot be zero\");\n  require(_sharesRequested <= MAX_NUMBER_OF_SHARES,   \"rDAO::submitProposal - Shares requested is out of boundaries\");\n\n\n  // Reading proposal type based and storing in bool variable\n  bool _isProposalOrApplication = _applicant == address(0) ? false : true;\n\n  // Copying current #for proposals and incrementing counter\n  uint256 _proposalIndex = proposalCounter.add(1);\n  proposalCounter.add(1);\n\n\n  // Creating proposal with fn parameters\n  Proposal memory proposal = Proposal({\n    proposalIndex: _proposalIndex,\n    proposer: msg.sender,\n    applicant: _applicant,\n    sharesRequested: _sharesRequested,\n    title: _title,\n    documentationAddress: _documentationAddress,\n    fundingGoal: _fundingGoal,\n    //percentForSale: _percentForSale,\n    isProposalOpen: true,\n    creationTimestamp: now,\n    yesVote: 0,\n    noVote: 0,\n    didPass: false,\n    externalFundsCollected: 0,\n    isProposalOrApplication: _isProposalOrApplication\n  });\n\n  // Adding the created proposal to the proposal queue\n  proposalQueue.push(proposal);\n\n  // Emitting related event\n  emit SubmittedProposal(proposal.proposalIndex, msg.sender, proposal.title, proposal.documentationAddress, proposal.isProposalOrApplication);\n\n}\n\n\n\n\n// Getter functions\n\n/**\n* @dev allow contract to receive funds\n*/\nfunction() external payable {}\n\n}",
  "sourcePath": "/Users/adr/Documents/GitHub/Bootcamp_FinalProject/Consensys-Bootcamp-Final-Project-researchDAO/contracts/researchDAO.sol",
  "compiler": {
    "name": "solc",
    "version": "0.5.0+commit.1d4f565a.Emscripten.clang"
  },
  "schemaVersion": "3.0.9",
  "updatedAt": "2019-07-06T19:50:52.326Z",
  "devdoc": {
    "methods": {}
  },
  "userdoc": {
    "methods": {}
  }
}