{
  "contractName": "researchDAO",
  "abi": [
    {
      "constant": true,
      "inputs": [
        {
          "name": "",
          "type": "address"
        },
        {
          "name": "",
          "type": "uint256"
        }
      ],
      "name": "proposalsOfMembers",
      "outputs": [
        {
          "name": "",
          "type": "uint256"
        }
      ],
      "payable": false,
      "stateMutability": "view",
      "type": "function"
    },
    {
      "constant": true,
      "inputs": [
        {
          "name": "",
          "type": "address"
        }
      ],
      "name": "members",
      "outputs": [
        {
          "name": "shares",
          "type": "uint256"
        },
        {
          "name": "contribution",
          "type": "uint256"
        },
        {
          "name": "exists",
          "type": "bool"
        }
      ],
      "payable": false,
      "stateMutability": "view",
      "type": "function"
    },
    {
      "constant": true,
      "inputs": [],
      "name": "proposalCounter",
      "outputs": [
        {
          "name": "",
          "type": "uint256"
        }
      ],
      "payable": false,
      "stateMutability": "view",
      "type": "function"
    },
    {
      "constant": true,
      "inputs": [],
      "name": "totalSharesRequested",
      "outputs": [
        {
          "name": "",
          "type": "uint256"
        }
      ],
      "payable": false,
      "stateMutability": "view",
      "type": "function"
    },
    {
      "constant": true,
      "inputs": [],
      "name": "globalProcessingReward",
      "outputs": [
        {
          "name": "",
          "type": "uint256"
        }
      ],
      "payable": false,
      "stateMutability": "view",
      "type": "function"
    },
    {
      "constant": true,
      "inputs": [
        {
          "name": "",
          "type": "uint256"
        }
      ],
      "name": "proposalQueue",
      "outputs": [
        {
          "name": "proposalIndex",
          "type": "uint256"
        },
        {
          "name": "proposer",
          "type": "address"
        },
        {
          "name": "applicant",
          "type": "address"
        },
        {
          "name": "sharesRequested",
          "type": "uint256"
        },
        {
          "name": "title",
          "type": "string"
        },
        {
          "name": "documentationAddress",
          "type": "bytes32"
        },
        {
          "name": "fundingGoal",
          "type": "uint256"
        },
        {
          "name": "isProposalOpen",
          "type": "bool"
        },
        {
          "name": "creationTimestamp",
          "type": "uint256"
        },
        {
          "name": "yesVote",
          "type": "uint256"
        },
        {
          "name": "noVote",
          "type": "uint256"
        },
        {
          "name": "didPass",
          "type": "bool"
        },
        {
          "name": "externalFundsCollected",
          "type": "uint256"
        },
        {
          "name": "isProposalOrApplication",
          "type": "bool"
        }
      ],
      "payable": false,
      "stateMutability": "view",
      "type": "function"
    },
    {
      "constant": true,
      "inputs": [],
      "name": "rDAO_totalShareSupply",
      "outputs": [
        {
          "name": "",
          "type": "uint256"
        }
      ],
      "payable": false,
      "stateMutability": "view",
      "type": "function"
    },
    {
      "constant": true,
      "inputs": [],
      "name": "globalDilutionBound",
      "outputs": [
        {
          "name": "",
          "type": "uint8"
        }
      ],
      "payable": false,
      "stateMutability": "view",
      "type": "function"
    },
    {
      "constant": true,
      "inputs": [],
      "name": "globalQuorum",
      "outputs": [
        {
          "name": "",
          "type": "uint8"
        }
      ],
      "payable": false,
      "stateMutability": "view",
      "type": "function"
    },
    {
      "constant": true,
      "inputs": [],
      "name": "globalVotingPeriod",
      "outputs": [
        {
          "name": "",
          "type": "uint256"
        }
      ],
      "payable": false,
      "stateMutability": "view",
      "type": "function"
    },
    {
      "constant": true,
      "inputs": [],
      "name": "globalRagequitPeriod",
      "outputs": [
        {
          "name": "",
          "type": "uint256"
        }
      ],
      "payable": false,
      "stateMutability": "view",
      "type": "function"
    },
    {
      "constant": true,
      "inputs": [
        {
          "name": "",
          "type": "uint256"
        }
      ],
      "name": "memberArray",
      "outputs": [
        {
          "name": "",
          "type": "address"
        }
      ],
      "payable": false,
      "stateMutability": "view",
      "type": "function"
    },
    {
      "constant": true,
      "inputs": [],
      "name": "globalMajority",
      "outputs": [
        {
          "name": "",
          "type": "uint8"
        }
      ],
      "payable": false,
      "stateMutability": "view",
      "type": "function"
    },
    {
      "constant": true,
      "inputs": [
        {
          "name": "",
          "type": "uint256"
        }
      ],
      "name": "maxTotalSharesAtYesVote",
      "outputs": [
        {
          "name": "",
          "type": "uint256"
        }
      ],
      "payable": false,
      "stateMutability": "view",
      "type": "function"
    },
    {
      "constant": true,
      "inputs": [],
      "name": "globalSummonerAddress",
      "outputs": [
        {
          "name": "",
          "type": "address"
        }
      ],
      "payable": false,
      "stateMutability": "view",
      "type": "function"
    },
    {
      "constant": true,
      "inputs": [],
      "name": "globalProposalDeposit",
      "outputs": [
        {
          "name": "",
          "type": "uint256"
        }
      ],
      "payable": false,
      "stateMutability": "view",
      "type": "function"
    },
    {
      "constant": true,
      "inputs": [],
      "name": "globalSummoningTime",
      "outputs": [
        {
          "name": "",
          "type": "uint256"
        }
      ],
      "payable": false,
      "stateMutability": "view",
      "type": "function"
    },
    {
      "inputs": [
        {
          "name": "_globalVotingPeriod",
          "type": "uint256"
        },
        {
          "name": "_globalRagequitPeriod",
          "type": "uint256"
        },
        {
          "name": "_globalProposalDeposit",
          "type": "uint256"
        },
        {
          "name": "_globalProcessingReward",
          "type": "uint256"
        },
        {
          "name": "_initialSharesRequested",
          "type": "uint256"
        },
        {
          "name": "_globalQuorum",
          "type": "uint8"
        },
        {
          "name": "_globalMajority",
          "type": "uint8"
        },
        {
          "name": "_globalDilutionBound",
          "type": "uint8"
        }
      ],
      "payable": false,
      "stateMutability": "nonpayable",
      "type": "constructor"
    },
    {
      "payable": true,
      "stateMutability": "payable",
      "type": "fallback"
    },
    {
      "anonymous": false,
      "inputs": [
        {
          "indexed": false,
          "name": "summoner",
          "type": "address"
        },
        {
          "indexed": false,
          "name": "initialShares",
          "type": "uint256"
        }
      ],
      "name": "Summoned",
      "type": "event"
    },
    {
      "anonymous": false,
      "inputs": [
        {
          "indexed": false,
          "name": "proposalIndex",
          "type": "uint256"
        },
        {
          "indexed": false,
          "name": "proposer",
          "type": "address"
        },
        {
          "indexed": false,
          "name": "title",
          "type": "string"
        },
        {
          "indexed": false,
          "name": "documentationAddress",
          "type": "bytes32"
        },
        {
          "indexed": false,
          "name": "isProposalOrApplication",
          "type": "bool"
        }
      ],
      "name": "SubmittedProposal",
      "type": "event"
    },
    {
      "anonymous": false,
      "inputs": [
        {
          "indexed": false,
          "name": "proposalIndex",
          "type": "uint256"
        },
        {
          "indexed": false,
          "name": "confirmation",
          "type": "bool"
        }
      ],
      "name": "ConfirmedApplication",
      "type": "event"
    },
    {
      "anonymous": false,
      "inputs": [
        {
          "indexed": false,
          "name": "proposalIndex",
          "type": "uint256"
        },
        {
          "indexed": false,
          "name": "voter",
          "type": "address"
        },
        {
          "indexed": false,
          "name": "vote",
          "type": "uint8"
        }
      ],
      "name": "SubmittedVote",
      "type": "event"
    },
    {
      "anonymous": false,
      "inputs": [
        {
          "indexed": false,
          "name": "proposalIndex",
          "type": "uint256"
        },
        {
          "indexed": false,
          "name": "didPass",
          "type": "bool"
        }
      ],
      "name": "ProcessedProposal",
      "type": "event"
    },
    {
      "anonymous": false,
      "inputs": [
        {
          "indexed": false,
          "name": "applicant",
          "type": "address"
        },
        {
          "indexed": false,
          "name": "sharesMinted",
          "type": "uint256"
        }
      ],
      "name": "MemberJoinedGuild",
      "type": "event"
    },
    {
      "anonymous": false,
      "inputs": [
        {
          "indexed": false,
          "name": "applicant",
          "type": "address"
        },
        {
          "indexed": false,
          "name": "sharesRequested",
          "type": "uint256"
        }
      ],
      "name": "MemberReceivedNewShares",
      "type": "event"
    },
    {
      "anonymous": false,
      "inputs": [
        {
          "indexed": false,
          "name": "applicant",
          "type": "address"
        },
        {
          "indexed": false,
          "name": "noVotes",
          "type": "uint256"
        },
        {
          "indexed": false,
          "name": "yesVotes",
          "type": "uint256"
        },
        {
          "indexed": false,
          "name": "totalVotes",
          "type": "uint256"
        }
      ],
      "name": "MemberApplicationFailed",
      "type": "event"
    },
    {
      "anonymous": false,
      "inputs": [],
      "name": "ExternalFundGuild",
      "type": "event"
    },
    {
      "anonymous": false,
      "inputs": [],
      "name": "ExternalFundProposal",
      "type": "event"
    },
    {
      "anonymous": false,
      "inputs": [],
      "name": "RageQuit",
      "type": "event"
    },
    {
      "constant": false,
      "inputs": [],
      "name": "toggleContractFreeze",
      "outputs": [],
      "payable": false,
      "stateMutability": "nonpayable",
      "type": "function"
    },
    {
      "constant": false,
      "inputs": [
        {
          "name": "_isProposalOrApplication",
          "type": "bool"
        },
        {
          "name": "_applicant",
          "type": "address"
        },
        {
          "name": "_title",
          "type": "string"
        },
        {
          "name": "_documentationAddress",
          "type": "bytes32"
        },
        {
          "name": "_fundingGoal",
          "type": "uint256"
        },
        {
          "name": "_sharesRequested",
          "type": "uint256"
        }
      ],
      "name": "submitProposal",
      "outputs": [],
      "payable": true,
      "stateMutability": "payable",
      "type": "function"
    },
    {
      "constant": false,
      "inputs": [
        {
          "name": "_proposalIndex",
          "type": "uint256"
        },
        {
          "name": "confirmation",
          "type": "bool"
        }
      ],
      "name": "confirmApplication",
      "outputs": [],
      "payable": true,
      "stateMutability": "payable",
      "type": "function"
    },
    {
      "constant": false,
      "inputs": [
        {
          "name": "_proposalIndex",
          "type": "uint256"
        },
        {
          "name": "_uint8vote",
          "type": "uint8"
        }
      ],
      "name": "submitVote",
      "outputs": [],
      "payable": false,
      "stateMutability": "nonpayable",
      "type": "function"
    },
    {
      "constant": false,
      "inputs": [
        {
          "name": "_proposalIndex",
          "type": "uint256"
        }
      ],
      "name": "processProposal",
      "outputs": [],
      "payable": false,
      "stateMutability": "nonpayable",
      "type": "function"
    },
    {
      "constant": false,
      "inputs": [],
      "name": "rageQuit",
      "outputs": [],
      "payable": false,
      "stateMutability": "nonpayable",
      "type": "function"
    },
    {
      "constant": false,
      "inputs": [
        {
          "name": "_proposalIndex",
          "type": "uint256"
        }
      ],
      "name": "externalFundProposal",
      "outputs": [],
      "payable": false,
      "stateMutability": "nonpayable",
      "type": "function"
    },
    {
      "constant": false,
      "inputs": [],
      "name": "externalFundDAO",
      "outputs": [],
      "payable": false,
      "stateMutability": "nonpayable",
      "type": "function"
    },
    {
      "constant": true,
      "inputs": [],
      "name": "getMembers",
      "outputs": [
        {
          "name": "",
          "type": "address[]"
        }
      ],
      "payable": false,
      "stateMutability": "view",
      "type": "function"
    },
    {
      "constant": false,
      "inputs": [],
      "name": "shutDownDAO",
      "outputs": [],
      "payable": false,
      "stateMutability": "nonpayable",
      "type": "function"
    }
  ],
  "bytecode": "0x60806040526000600e60006101000a81548160ff0219169083151502179055503480156200002c57600080fd5b506040516101008062004af683398101806040526101008110156200005057600080fd5b81019080805190602001909291908051906020019092919080519060200190929190805190602001909291908051906020019092919080519060200190929190805190602001909291908051906020019092919050505060008811151562000146576040517f08c379a00000000000000000000000000000000000000000000000000000000081526004018080602001828103825260308152602001807f7244414f3a3a636f6e7374727563746f72202d20566f74696e6720706572696f81526020017f642063616e6e6f74206265207a65726f0000000000000000000000000000000081525060400191505060405180910390fd5b670de0b6b3a76400008811151515620001ed576040517f08c379a00000000000000000000000000000000000000000000000000000000081526004018080602001828103825260368152602001807f7244414f3a3a636f6e7374727563746f72202d20566f74696e6720706572696f81526020017f64206973206f7574206f6620626f756e6461726965730000000000000000000081525060400191505060405180910390fd5b6000871115156200028c576040517f08c379a00000000000000000000000000000000000000000000000000000000081526004018080602001828103825260328152602001807f7244414f3a3a636f6e7374727563746f72202d2052616765717569742070657281526020017f696f642063616e6e6f74206265207a65726f000000000000000000000000000081525060400191505060405180910390fd5b670de0b6b3a7640000871115151562000333576040517f08c379a00000000000000000000000000000000000000000000000000000000081526004018080602001828103825260388152602001807f7244414f3a3a636f6e7374727563746f72202d2052616765717569742070657281526020017f696f64206973206f7574206f6620626f756e646172696573000000000000000081525060400191505060405180910390fd5b600086111515620003d2576040517f08c379a000000000000000000000000000000000000000000000000000000000815260040180806020018281038252603f8152602001807f7244414f3a3a636f6e7374727563746f72202d2050726f706f73616c2064657081526020017f6f7369742063616e6e6f74206265206e65676174697665206f72207a65726f0081525060400191505060405180910390fd5b670de0b6b3a7640000861115151562000479576040517f08c379a00000000000000000000000000000000000000000000000000000000081526004018080602001828103825260398152602001807f7244414f3a3a636f6e7374727563746f72202d2050726f706f73616c2064657081526020017f6f736974206973206f7574206f6620626f756e6461726965730000000000000081525060400191505060405180910390fd5b6000851115156200053e576040517f08c379a000000000000000000000000000000000000000000000000000000000815260040180806020018281038252604b8152602001807f7244414f3a3a636f6e7374727563746f72202d2050726f63657373696e67207281526020017f65776172642063616e2774206265207a65726f2e20497420736572766573206181526020017f7320696e63656e7469766500000000000000000000000000000000000000000081525060600191505060405180910390fd5b670de0b6b3a76400008511151515620005e5576040517f08c379a000000000000000000000000000000000000000000000000000000000815260040180806020018281038252603a8152602001807f7244414f3a3a636f6e7374727563746f72202d2050726f63657373696e67207281526020017f6577617264206973206f7574206f6620626f756e64617269657300000000000081525060400191505060405180910390fd5b60008411151562000684576040517f08c379a000000000000000000000000000000000000000000000000000000000815260040180806020018281038252603c8152602001807f7244414f3a3a636f6e7374727563746f72202d20496e697469616c6c7920726581526020017f717565737465642073686172652063616e2774206265207a65726f2e0000000081525060400191505060405180910390fd5b670de0b6b3a7640000841115151562000751576040517f08c379a00000000000000000000000000000000000000000000000000000000081526004018080602001828103825260428152602001807f7244414f3a3a636f6e7374727563746f72202d20496e697469616c6c7920726581526020017f71756573746564207368617265206973206f7574206f6620626f756e6461726981526020017f657300000000000000000000000000000000000000000000000000000000000081525060600191505060405180910390fd5b60008360ff16111515620007f3576040517f08c379a00000000000000000000000000000000000000000000000000000000081526004018080602001828103825260298152602001807f7244414f3a3a636f6e7374727563746f72202d2051756f72756d2063616e277481526020017f206265207a65726f2e000000000000000000000000000000000000000000000081525060400191505060405180910390fd5b606460ff168360ff161115151562000899576040517f08c379a000000000000000000000000000000000000000000000000000000000815260040180806020018281038252602f8152602001807f7244414f3a3a636f6e7374727563746f72202d2051756f72756d206973206f7581526020017f74206f6620626f756e646172696573000000000000000000000000000000000081525060400191505060405180910390fd5b60008260ff161115156200093b576040517f08c379a000000000000000000000000000000000000000000000000000000000815260040180806020018281038252602b8152602001807f7244414f3a3a636f6e7374727563746f72202d204d616a6f726974792063616e81526020017f2774206265207a65726f2e00000000000000000000000000000000000000000081525060400191505060405180910390fd5b606460ff168260ff1611151515620009e1576040517f08c379a00000000000000000000000000000000000000000000000000000000081526004018080602001828103825260318152602001807f7244414f3a3a636f6e7374727563746f72202d204d616a6f726974792069732081526020017f6f7574206f6620626f756e64617269657300000000000000000000000000000081525060400191505060405180910390fd5b60008160ff1611151562000a83576040517f08c379a00000000000000000000000000000000000000000000000000000000081526004018080602001828103825260318152602001807f7244414f3a3a636f6e7374727563746f72202d2044696c7574696f6e20626f7581526020017f6e642063616e2774206265207a65726f2e00000000000000000000000000000081525060400191505060405180910390fd5b606460ff168160ff161115151562000b29576040517f08c379a00000000000000000000000000000000000000000000000000000000081526004018080602001828103825260378152602001807f7244414f3a3a636f6e7374727563746f72202d2044696c7574696f6e20626f7581526020017f6e64206973206f7574206f6620626f756e64617269657300000000000000000081525060400191505060405180910390fd5b876000819055508660018190555062000b62670de0b6b3a76400008762000deb640100000000026200390c179091906401000000009004565b60028190555062000b93670de0b6b3a76400008662000deb640100000000026200390c179091906401000000009004565b60038190555082600560146101000a81548160ff021916908360ff16021790555081600560156101000a81548160ff021916908360ff16021790555080600560166101000a81548160ff021916908360ff16021790555033600560006101000a81548173ffffffffffffffffffffffffffffffffffffffff021916908373ffffffffffffffffffffffffffffffffffffffff16021790555060073390806001815401808255809150509060018203906000526020600020016000909192909190916101000a81548173ffffffffffffffffffffffffffffffffffffffff021916908373ffffffffffffffffffffffffffffffffffffffff1602179055505083600660003373ffffffffffffffffffffffffffffffffffffffff1673ffffffffffffffffffffffffffffffffffffffff16815260200190815260200160002060000181905550600660003373ffffffffffffffffffffffffffffffffffffffff1673ffffffffffffffffffffffffffffffffffffffff16815260200190815260200160002060000154600c819055504260048190555060006008819055507f0e8aa7f796bed52c73f9870426b0a412b431824dadecf05d1ea47c409f84425e33600660003373ffffffffffffffffffffffffffffffffffffffff1673ffffffffffffffffffffffffffffffffffffffff16815260200190815260200160002060000154604051808373ffffffffffffffffffffffffffffffffffffffff1673ffffffffffffffffffffffffffffffffffffffff1681526020018281526020019250505060405180910390a1505050505050505062000ebc565b60008083141562000e00576000905062000eb6565b6000828402905082848281151562000e1457fe5b0414151562000eb1576040517f08c379a00000000000000000000000000000000000000000000000000000000081526004018080602001828103825260218152602001807f536166654d6174683a206d756c7469706c69636174696f6e206f766572666c6f81526020017f770000000000000000000000000000000000000000000000000000000000000081525060400191505060405180910390fd5b809150505b92915050565b613c2a8062000ecc6000396000f3fe60806040526004361061015f576000357c0100000000000000000000000000000000000000000000000000000000900463ffffffff16806307f733d21461016157806308ae4b0c146101d05780630a751225146102475780630c0512e91461025e5780631a396a4a146102895780632efea6d8146102b457806334be9ffb146102df5780633b214a741461031957806351e6ba1d1461048c5780636a5e4628146104a357806377ff7036146104ba578063889229df146104e55780638b594efc1461051657806399653fbe146105475780639eab52531461058f578063b0ccbf8c146105fb578063bcb2f8c614610612578063bf6a32b01461064d578063c58b4bc014610678578063c726dea8146106a3578063d055cde41461071e578063d3f4e5141461074f578063d7ac30b414610854578063e143d199146108a3578063e63bc62d146108fa578063f1662e6d14610935578063ffa1345b14610960575b005b34801561016d57600080fd5b506101ba6004803603604081101561018457600080fd5b81019080803573ffffffffffffffffffffffffffffffffffffffff1690602001909291908035906020019092919050505061098b565b6040518082815260200191505060405180910390f35b3480156101dc57600080fd5b5061021f600480360360208110156101f357600080fd5b81019080803573ffffffffffffffffffffffffffffffffffffffff1690602001909291905050506109bb565b6040518084815260200183815260200182151515158152602001935050505060405180910390f35b34801561025357600080fd5b5061025c6109f2565b005b34801561026a57600080fd5b50610273610b30565b6040518082815260200191505060405180910390f35b34801561029557600080fd5b5061029e610b36565b6040518082815260200191505060405180910390f35b3480156102c057600080fd5b506102c9610b3c565b6040518082815260200191505060405180910390f35b610317600480360360408110156102f557600080fd5b8101908080359060200190929190803515159060200190929190505050610b42565b005b34801561032557600080fd5b506103526004803603602081101561033c57600080fd5b81019080803590602001909291905050506112f2565b604051808f81526020018e73ffffffffffffffffffffffffffffffffffffffff1673ffffffffffffffffffffffffffffffffffffffff1681526020018d73ffffffffffffffffffffffffffffffffffffffff1673ffffffffffffffffffffffffffffffffffffffff1681526020018c8152602001806020018b81526020018a815260200189151515158152602001888152602001878152602001868152602001851515151581526020018481526020018315151515815260200182810382528c818151815260200191508051906020019080838360005b83811015610444578082015181840152602081019050610429565b50505050905090810190601f1680156104715780820380516001836020036101000a031916815260200191505b509f5050505050505050505050505050505060405180910390f35b34801561049857600080fd5b506104a161146c565b005b3480156104af57600080fd5b506104b8611583565b005b3480156104c657600080fd5b506104cf611585565b6040518082815260200191505060405180910390f35b3480156104f157600080fd5b506104fa61158b565b604051808260ff1660ff16815260200191505060405180910390f35b34801561052257600080fd5b5061052b61159e565b604051808260ff1660ff16815260200191505060405180910390f35b34801561055357600080fd5b5061058d6004803603604081101561056a57600080fd5b8101908080359060200190929190803560ff1690602001909291905050506115b1565b005b34801561059b57600080fd5b506105a4611df2565b6040518080602001828103825283818151815260200191508051906020019060200280838360005b838110156105e75780820151818401526020810190506105cc565b505050509050019250505060405180910390f35b34801561060757600080fd5b50610610611e80565b005b34801561061e57600080fd5b5061064b6004803603602081101561063557600080fd5b8101908080359060200190929190505050611f62565b005b34801561065957600080fd5b506106626121d5565b6040518082815260200191505060405180910390f35b34801561068457600080fd5b5061068d6121db565b6040518082815260200191505060405180910390f35b3480156106af57600080fd5b506106dc600480360360208110156106c657600080fd5b81019080803590602001909291905050506121e1565b604051808273ffffffffffffffffffffffffffffffffffffffff1673ffffffffffffffffffffffffffffffffffffffff16815260200191505060405180910390f35b34801561072a57600080fd5b5061073361221f565b604051808260ff1660ff16815260200191505060405180910390f35b610852600480360360c081101561076557600080fd5b81019080803515159060200190929190803573ffffffffffffffffffffffffffffffffffffffff169060200190929190803590602001906401000000008111156107ae57600080fd5b8201836020820111156107c057600080fd5b803590602001918460018302840111640100000000831117156107e257600080fd5b91908080601f016020809104026020016040519081016040528093929190818152602001838380828437600081840152601f19601f820116905080830192505050505050509192919290803590602001909291908035906020019092919080359060200190929190505050612232565b005b34801561086057600080fd5b5061088d6004803603602081101561087757600080fd5b8101908080359060200190929190505050612b73565b6040518082815260200191505060405180910390f35b3480156108af57600080fd5b506108b8612b8b565b604051808273ffffffffffffffffffffffffffffffffffffffff1673ffffffffffffffffffffffffffffffffffffffff16815260200191505060405180910390f35b34801561090657600080fd5b506109336004803603602081101561091d57600080fd5b8101908080359060200190929190505050612bb1565b005b34801561094157600080fd5b5061094a6137eb565b6040518082815260200191505060405180910390f35b34801561096c57600080fd5b506109756137f1565b6040518082815260200191505060405180910390f35b600a602052816000526040600020818154811015156109a657fe5b90600052602060002001600091509150505481565b60066020528060005260406000206000915090508060000154908060010154908060020160009054906101000a900460ff16905083565b600e60009054906101000a900460ff161515610b2e57600560009054906101000a900473ffffffffffffffffffffffffffffffffffffffff1673ffffffffffffffffffffffffffffffffffffffff163373ffffffffffffffffffffffffffffffffffffffff16141515610af3576040517f08c379a000000000000000000000000000000000000000000000000000000000815260040180806020018281038252603d8152602001807f7244414f3a3a697353756d6d6f6e657220286d6f64696669657229202d206e6f81526020017f74207468652073756d6d6f6e6572206f6620726573656172636844414f00000081525060400191505060405180910390fd5b600560009054906101000a900473ffffffffffffffffffffffffffffffffffffffff1673ffffffffffffffffffffffffffffffffffffffff16ff5b565b60085481565b600d5481565b60035481565b81600081111515610c07576040517f08c379a000000000000000000000000000000000000000000000000000000000815260040180806020018281038252604d8152602001807f7244414f3a3a697356616c696450726f706f73616c496e64657820286d6f646981526020017f6669657229202d20696e70757420706172616d65746572206d7573742062652081526020017f686967686572207468616e20300000000000000000000000000000000000000081525060600191505060405180910390fd5b6008548111151515610ccd576040517f08c379a00000000000000000000000000000000000000000000000000000000081526004018080602001828103825260598152602001807f7244414f3a3a697356616c696450726f706f73616c496e64657820286d6f646981526020017f6669657229202d2070726f706f73616c496e646578206973206e6f742076616c81526020017f69642c206e6f74206578697374696e672070726f706f73616c0000000000000081525060600191505060405180910390fd5b600083111515610d91576040517f08c379a00000000000000000000000000000000000000000000000000000000081526004018080602001828103825260508152602001807f7244414f3a3a636f6e6669726d4170706c69636174696f6e202d20205f70726f81526020017f706f73616c496e64657820696e70757420706172616d65746572206d7573742081526020017f626520686967686572207468616e20300000000000000000000000000000000081525060600191505060405180910390fd5b60006009610da96001866137f790919063ffffffff16565b815481101515610db557fe5b90600052602060002090600f020190506000151581600e0160009054906101000a900460ff161515141515610e78576040517f08c379a00000000000000000000000000000000000000000000000000000000081526004018080602001828103825260398152602001807f7244414f3a3a636f6e6669726d4170706c69636174696f6e202d2050726f706f81526020017f73616c206973206e6f7420616e206170706c69636174696f6e0000000000000081525060400191505060405180910390fd5b8060020160009054906101000a900473ffffffffffffffffffffffffffffffffffffffff1673ffffffffffffffffffffffffffffffffffffffff163373ffffffffffffffffffffffffffffffffffffffff16141515610f8b576040517f08c379a00000000000000000000000000000000000000000000000000000000081526004018080602001828103825260468152602001807f7244414f3a3a636f6e6669726d4170706c69636174696f6e202d2043616e206f81526020017f6e6c792062652063616c6c65642066726f6d206170706c6963616e742773206181526020017f646472657373000000000000000000000000000000000000000000000000000081525060600191505060405180910390fd5b600015158160070160009054906101000a900460ff16151514151561103e576040517f08c379a000000000000000000000000000000000000000000000000000000000815260040180806020018281038252603e8152602001807f7244414f3a3a636f6e6669726d4170706c69636174696f6e202d2050726f706f81526020017f73616c20686173206265656e20616c726561647920636f6e6669726d6564000081525060400191505060405180910390fd5b6000816008015461105a600054426137f790919063ffffffff16565b10905060011515811515141515611125576040517f08c379a00000000000000000000000000000000000000000000000000000000081526004018080602001828103825260528152602001807f7244414f3a3a636f6e6669726d4170706c69636174696f6e202d2070726f706f81526020017f73616c20706572696f6420656e6465642c206e6f206c6f6e676572206163636581526020017f70747320636f6e6669726d6174696f6e732e000000000000000000000000000081525060600191505060405180910390fd5b6001151584151514156111dd57838260070160006101000a81548160ff02191690831515021790555034600660003373ffffffffffffffffffffffffffffffffffffffff1673ffffffffffffffffffffffffffffffffffffffff168152602001908152602001600020600101819055507fbb8f1823466b39979f6e956d33e4625dcc915656daf9de09055bfd48ad3e5f88858560405180838152602001821515151581526020019250505060405180910390a16112eb565b60096111f36001876137f790919063ffffffff16565b8154811015156111ff57fe5b90600052602060002090600f02016000808201600090556001820160006101000a81549073ffffffffffffffffffffffffffffffffffffffff02191690556002820160006101000a81549073ffffffffffffffffffffffffffffffffffffffff0219169055600382016000905560048201600061127c9190613a6c565b600582016000905560068201600090556007820160006101000a81549060ff02191690556008820160009055600a820160009055600b820160009055600c820160006101000a81549060ff0219169055600d820160009055600e820160006101000a81549060ff021916905550505b5050505050565b60098181548110151561130157fe5b90600052602060002090600f02016000915090508060000154908060010160009054906101000a900473ffffffffffffffffffffffffffffffffffffffff16908060020160009054906101000a900473ffffffffffffffffffffffffffffffffffffffff1690806003015490806004018054600181600116156101000203166002900480601f0160208091040260200160405190810160405280929190818152602001828054600181600116156101000203166002900480156114055780601f106113da57610100808354040283529160200191611405565b820191906000526020600020905b8154815290600101906020018083116113e857829003601f168201915b5050505050908060050154908060060154908060070160009054906101000a900460ff169080600801549080600a01549080600b01549080600c0160009054906101000a900460ff169080600d01549080600e0160009054906101000a900460ff1690508e565b600560009054906101000a900473ffffffffffffffffffffffffffffffffffffffff1673ffffffffffffffffffffffffffffffffffffffff163373ffffffffffffffffffffffffffffffffffffffff16141515611557576040517f08c379a000000000000000000000000000000000000000000000000000000000815260040180806020018281038252603d8152602001807f7244414f3a3a697353756d6d6f6e657220286d6f64696669657229202d206e6f81526020017f74207468652073756d6d6f6e6572206f6620726573656172636844414f00000081525060400191505060405180910390fd5b600e60009054906101000a900460ff1615600e60006101000a81548160ff021916908315150217905550565b565b600c5481565b600560169054906101000a900460ff1681565b600560149054906101000a900460ff1681565b6000600660003373ffffffffffffffffffffffffffffffffffffffff1673ffffffffffffffffffffffffffffffffffffffff16815260200190815260200160002060000154111515611691576040517f08c379a00000000000000000000000000000000000000000000000000000000081526004018080602001828103825260398152602001807f7244414f3a3a6d656d6265724f6e6c7920286d6f64696669657229202d206e6f81526020017f742061206d656d626572206f6620726573656172636844414f0000000000000081525060400191505060405180910390fd5b81600081111515611756576040517f08c379a000000000000000000000000000000000000000000000000000000000815260040180806020018281038252604d8152602001807f7244414f3a3a697356616c696450726f706f73616c496e64657820286d6f646981526020017f6669657229202d20696e70757420706172616d65746572206d7573742062652081526020017f686967686572207468616e20300000000000000000000000000000000000000081525060600191505060405180910390fd5b600854811115151561181c576040517f08c379a00000000000000000000000000000000000000000000000000000000081526004018080602001828103825260598152602001807f7244414f3a3a697356616c696450726f706f73616c496e64657820286d6f646981526020017f6669657229202d2070726f706f73616c496e646578206973206e6f742076616c81526020017f69642c206e6f74206578697374696e672070726f706f73616c0000000000000081525060600191505060405180910390fd5b826001151560096118376001846137f790919063ffffffff16565b81548110151561184357fe5b90600052602060002090600f020160070160009054906101000a900460ff1615151415156118ff576040517f08c379a00000000000000000000000000000000000000000000000000000000081526004018080602001828103825260368152602001807f7244414f3a3a697350726f706f73616c4f70656e20286d6f646966696572292081526020017f2d2050726f706f73616c206973206e6f74206f70656e0000000000000000000081525060400191505060405180910390fd5b600060096119176001876137f790919063ffffffff16565b81548110151561192357fe5b90600052602060002090600f020190506000816008015461194f600054426137f790919063ffffffff16565b10905060011515811515141515611a1a576040517f08c379a000000000000000000000000000000000000000000000000000000000815260040180806020018281038252605c8152602001807f7244414f3a3a7375626d6974566f7465202d2070726f706f73616c207065726981526020017f6f6420656e6465642c206e6f206c6f6e676572206163636570747320766f746581526020017f732e2054696d6520746f2070726f6365737350726f706f73616c28290000000081525060600191505060405180910390fd5b60038560ff16101515611abb576040517f08c379a00000000000000000000000000000000000000000000000000000000081526004018080602001828103825260318152602001807f7244414f3a3a7375626d6974566f7465202d205f75696e7438766f7465206d7581526020017f7374206265206c657373207468616e203300000000000000000000000000000081525060400191505060405180910390fd5b60008560ff166002811115611acc57fe5b905060006002811115611adb57fe5b8360090160003373ffffffffffffffffffffffffffffffffffffffff1673ffffffffffffffffffffffffffffffffffffffff16815260200190815260200160002060009054906101000a900460ff166002811115611b3557fe5b141515611bd0576040517f08c379a00000000000000000000000000000000000000000000000000000000081526004018080602001828103825260278152602001807f7244414f3a3a7375626d6974566f7465202d206d656d62657220616c7265616481526020017f7920766f7465640000000000000000000000000000000000000000000000000081525060400191505060405180910390fd5b808360090160003373ffffffffffffffffffffffffffffffffffffffff1673ffffffffffffffffffffffffffffffffffffffff16815260200190815260200160002060006101000a81548160ff02191690836002811115611c2d57fe5b021790555060016002811115611c3f57fe5b816002811115611c4b57fe5b1415611cef57611caa600660003373ffffffffffffffffffffffffffffffffffffffff1673ffffffffffffffffffffffffffffffffffffffff1681526020019081526020016000206000015484600a015461388290919063ffffffff16565b83600a0181905550600b600088815260200190815260200160002054600c541115611cea57600c54600b6000898152602001908152602001600020819055505b611d70565b600280811115611cfb57fe5b816002811115611d0757fe5b1415611d6f57611d66600660003373ffffffffffffffffffffffffffffffffffffffff1673ffffffffffffffffffffffffffffffffffffffff1681526020019081526020016000206000015484600b015461388290919063ffffffff16565b83600b01819055505b5b7f25a0c31eb8e3cc4efdd26be8ef3500e0bac7e9743fbb14a4a105653e862c26d1873388604051808481526020018373ffffffffffffffffffffffffffffffffffffffff1673ffffffffffffffffffffffffffffffffffffffff1681526020018260ff1660ff168152602001935050505060405180910390a150505050505050565b60606007805480602002602001604051908101604052809291908181526020018280548015611e7657602002820191906000526020600020905b8160009054906101000a900473ffffffffffffffffffffffffffffffffffffffff1673ffffffffffffffffffffffffffffffffffffffff1681526020019060010190808311611e2c575b5050505050905090565b6000600660003373ffffffffffffffffffffffffffffffffffffffff1673ffffffffffffffffffffffffffffffffffffffff16815260200190815260200160002060000154111515611f60576040517f08c379a00000000000000000000000000000000000000000000000000000000081526004018080602001828103825260398152602001807f7244414f3a3a6d656d6265724f6e6c7920286d6f64696669657229202d206e6f81526020017f742061206d656d626572206f6620726573656172636844414f0000000000000081525060400191505060405180910390fd5b565b80600081111515612027576040517f08c379a000000000000000000000000000000000000000000000000000000000815260040180806020018281038252604d8152602001807f7244414f3a3a697356616c696450726f706f73616c496e64657820286d6f646981526020017f6669657229202d20696e70757420706172616d65746572206d7573742062652081526020017f686967686572207468616e20300000000000000000000000000000000000000081525060600191505060405180910390fd5b60085481111515156120ed576040517f08c379a00000000000000000000000000000000000000000000000000000000081526004018080602001828103825260598152602001807f7244414f3a3a697356616c696450726f706f73616c496e64657820286d6f646981526020017f6669657229202d2070726f706f73616c496e646578206973206e6f742076616c81526020017f69642c206e6f74206578697374696e672070726f706f73616c0000000000000081525060600191505060405180910390fd5b816001151560096121086001846137f790919063ffffffff16565b81548110151561211457fe5b90600052602060002090600f020160070160009054906101000a900460ff1615151415156121d0576040517f08c379a00000000000000000000000000000000000000000000000000000000081526004018080602001828103825260368152602001807f7244414f3a3a697350726f706f73616c4f70656e20286d6f646966696572292081526020017f2d2050726f706f73616c206973206e6f74206f70656e0000000000000000000081525060400191505060405180910390fd5b505050565b60005481565b60015481565b6007818154811015156121f057fe5b906000526020600020016000915054906101000a900473ffffffffffffffffffffffffffffffffffffffff1681565b600560159054906101000a900460ff1681565b6000600660003373ffffffffffffffffffffffffffffffffffffffff1673ffffffffffffffffffffffffffffffffffffffff16815260200190815260200160002060000154111515612312576040517f08c379a00000000000000000000000000000000000000000000000000000000081526004018080602001828103825260398152602001807f7244414f3a3a6d656d6265724f6e6c7920286d6f64696669657229202d206e6f81526020017f742061206d656d626572206f6620726573656172636844414f0000000000000081525060400191505060405180910390fd5b600e60009054906101000a900460ff161515612b6b576000600254341415156123ef576040517f08c379a00000000000000000000000000000000000000000000000000000000081526004018080602001828103825260438152602001807f7244414f3a3a7375626d697450726f706f73616c202d2050726f706f73616c2081526020017f6465706f736974206973206e6f7420657175616c20746f20726571756972656d81526020017f656e74000000000000000000000000000000000000000000000000000000000081525060600191505060405180910390fd5b6000602060ff16111515612491576040517f08c379a00000000000000000000000000000000000000000000000000000000081526004018080602001828103825260388152602001807f7244414f3a3a7375626d697450726f706f73616c202d2041747461636865642081526020017f646f63756d656e746174696f6e206973206d697373696e67000000000000000081525060400191505060405180910390fd5b6001151587151514156125eb5760008311151561253c576040517f08c379a00000000000000000000000000000000000000000000000000000000081526004018080602001828103825260328152602001807f7244414f3a3a7375626d697450726f706f73616c202d2046756e64696e67206781526020017f6f616c2063616e6e6f74206265207a65726f000000000000000000000000000081525060400191505060405180910390fd5b670de0b6b3a764000083111515156125e2576040517f08c379a00000000000000000000000000000000000000000000000000000000081526004018080602001828103825260388152602001807f7244414f3a3a7375626d697450726f706f73616c202d2046756e64696e67206781526020017f6f616c206973206f7574206f6620626f756e646172696573000000000000000081525060400191505060405180910390fd5b60009150600190505b60001515871515141561277357600082111515612696576040517f08c379a00000000000000000000000000000000000000000000000000000000081526004018080602001828103825260368152602001807f7244414f3a3a7375626d697450726f706f73616c202d2053686172657320726581526020017f717565737465642063616e6e6f74206265207a65726f0000000000000000000081525060400191505060405180910390fd5b60006126c1600d546126b3600c548661388290919063ffffffff16565b61388290919063ffffffff16565b9050670de0b6b3a76400008111151515612769576040517f08c379a000000000000000000000000000000000000000000000000000000000815260040180806020018281038252603c8152602001807f7244414f3a3a7375626d697450726f706f73616c202d2053686172657320726581526020017f71756573746564206973206f7574206f6620626f756e6461726965730000000081525060400191505060405180910390fd5b6000935060009150505b600061278b600160085461388290919063ffffffff16565b90506127a3600160085461388290919063ffffffff16565b6008819055506127b1613ab4565b6101c0604051908101604052808381526020013373ffffffffffffffffffffffffffffffffffffffff1681526020018973ffffffffffffffffffffffffffffffffffffffff16815260200185815260200188815260200187815260200186815260200184151581526020014281526020016000815260200160008152602001600015158152602001600081526020018a1515815250905088151561286f576128688160600151600d5461388290919063ffffffff16565b600d819055505b6009819080600181540180825580915050906001820390600052602060002090600f0201600090919290919091506000820151816000015560208201518160010160006101000a81548173ffffffffffffffffffffffffffffffffffffffff021916908373ffffffffffffffffffffffffffffffffffffffff16021790555060408201518160020160006101000a81548173ffffffffffffffffffffffffffffffffffffffff021916908373ffffffffffffffffffffffffffffffffffffffff16021790555060608201518160030155608082015181600401908051906020019061295b929190613b59565b5060a0820151816005015560c0820151816006015560e08201518160070160006101000a81548160ff021916908315150217905550610100820151816008015561012082015181600a015561014082015181600b015561016082015181600c0160006101000a81548160ff02191690831515021790555061018082015181600d01556101a082015181600e0160006101000a81548160ff021916908315150217905550505050600a60003373ffffffffffffffffffffffffffffffffffffffff1673ffffffffffffffffffffffffffffffffffffffff1681526020019081526020016000208290806001815401808255809150509060018203906000526020600020016000909192909190915055507f5112e1fd2fccbfb994e10502638ec30741ddd29d276dcee5a7eefb22aea8a54381600001513383608001518460a00151856101a00151604051808681526020018573ffffffffffffffffffffffffffffffffffffffff1673ffffffffffffffffffffffffffffffffffffffff1681526020018060200184815260200183151515158152602001828103825285818151815260200191508051906020019080838360005b83811015612b29578082015181840152602081019050612b0e565b50505050905090810190601f168015612b565780820380516001836020036101000a031916815260200191505b50965050505050505060405180910390a15050505b505050505050565b600b6020528060005260406000206000915090505481565b600560009054906101000a900473ffffffffffffffffffffffffffffffffffffffff1681565b6000600660003373ffffffffffffffffffffffffffffffffffffffff1673ffffffffffffffffffffffffffffffffffffffff16815260200190815260200160002060000154111515612c91576040517f08c379a00000000000000000000000000000000000000000000000000000000081526004018080602001828103825260398152602001807f7244414f3a3a6d656d6265724f6e6c7920286d6f64696669657229202d206e6f81526020017f742061206d656d626572206f6620726573656172636844414f0000000000000081525060400191505060405180910390fd5b600e60009054906101000a900460ff1615156137e85780600081111515612d6c576040517f08c379a000000000000000000000000000000000000000000000000000000000815260040180806020018281038252604d8152602001807f7244414f3a3a697356616c696450726f706f73616c496e64657820286d6f646981526020017f6669657229202d20696e70757420706172616d65746572206d7573742062652081526020017f686967686572207468616e20300000000000000000000000000000000000000081525060600191505060405180910390fd5b6008548111151515612e32576040517f08c379a00000000000000000000000000000000000000000000000000000000081526004018080602001828103825260598152602001807f7244414f3a3a697356616c696450726f706f73616c496e64657820286d6f646981526020017f6669657229202d2070726f706f73616c496e646578206973206e6f742076616c81526020017f69642c206e6f74206578697374696e672070726f706f73616c0000000000000081525060600191505060405180910390fd5b60006009612e4a6001856137f790919063ffffffff16565b815481101515612e5657fe5b90600052602060002090600f0201905060008160080154612e82600054426137f790919063ffffffff16565b10905060001515811515141515612f4d576040517f08c379a00000000000000000000000000000000000000000000000000000000081526004018080602001828103825260418152602001807f7244414f3a3a70726f6365737350726f706f73616c202d2070726f706f73616c81526020017f20766f74696e6720706572696f6420686173206e6f742070617373656420796581526020017f740000000000000000000000000000000000000000000000000000000000000081525060600191505060405180910390fd5b81600b015482600a01541182600c0160006101000a81548160ff021916908315150217905550600b600085815260200190815260200160002054612fae600560169054906101000a900460ff1660ff16600c5461390c90919063ffffffff16565b1015612fd257600082600c0160006101000a81548160ff0219169083151502179055505b6000612fef83600b015484600a015461388290919063ffffffff16565b9050613018600560149054906101000a900460ff1660ff16600c5461390c90919063ffffffff16565b61302c60648361390c90919063ffffffff16565b1183600c0160006101000a81548160ff021916908315150217905550600560159054906101000a900460ff1660ff1661308560646130778487600a01546139d990919063ffffffff16565b61390c90919063ffffffff16565b1183600c0160006101000a81548160ff02191690831515021790555060008360070160006101000a81548160ff0219169083151502179055506130d78360030154600d546137f790919063ffffffff16565b600d819055506001151583600c0160009054906101000a900460ff161515141561354d576001151583600e0160009054906101000a900460ff161515141561318d578260010160009054906101000a900473ffffffffffffffffffffffffffffffffffffffff1673ffffffffffffffffffffffffffffffffffffffff166108fc84600601549081150290604051600060405180830381858888f19350505050158015613187573d6000803e3d6000fd5b50613548565b6000151583600e0160009054906101000a900460ff161515141561354757600660008460020160009054906101000a900473ffffffffffffffffffffffffffffffffffffffff1673ffffffffffffffffffffffffffffffffffffffff1673ffffffffffffffffffffffffffffffffffffffff16815260200190815260200160002060020160009054906101000a900460ff161561333a576132a18360030154600660008660020160009054906101000a900473ffffffffffffffffffffffffffffffffffffffff1673ffffffffffffffffffffffffffffffffffffffff1673ffffffffffffffffffffffffffffffffffffffff1681526020019081526020016000206000015461388290919063ffffffff16565b507f840d4f6dd7ca199b8c347731634f2a239f9938efc631362173db9841f650b09d8360020160009054906101000a900473ffffffffffffffffffffffffffffffffffffffff168460030154604051808373ffffffffffffffffffffffffffffffffffffffff1673ffffffffffffffffffffffffffffffffffffffff1681526020018281526020019250505060405180910390a1613546565b60078360020160009054906101000a900473ffffffffffffffffffffffffffffffffffffffff1690806001815401808255809150509060018203906000526020600020016000909192909190916101000a81548173ffffffffffffffffffffffffffffffffffffffff021916908373ffffffffffffffffffffffffffffffffffffffff160217905550508260030154600660008560020160009054906101000a900473ffffffffffffffffffffffffffffffffffffffff1673ffffffffffffffffffffffffffffffffffffffff1673ffffffffffffffffffffffffffffffffffffffff168152602001908152602001600020600001819055506001600660008560020160009054906101000a900473ffffffffffffffffffffffffffffffffffffffff1673ffffffffffffffffffffffffffffffffffffffff1673ffffffffffffffffffffffffffffffffffffffff16815260200190815260200160002060020160006101000a81548160ff0219169083151502179055507f74d524b329f99ba73ae6076b03ebe7fba2d19412d52c9ba4c4373e85937c45d48360020160009054906101000a900473ffffffffffffffffffffffffffffffffffffffff168460030154604051808373ffffffffffffffffffffffffffffffffffffffff1673ffffffffffffffffffffffffffffffffffffffff1681526020018281526020019250505060405180910390a15b5b5b61371e565b6000151583600c0160009054906101000a900460ff161515141561371d578260020160009054906101000a900473ffffffffffffffffffffffffffffffffffffffff1673ffffffffffffffffffffffffffffffffffffffff166108fc600660008660020160009054906101000a900473ffffffffffffffffffffffffffffffffffffffff1673ffffffffffffffffffffffffffffffffffffffff1673ffffffffffffffffffffffffffffffffffffffff168152602001908152602001600020600101549081150290604051600060405180830381858888f1935050505015801561363b573d6000803e3d6000fd5b506000151583600e0160009054906101000a900460ff161515141561371c577f04def509c5bb32a15a5c1882de834a3e0a5808f568849a754f474f3e62d5ad578360020160009054906101000a900473ffffffffffffffffffffffffffffffffffffffff1684600b015485600a01546136c587600a015488600b015461388290919063ffffffff16565b604051808573ffffffffffffffffffffffffffffffffffffffff1673ffffffffffffffffffffffffffffffffffffffff16815260200184815260200183815260200182815260200194505050505060405180910390a15b5b5b8260010160009054906101000a900473ffffffffffffffffffffffffffffffffffffffff1673ffffffffffffffffffffffffffffffffffffffff166108fc6002549081150290604051600060405180830381858888f1935050505015801561378a573d6000803e3d6000fd5b507f85acde6aac08108614a0800c99b5790887e4d6edcef99cf6f9eadc9fc597467c836000015484600c0160009054906101000a900460ff1660405180838152602001821515151581526020019250505060405180910390a1505050505b50565b60025481565b60045481565b6000828211151515613871576040517f08c379a000000000000000000000000000000000000000000000000000000000815260040180806020018281038252601e8152602001807f536166654d6174683a207375627472616374696f6e206f766572666c6f77000081525060200191505060405180910390fd5b600082840390508091505092915050565b6000808284019050838110151515613902576040517f08c379a000000000000000000000000000000000000000000000000000000000815260040180806020018281038252601b8152602001807f536166654d6174683a206164646974696f6e206f766572666c6f77000000000081525060200191505060405180910390fd5b8091505092915050565b60008083141561391f57600090506139d3565b6000828402905082848281151561393257fe5b041415156139ce576040517f08c379a00000000000000000000000000000000000000000000000000000000081526004018080602001828103825260218152602001807f536166654d6174683a206d756c7469706c69636174696f6e206f766572666c6f81526020017f770000000000000000000000000000000000000000000000000000000000000081525060400191505060405180910390fd5b809150505b92915050565b60008082111515613a52576040517f08c379a000000000000000000000000000000000000000000000000000000000815260040180806020018281038252601a8152602001807f536166654d6174683a206469766973696f6e206279207a65726f00000000000081525060200191505060405180910390fd5b60008284811515613a5f57fe5b0490508091505092915050565b50805460018160011615610100020316600290046000825580601f10613a925750613ab1565b601f016020900490600052602060002090810190613ab09190613bd9565b5b50565b6101c06040519081016040528060008152602001600073ffffffffffffffffffffffffffffffffffffffff168152602001600073ffffffffffffffffffffffffffffffffffffffff16815260200160008152602001606081526020016000801916815260200160008152602001600015158152602001600081526020016000815260200160008152602001600015158152602001600081526020016000151581525090565b828054600181600116156101000203166002900490600052602060002090601f016020900481019282601f10613b9a57805160ff1916838001178555613bc8565b82800160010185558215613bc8579182015b82811115613bc7578251825591602001919060010190613bac565b5b509050613bd59190613bd9565b5090565b613bfb91905b80821115613bf7576000816000905550600101613bdf565b5090565b9056fea165627a7a7230582083dc98c026536d73051190238d5a549e304e1aca6a52075c05a09c8ed16ecf390029",
  "source": "/// @author Adrian Lenard\n/// @title researchDAO - Collective intelligence for the research community\n/// @notice Purpose of this contract is to enable guild like operation for researchers, while enabling crowdfunding capital to accelerate research funding\n/// @dev All function calls are currently implemented without side effects\n\npragma solidity ^0.5.0;\n\nimport \"./SafeMath.sol\";\n\ncontract researchDAO {\n\nusing SafeMath for uint;                     // Enabling contract to use SafeMath library for uint type operations\n\n// Global constants for constructor\n\nuint256 public globalVotingPeriod;            // Default value is 30 days or 2.592e+6 seconds\nuint256 public globalRagequitPeriod;          // Default value is 7 days or 604800 seconds\nuint256 public globalProposalDeposit;         // Default value is 10 ETH\nuint256 public globalProcessingReward;        // Default value is 0.1 ETH to incentivize processing. 10 means: 1/10 ETH per\nuint256 public globalSummoningTime;           // The block.timestamp at contract deployment\naddress payable public globalSummonerAddress; // The address which summoned the DAO\nuint8 public globalQuorum;                    // Default value is 50 for 50%, this sets the required participation for a proposal vote to pass\nuint8 public globalMajority;                  // Default value is 50 for 50%, this sets the number of required Yes votes for a vote to pass\nuint8 public globalDilutionBound;             // Default value is 2 for 2x dilution, this prevents extreme dilution of members\n\n// Security limits thanks to Moloch DAO\n// These numbers are quite arbitrary; they are small enough to avoid overflows when doing calculations\n// with periods or shares, yet big enough to not limit reasonable use cases.\n\nuint256 constant MAX_VOTING_PERIOD_LENGTH = 10**18;     // maximum length of voting period\nuint256 constant MAX_GRACE_PERIOD_LENGTH = 10**18;      // maximum length of grace/ragequit period\nuint256 constant MAX_PROPOSAL_DEPOSIT = 10**18;         // maximum number of proposal deposit that can be used\nuint256 constant MAX_NUMBER_OF_SHARES = 10**18;         // maximum number of shares that can be minted\nuint256 constant MAX_PROCESS_REWARD = 10**18;           // maximum number for processing reward that can be used\nuint256 constant MAX_INITIAL_SHARE = 10**18;            // maximum number for initial share request that can be used\nuint256 constant MAX_FUNDING_GOAL = 10**18;             // maximum number for funding that can be used\nuint8 constant MAX_QUORUM = 10**2;                      // maximum number for quorum that can be used\nuint8 constant MAX_MAJORITY = 10**2;                    // maximum number for majority that can be used\nuint8 constant MAX_DILUTION_BOUND = 10**2;              // maximum number for dilution bound that can be used\n\n// Events\n\nevent Summoned(address summoner, uint256 initialShares );\nevent SubmittedProposal(\n  uint256 proposalIndex,\n  address proposer,\n  string title,\n  bytes32 documentationAddress,\n  bool isProposalOrApplication\n  );\nevent ConfirmedApplication(uint256 proposalIndex, bool confirmation);\nevent SubmittedVote(uint256 proposalIndex, address voter, uint8 vote);\nevent ProcessedProposal(uint256 proposalIndex, bool didPass);\nevent MemberJoinedGuild(address applicant, uint256 sharesMinted);\nevent MemberReceivedNewShares(address applicant, uint256 sharesRequested);\nevent MemberApplicationFailed(address applicant, uint256 noVotes, uint256 yesVotes, uint256 totalVotes);\n\n// These events need implementation\nevent ExternalFundGuild();\nevent ExternalFundProposal();\nevent RageQuit();\n\n// Guild governance - These variables are responsible for governance related values\n\n// Members\nstruct Member {\n    uint256 shares;         // rDAO voting shares - voting power\n    uint256 contribution;   // Checking who offered how much when joining\n    bool exists;            // General switch to indicate if an address is already a member\n}\nmapping(address => Member) public members;   // Storing member details in a mapping\naddress[] public memberArray;                // Member array\n\n// Votes\nenum Vote {\n    Null,   // default value\n    Yes,\n    No\n}\n// Proposal structure\nstruct Proposal {     // This struct serves as the framework for a proposal to be submitted\n\n    uint256 proposalIndex;  // the numeric ID of the proposal\n    address payable proposer;   // the address of the submitter\n    address payable applicant;  // the applicant address who would like to join\n    uint256 sharesRequested;  // shares requested for the proposed member\n    string  title;  // simple title for the proposal, e.g.: Adrian L. new membership proposal\n    bytes32 documentationAddress;   // IPFS hash of the detailed documentation, e.g.: research project description\n    uint256 fundingGoal;  // amount of the required funding, coming from guild fund and external contributors\n    bool isProposalOpen;   // state of the proposal, default is open, closed in processProposal() call\n    uint256 creationTimestamp;  // now (block.timestamp) when proposal is submitted\n    mapping(address => Vote) votesByMembers;   // stores each members vote in a mapping\n    uint256 yesVote;  // #of Yes votes\n    uint256 noVote;   // #of No votes\n    bool    didPass;  // result state of proposal, changed when calling processProposal()\n    uint256 externalFundsCollected;  // the amount received from external contributors\n    bool isProposalOrApplication;   // This is used for switching between member application and proposal for research.\n                                       // [0 = proposal for research, 1 = new member application]\n    }\n\nuint256 public proposalCounter;     // Storing actual highest index for proposals - incremented upon submitProposal()\nProposal[] public proposalQueue;    // Storing proposals in an array for queuing\nmapping(address => uint256[]) public proposalsOfMembers;      // Storing proposals for each member in an array\n// Storing the number of total shares at the moment of last  Yes vote casted on a particular proposal - used for dilution bound\nmapping(uint256 => uint256) public maxTotalSharesAtYesVote;\n\n// Guild bank - These variables handle internal share allocations\n// Member shares are stored in the Member struct used in members mapping\nuint256 public rDAO_totalShareSupply;                // Counting the total shares issued\nuint256 public totalSharesRequested;                 // Counting the total shares requested in the currently open proposals\n\n// Modifiers\n\n// memberOnly serves as the restriction modifier for calls to only allow members to call\nmodifier memberOnly {\n    require(members[msg.sender].shares > 0, \"rDAO::memberOnly (modifier) - not a member of researchDAO\");\n    _;\n}\n// isSummoner serves as the restriction modifier for calls to only allow summer to call - used in circuit breaker\nmodifier isSummoner {\n    require(msg.sender == globalSummonerAddress, \"rDAO::isSummoner (modifier) - not the summoner of researchDAO\");\n    _;\n}\n// Checking if proposal index is a valid proposal\nmodifier isValidProposalIndex(uint256 _proposalIndex) {\n  require(_proposalIndex > 0 , \"rDAO::isValidProposalIndex (modifier) - input parameter must be higher than 0\");\n  require(_proposalIndex <= proposalCounter, \"rDAO::isValidProposalIndex (modifier) - proposalIndex is not valid, not existing proposal\");\n  _;\n\n}\n// Checking if proposal is open\nmodifier isProposalOpen(uint256 _proposalIndex) {\n  require(proposalQueue[_proposalIndex.sub(1)].isProposalOpen == true,  \"rDAO::isProposalOpen (modifier) - Proposal is not open\");\n  _;\n}\n\n// Implementing circuit breaker logic\nbool private stopped = false;\n\nmodifier stopInEmergency {\n    if(!stopped)\n    _;\n}\n\nmodifier onlyInEmergency {\n    require(stopped);\n    _;\n}\n// Circuit breaker switch to freeze functions - can be only called by the summoner\nfunction toggleContractFreeze() isSummoner public {\n    stopped = !stopped;\n}\n\n\n// Summoning constructor\n/// @notice Constructor function for summoning the DAO\n/// @param _globalVotingPeriod The number which sets the voting period in seconds\n/// @param _globalRagequitPeriod The number which sets the ragequit period in seconds\n/// @param _globalProposalDeposit The number that sets the required deposit upon proposal submission\n/// @param _globalProcessingReward The number that sets the reward value when a member processes an ended proposal\n/// @param _initialSharesRequested The number of the shares the summoner receives when summoning the DAO\n/// @param _globalQuorum The quorum percentage required for a vote to pass\n/// @param _globalMajority The majority percentage that is requirement for Yes votes to pass\n/// @param _globalDilutionBound The number that prohibits extreme dilution of remaining members after a massive coordinated ragequit\n\n  constructor(\n  uint256 _globalVotingPeriod,\n  uint256 _globalRagequitPeriod,\n  uint256 _globalProposalDeposit,\n  uint256 _globalProcessingReward,\n  uint256 _initialSharesRequested,\n  uint8 _globalQuorum,\n  uint8 _globalMajority,\n  uint8 _globalDilutionBound)\n  public\n  {\n    // Checking summoning global constant values for security limits\n    require(_globalVotingPeriod > 0,                                \"rDAO::constructor - Voting period cannot be zero\");\n    require(_globalVotingPeriod <= MAX_VOTING_PERIOD_LENGTH,        \"rDAO::constructor - Voting period is out of boundaries\");\n    require(_globalRagequitPeriod > 0,                              \"rDAO::constructor - Ragequit period cannot be zero\");\n    require(_globalRagequitPeriod <= MAX_VOTING_PERIOD_LENGTH,      \"rDAO::constructor - Ragequit period is out of boundaries\");\n    require(_globalProposalDeposit > 0,                             \"rDAO::constructor - Proposal deposit cannot be negative or zero\");\n    require(_globalProposalDeposit <= MAX_PROPOSAL_DEPOSIT,         \"rDAO::constructor - Proposal deposit is out of boundaries\");\n    require(_globalProcessingReward > 0,                            \"rDAO::constructor - Processing reward can't be zero. It serves as incentive\");\n    require(_globalProcessingReward <= MAX_PROCESS_REWARD,          \"rDAO::constructor - Processing reward is out of boundaries\");\n    require(_initialSharesRequested > 0,                            \"rDAO::constructor - Initially requested share can't be zero.\");\n    require(_initialSharesRequested <= MAX_INITIAL_SHARE,           \"rDAO::constructor - Initially requested share is out of boundaries\");\n    require(_globalQuorum > 0,                                      \"rDAO::constructor - Quorum can't be zero.\");\n    require(_globalQuorum <= MAX_QUORUM,                            \"rDAO::constructor - Quorum is out of boundaries\");\n    require(_globalMajority > 0,                                    \"rDAO::constructor - Majority can't be zero.\");\n    require(_globalMajority <= MAX_MAJORITY,                        \"rDAO::constructor - Majority is out of boundaries\");\n    require(_globalDilutionBound > 0,                               \"rDAO::constructor - Dilution bound can't be zero.\");\n    require(_globalDilutionBound <= MAX_DILUTION_BOUND,             \"rDAO::constructor - Dilution bound is out of boundaries\");\n\n    // Setting global constansts based on constructor parameters\n    globalVotingPeriod = _globalVotingPeriod;\n    globalRagequitPeriod = _globalRagequitPeriod;\n    globalProposalDeposit = _globalProposalDeposit.mul(1e18);   // Converting wei to ether\n    globalProcessingReward = _globalProcessingReward.mul(1e18); // Converting wei to ether\n    globalQuorum = _globalQuorum;\n    globalMajority = _globalMajority;\n    globalDilutionBound = _globalDilutionBound;\n    globalSummonerAddress = msg.sender;\n\n    // Storing summoner as a member\n    memberArray.push(msg.sender);\n\n    // Setting up initial founding member and storing his shares in members mapping\n    members[msg.sender].shares = _initialSharesRequested;\n\n    // Initializing share supply according to summoning parameters\n    rDAO_totalShareSupply = members[msg.sender].shares;\n\n    // Storing the timestamp of the summoning (now is alias for block.timestamp)\n    globalSummoningTime = now;\n\n    // Counter initialization\n    proposalCounter = 0;\n\n    // Emitting the corresponding event with the summoners address and the allocated share number\n    emit Summoned(msg.sender, members[msg.sender].shares);\n\n  }\n\n// Functions\n// ---------\n// submitProposal()           when a member proposes something either for research or new membership application\n// submitVote()               when a member casts a vote on a given proposal from within the DAO\n// processProposal()          when a member finalizes a proposal by closing it and executing it based on the results\n// confirmApplication()       when a proposed member confirms his application to avoid proposal of an applicant without consent\n// rageQuit()                 when a member ragequits and collects his funds based on rDAO share amount\n// externalFundProposal()     when an external contributor funds a specific proposal\n// externalFundDAO()          when an external contributor funds the DAO generally to let internal members decide over the fund\n\n/// @notice submitProposal function creates a new proposal submitted by an existing member\n/// @param _isProposalOrApplication Acts as a switch for deciding the proposal type: proposal for research OR proposal for new member application\n/// @param _applicant The address of the applying member\n/// @param _title The title of the submitted proposal\n/// @param _documentationAddress Hash address for the detailed documentation of the proposal\n/// @param _fundingGoal Funds required by the proposer to realize the research proposal\n/// @param _sharesRequested New shares minted for the applying member\n\nfunction submitProposal(\nbool _isProposalOrApplication,\naddress payable _applicant,\nstring memory _title,\nbytes32 _documentationAddress,\nuint256 _fundingGoal,\nuint256 _sharesRequested)\npublic\npayable\nmemberOnly\nstopInEmergency\n{\n  // Setting up a switch to set if proposal open or not - used for application confirmation\n  bool isOpen;\n  // Checking if there is deposit sent with submitProposal function\n  require(msg.value == globalProposalDeposit,               \"rDAO::submitProposal - Proposal deposit is not equal to requirement\");\n  // Checking inputs for all types of proposal\n  require(_documentationAddress.length > 0,                 \"rDAO::submitProposal - Attached documentation is missing\");\n\n  // IF proposal for research\n  if ( _isProposalOrApplication == true ) {\n    require(_fundingGoal > 0,                               \"rDAO::submitProposal - Funding goal cannot be zero\");\n    require(_fundingGoal <= MAX_FUNDING_GOAL,               \"rDAO::submitProposal - Funding goal is out of boundaries\");\n    _sharesRequested = 0;                                   // Zeroing out. Not needed when proposing a research\n    isOpen = true;                                          // Research proposal does not need confirmation\n  }\n\n  // IF proposal for new member application\n  if( _isProposalOrApplication == false ) {\n    require(_sharesRequested > 0,                           \"rDAO::submitProposal - Shares requested cannot be zero\");\n    // Calculating total shares requested plus total shares minted\n    uint256 shareUpperBoundaries = _sharesRequested.add(rDAO_totalShareSupply).add(totalSharesRequested);\n    require(shareUpperBoundaries <= MAX_NUMBER_OF_SHARES,   \"rDAO::submitProposal - Shares requested is out of boundaries\");\n    _fundingGoal = 0;                                       // Zeroing out. Not needed when proposing a new member\n    isOpen = false;                                         // Application proposal needs confirmation of applicant, therefore not open by default\n  }\n\n  // Copying current #for proposals and incrementing counter\n  uint256 _proposalIndex = proposalCounter.add(1);\n  proposalCounter = proposalCounter.add(1);\n\n  // Creating proposal with fn parameters\n  Proposal memory proposal = Proposal({\n    proposalIndex: _proposalIndex,\n    proposer: msg.sender,\n    applicant: _applicant,\n    sharesRequested: _sharesRequested,\n    title: _title,\n    documentationAddress: _documentationAddress,\n    fundingGoal: _fundingGoal,\n    isProposalOpen: isOpen,\n    creationTimestamp: now,\n    yesVote: 0,\n    noVote: 0,\n    didPass: false,\n    externalFundsCollected: 0,\n    isProposalOrApplication: _isProposalOrApplication\n  });\n\n  // Adding #of shares requested by the current proposal to totalSharesRequested if this is a member application\n  if (!_isProposalOrApplication) {\n    totalSharesRequested = totalSharesRequested.add(proposal.sharesRequested);\n  }\n\n  // Adding the created proposal to the proposal queue\n  proposalQueue.push(proposal);\n\n  // Adding proposal to proposalsOfMembers mapping array\n  proposalsOfMembers[msg.sender].push(_proposalIndex);\n\n  // Emitting related event\n  emit SubmittedProposal(proposal.proposalIndex, msg.sender, proposal.title, proposal.documentationAddress, proposal.isProposalOrApplication);\n\n}\n/// @notice confirmApplication function to allow applicant confirm his application proposal\n/// @param _proposalIndex The index/ID of the proposal to vote on\n/// @param confirmation If confirms or not (true of false)\n\nfunction confirmApplication(\n  uint256 _proposalIndex,\n  bool confirmation\n  )\n  public\n  payable\n  isValidProposalIndex(_proposalIndex)\n{\n  require(_proposalIndex > 0 , \"rDAO::confirmApplication -  _proposalIndex input parameter must be higher than 0\");\n  Proposal storage proposal = proposalQueue[_proposalIndex.sub(1)];\n\n  // Checking if confirmation has not been called by applicatan\n  require(proposal.isProposalOrApplication == false, \"rDAO::confirmApplication - Proposal is not an application\");\n  // Checking if given proposal applicant is calling the function\n  require(msg.sender == proposal.applicant,   \"rDAO::confirmApplication - Can only be called from applicant's address\");\n  // Checking if confirmation has not been called by applicatan\n  require(proposal.isProposalOpen == false, \"rDAO::confirmApplication - Proposal has been already confirmed\");\n\n  // Checking if the proposal voting period has ended\n  bool isTimeLeft = now.sub(globalVotingPeriod) < proposal.creationTimestamp;\n  require(isTimeLeft == true,                 \"rDAO::confirmApplication - proposal period ended, no longer accepts confirmations.\");\n  // Setting confirmation status, true opens up the proposal, false leaves as is(false by default on submitProposal)\n  if (confirmation == true) {\n    proposal.isProposalOpen = confirmation;\n    // Storing contribution value of the applicant\n    members[msg.sender].contribution = msg.value;\n    // Emitting relevant event\n    emit ConfirmedApplication(_proposalIndex, confirmation);\n  } else {\n    // Delete proposal if applicant cancels\n    delete proposalQueue[_proposalIndex.sub(1)];\n  }\n\n\n}\n\n/// @notice submitVote function to cast a vote on a given proposal\n/// @param _proposalIndex The index/ID of the proposal to vote on\n/// @param _uint8vote The vote - 0: Null, 1: Yes, 2: No\n\nfunction submitVote(\n  uint256 _proposalIndex,\n  uint8 _uint8vote\n)\npublic\nmemberOnly\nisValidProposalIndex(_proposalIndex)\nisProposalOpen(_proposalIndex)\n{\n  // require proposalIndex to a valid proposal using proposalCount\n  // check timeframe: require VOTING_PERIOD - proposal.creationTimestamp > 0\n  // convert vote from uint to Vote struct to use with votesByMembers\n  // store member and his vote in votesByMembers\n  // mapping (address => Vote) votesByMembers;   // stores each members vote in a mapping\n  // store YesVote or NoVote and add up voter shares\n  // emit Event submittedVote()\n\n  Proposal storage proposal = proposalQueue[_proposalIndex.sub(1)];\n\n  // Checking if the proposal voting period has ended\n  bool isTimeLeft = now.sub(globalVotingPeriod) < proposal.creationTimestamp;\n  require(isTimeLeft == true,                               \"rDAO::submitVote - proposal period ended, no longer accepts votes. Time to processProposal()\");\n  // Checking that the input parameter _uint8vote is at most 3 and converting it into a Vote sturct\n  require(_uint8vote < 3,                                   \"rDAO::submitVote - _uint8vote must be less than 3\");\n  Vote vote = Vote(_uint8vote);\n  // Checking if the member has voted already and storing the casted vote into votesByMembers\n  require(proposal.votesByMembers[msg.sender] == Vote.Null , \"rDAO::submitVote - member already voted\");\n  proposal.votesByMembers[msg.sender] = vote;\n\n  // Incrementing vote counters in proposal based on casted vote times the shares of the voting member\n  if (vote == Vote.Yes) {\n    proposal.yesVote = proposal.yesVote.add(members[msg.sender].shares);\n    // Updating the number of total shares minted when member voted yes and share supply changed since last yes vote\n    if (rDAO_totalShareSupply > maxTotalSharesAtYesVote[_proposalIndex]) {\n      maxTotalSharesAtYesVote[_proposalIndex] = rDAO_totalShareSupply;\n    }\n  } else if (vote == Vote.No) {\n    proposal.noVote = proposal.noVote.add(members[msg.sender].shares);\n  }\n\n  // Emitting the relevant event SubmittedVote()\n  emit SubmittedVote(_proposalIndex, msg.sender, _uint8vote);\n\n}\n\n/// @notice processProposal processes an ended proposal and executes the proposed subject\n/// @param _proposalIndex The index/ID of the proposal to process\n/// @dev If proposal fails need to transfer back external contributions\n\nfunction processProposal(uint256 _proposalIndex)\npublic\nmemberOnly\nstopInEmergency\nisValidProposalIndex(_proposalIndex)\n//isProposalOpen(_proposalIndex) - unconfirmed proposals should be processable also, to return deposit\n{\n  // check if proposal exists\n  // check if proposal has ended\n  // [check if quorum reached ?] 50% minimum\n  // count votes and modify didPass\n  // close proposal - isProposalOpen\n  // based on isProposalOrApplication\n  //      - proposal:    distribute funds or send back contributions\n  //      - application: distribute shares\n  // return proposer ETH deposit\n\n  // Storing proposal data\n  Proposal storage proposal = proposalQueue[_proposalIndex.sub(1)];\n\n  // Checking if the proposal is voting period has passed\n  bool isTimeLeft = now.sub(globalVotingPeriod) < proposal.creationTimestamp;\n  require(isTimeLeft == false, \"rDAO::processProposal - proposal voting period has not passed yet\");\n\n  // Setting vote results based on summary of casted votes\n  proposal.didPass = proposal.yesVote > proposal.noVote;\n\n  // Setting proposal fail if dilution bound would be exceeded\n  if (rDAO_totalShareSupply.mul(globalDilutionBound) < maxTotalSharesAtYesVote[_proposalIndex]) {\n    proposal.didPass = false;\n  }\n\n  // Checking quorum and majority and setting proposal fail if either of them is not reached\n  // Calculating total vote count\n  uint256 totalVotes = proposal.yesVote.add(proposal.noVote);\n  // Modify result to false if quorum is not reached\n  proposal.didPass = totalVotes.mul(100) > rDAO_totalShareSupply.mul(globalQuorum);\n  // Modifying result to false if majority is not reached\n  proposal.didPass = proposal.yesVote.div(totalVotes).mul(100) > globalMajority;\n\n  // Closing the proposal\n  proposal.isProposalOpen = false;\n\n  // Substracting requested share #of proposal from the current totalSharesRequested counter\n  totalSharesRequested = totalSharesRequested.sub(proposal.sharesRequested);\n\n  if (proposal.didPass == true) {\n    // Execution logic based on proposal type [proposal vs. application]\n    // IF proposal then send funds to proposer if didPass == true\n    // IF application then add applicant to members and mint his shares\n    //\n    // Proposal\n    if (proposal.isProposalOrApplication == true) {\n      // Send out funds to proposer\n      proposal.proposer.transfer(proposal.fundingGoal);\n    }\n    // Application\n    else if (proposal.isProposalOrApplication == false) {\n      // If member already exists\n      if (members[proposal.applicant].exists) {\n        // Adding new member shares\n        members[proposal.applicant].shares.add(proposal.sharesRequested);\n        // Emitting event\n        emit MemberReceivedNewShares(proposal.applicant, proposal.sharesRequested);\n      }\n      // If member does not exist\n      else  {\n        // Adding member to memberArray\n        memberArray.push(proposal.applicant);\n        // Adding member shares\n        members[proposal.applicant].shares = proposal.sharesRequested;\n        // Setting existance of member\n        members[proposal.applicant].exists = true;\n        // Emitting event of new joined member\n        emit MemberJoinedGuild(proposal.applicant, proposal.sharesRequested);\n      }\n    }\n  }\n  else if (proposal.didPass == false) {\n      // Pay back contribution made by proposal applicant\n      proposal.applicant.transfer(members[proposal.applicant].contribution);\n\n      // Pay back external contributors\n      /// @dev Needs implementation\n\n      if (proposal.isProposalOrApplication == false) {\n        // Emit event of failed application\n        emit MemberApplicationFailed(proposal.applicant, proposal.noVote, proposal.yesVote, proposal.noVote.add(proposal.yesVote));\n      }\n  }\n    // Return deposit to proposer\n    proposal.proposer.transfer(globalProposalDeposit);\n\n    // Emitting event\n    emit ProcessedProposal(proposal.proposalIndex, proposal.didPass);\n\n    // Paying processing reward to msg.sender\n    // Reentrancy protection - executing all state changes before transferring funds\n    msg.sender.call.value(globalProcessingReward);\n    // The 2 lines below are failing due to probable gas\n    //require(msg.sender.send(globalProcessingReward), \"rDAO::processProposal - Reward Transfer\");\n    //msg.sender.transfer(globalProcessingReward);\n}\n\n/// @notice Allows guild members to quit the guild if a voting would draw undesired outcome for them\n/// @dev not implemented yet\nfunction rageQuit() public memberOnly {}\n\n/// @notice Allows external contributors to fund a particular proposal\n/// @dev not implemented yet\nfunction externalFundProposal(uint256 _proposalIndex) public isValidProposalIndex(_proposalIndex) isProposalOpen(_proposalIndex) {}\n\n/// @notice Allows external contributors to fund the guild bank generally\n/// @dev not implemented yet\nfunction externalFundDAO() public {}\n\n// Getter functions\nfunction getMembers() public view returns(address[] memory) {\n  return memberArray;\n}\n\n// Allow contract to receive external general contributions that goes to the guild funds\n///@notice Fallback function for the contract\nfunction() external payable {}\n\n// Mortal function to shut down contract on upgrade and send all of its funds to the summoner adderess\nfunction shutDownDAO() public stopInEmergency isSummoner {\n    selfdestruct(globalSummonerAddress);\n}\n\n}",
  "sourcePath": "/Users/adr/Documents/GitHub/Bootcamp_FinalProject/Consensys-Bootcamp-Final-Project-researchDAO/contracts/researchDAO.sol",
  "compiler": {
    "name": "solc",
    "version": "0.5.0+commit.1d4f565a.Emscripten.clang"
  },
  "schemaVersion": "3.0.9",
  "updatedAt": "2019-07-31T17:40:52.521Z",
  "devdoc": {
    "methods": {
      "confirmApplication(uint256,bool)": {
        "params": {
          "_proposalIndex": "The index/ID of the proposal to vote on",
          "confirmation": "If confirms or not (true of false)"
        }
      },
      "constructor": {
        "params": {
          "_globalDilutionBound": "The number that prohibits extreme dilution of remaining members after a massive coordinated ragequit",
          "_globalMajority": "The majority percentage that is requirement for Yes votes to pass",
          "_globalProcessingReward": "The number that sets the reward value when a member processes an ended proposal",
          "_globalProposalDeposit": "The number that sets the required deposit upon proposal submission",
          "_globalQuorum": "The quorum percentage required for a vote to pass",
          "_globalRagequitPeriod": "The number which sets the ragequit period in seconds",
          "_globalVotingPeriod": "The number which sets the voting period in seconds",
          "_initialSharesRequested": "The number of the shares the summoner receives when summoning the DAO"
        }
      },
      "externalFundDAO()": {
        "details": "not implemented yet"
      },
      "externalFundProposal(uint256)": {
        "details": "not implemented yet"
      },
      "processProposal(uint256)": {
        "details": "If proposal fails need to transfer back external contributions",
        "params": {
          "_proposalIndex": "The index/ID of the proposal to process"
        }
      },
      "rageQuit()": {
        "details": "not implemented yet"
      },
      "submitProposal(bool,address,string,bytes32,uint256,uint256)": {
        "params": {
          "_applicant": "The address of the applying member",
          "_documentationAddress": "Hash address for the detailed documentation of the proposal",
          "_fundingGoal": "Funds required by the proposer to realize the research proposal",
          "_isProposalOrApplication": "Acts as a switch for deciding the proposal type: proposal for research OR proposal for new member application",
          "_sharesRequested": "New shares minted for the applying member",
          "_title": "The title of the submitted proposal"
        }
      },
      "submitVote(uint256,uint8)": {
        "params": {
          "_proposalIndex": "The index/ID of the proposal to vote on",
          "_uint8vote": "The vote - 0: Null, 1: Yes, 2: No"
        }
      }
    }
  },
  "userdoc": {
    "methods": {
      "confirmApplication(uint256,bool)": {
        "notice": "confirmApplication function to allow applicant confirm his application proposal"
      },
      "constructor": "Constructor function for summoning the DAO",
      "externalFundDAO()": {
        "notice": "Allows external contributors to fund the guild bank generally"
      },
      "externalFundProposal(uint256)": {
        "notice": "Allows external contributors to fund a particular proposal"
      },
      "processProposal(uint256)": {
        "notice": "processProposal processes an ended proposal and executes the proposed subject"
      },
      "rageQuit()": {
        "notice": "Allows guild members to quit the guild if a voting would draw undesired outcome for them"
      },
      "submitProposal(bool,address,string,bytes32,uint256,uint256)": {
        "notice": "submitProposal function creates a new proposal submitted by an existing member"
      },
      "submitVote(uint256,uint8)": {
        "notice": "submitVote function to cast a vote on a given proposal"
      }
    }
  }
}