{
  "contractName": "researchDAO",
  "abi": [
    {
      "constant": true,
      "inputs": [
        {
          "name": "",
          "type": "address"
        },
        {
          "name": "",
          "type": "uint256"
        }
      ],
      "name": "proposalsOfMembers",
      "outputs": [
        {
          "name": "",
          "type": "uint256"
        }
      ],
      "payable": false,
      "stateMutability": "view",
      "type": "function"
    },
    {
      "constant": true,
      "inputs": [
        {
          "name": "",
          "type": "address"
        }
      ],
      "name": "members",
      "outputs": [
        {
          "name": "shares",
          "type": "uint256"
        },
        {
          "name": "contribution",
          "type": "uint256"
        },
        {
          "name": "exists",
          "type": "bool"
        }
      ],
      "payable": false,
      "stateMutability": "view",
      "type": "function"
    },
    {
      "constant": true,
      "inputs": [],
      "name": "proposalCounter",
      "outputs": [
        {
          "name": "",
          "type": "uint256"
        }
      ],
      "payable": false,
      "stateMutability": "view",
      "type": "function"
    },
    {
      "constant": true,
      "inputs": [],
      "name": "totalSharesRequested",
      "outputs": [
        {
          "name": "",
          "type": "uint256"
        }
      ],
      "payable": false,
      "stateMutability": "view",
      "type": "function"
    },
    {
      "constant": true,
      "inputs": [],
      "name": "globalProcessingReward",
      "outputs": [
        {
          "name": "",
          "type": "uint256"
        }
      ],
      "payable": false,
      "stateMutability": "view",
      "type": "function"
    },
    {
      "constant": true,
      "inputs": [
        {
          "name": "",
          "type": "uint256"
        }
      ],
      "name": "proposalQueue",
      "outputs": [
        {
          "name": "proposalIndex",
          "type": "uint256"
        },
        {
          "name": "proposer",
          "type": "address"
        },
        {
          "name": "applicant",
          "type": "address"
        },
        {
          "name": "sharesRequested",
          "type": "uint256"
        },
        {
          "name": "title",
          "type": "string"
        },
        {
          "name": "documentationAddress",
          "type": "bytes32"
        },
        {
          "name": "fundingGoal",
          "type": "uint256"
        },
        {
          "name": "isProposalOpen",
          "type": "bool"
        },
        {
          "name": "creationTimestamp",
          "type": "uint256"
        },
        {
          "name": "yesVote",
          "type": "uint256"
        },
        {
          "name": "noVote",
          "type": "uint256"
        },
        {
          "name": "didPass",
          "type": "bool"
        },
        {
          "name": "externalFundsCollected",
          "type": "uint256"
        },
        {
          "name": "isProposalOrApplication",
          "type": "bool"
        }
      ],
      "payable": false,
      "stateMutability": "view",
      "type": "function"
    },
    {
      "constant": true,
      "inputs": [],
      "name": "rDAO_totalShareSupply",
      "outputs": [
        {
          "name": "",
          "type": "uint256"
        }
      ],
      "payable": false,
      "stateMutability": "view",
      "type": "function"
    },
    {
      "constant": true,
      "inputs": [],
      "name": "globalDilutionBound",
      "outputs": [
        {
          "name": "",
          "type": "uint8"
        }
      ],
      "payable": false,
      "stateMutability": "view",
      "type": "function"
    },
    {
      "constant": true,
      "inputs": [],
      "name": "globalQuorum",
      "outputs": [
        {
          "name": "",
          "type": "uint8"
        }
      ],
      "payable": false,
      "stateMutability": "view",
      "type": "function"
    },
    {
      "constant": true,
      "inputs": [],
      "name": "globalVotingPeriod",
      "outputs": [
        {
          "name": "",
          "type": "uint256"
        }
      ],
      "payable": false,
      "stateMutability": "view",
      "type": "function"
    },
    {
      "constant": true,
      "inputs": [],
      "name": "globalRagequitPeriod",
      "outputs": [
        {
          "name": "",
          "type": "uint256"
        }
      ],
      "payable": false,
      "stateMutability": "view",
      "type": "function"
    },
    {
      "constant": true,
      "inputs": [
        {
          "name": "",
          "type": "uint256"
        }
      ],
      "name": "memberArray",
      "outputs": [
        {
          "name": "",
          "type": "address"
        }
      ],
      "payable": false,
      "stateMutability": "view",
      "type": "function"
    },
    {
      "constant": true,
      "inputs": [],
      "name": "globalMajority",
      "outputs": [
        {
          "name": "",
          "type": "uint8"
        }
      ],
      "payable": false,
      "stateMutability": "view",
      "type": "function"
    },
    {
      "constant": true,
      "inputs": [
        {
          "name": "",
          "type": "uint256"
        }
      ],
      "name": "maxTotalSharesAtYesVote",
      "outputs": [
        {
          "name": "",
          "type": "uint256"
        }
      ],
      "payable": false,
      "stateMutability": "view",
      "type": "function"
    },
    {
      "constant": true,
      "inputs": [],
      "name": "globalSummonerAddress",
      "outputs": [
        {
          "name": "",
          "type": "address"
        }
      ],
      "payable": false,
      "stateMutability": "view",
      "type": "function"
    },
    {
      "constant": true,
      "inputs": [],
      "name": "globalProposalDeposit",
      "outputs": [
        {
          "name": "",
          "type": "uint256"
        }
      ],
      "payable": false,
      "stateMutability": "view",
      "type": "function"
    },
    {
      "constant": true,
      "inputs": [
        {
          "name": "_globalVotingPeriod",
          "type": "uint256"
        },
        {
          "name": "_globalRagequitPeriod",
          "type": "uint256"
        },
        {
          "name": "_globalProposalDeposit",
          "type": "uint256"
        },
        {
          "name": "_globalProcessingReward",
          "type": "uint256"
        },
        {
          "name": "_initialSharesRequested",
          "type": "uint256"
        },
        {
          "name": "_globalQuorum",
          "type": "uint8"
        },
        {
          "name": "_globalMajority",
          "type": "uint8"
        },
        {
          "name": "_globalDilutionBound",
          "type": "uint8"
        }
      ],
      "name": "globalSummoningTime",
      "outputs": [
        {
          "name": "",
          "type": "uint256"
        }
      ],
      "payable": false,
      "stateMutability": "view",
      "type": "function"
    },
    {
      "inputs": [
        {
          "name": "_globalVotingPeriod",
          "type": "uint256"
        },
        {
          "name": "_globalRagequitPeriod",
          "type": "uint256"
        },
        {
          "name": "_globalProposalDeposit",
          "type": "uint256"
        },
        {
          "name": "_globalProcessingReward",
          "type": "uint256"
        },
        {
          "name": "_initialSharesRequested",
          "type": "uint256"
        },
        {
          "name": "_globalQuorum",
          "type": "uint8"
        },
        {
          "name": "_globalMajority",
          "type": "uint8"
        },
        {
          "name": "_globalDilutionBound",
          "type": "uint8"
        }
      ],
      "payable": false,
      "stateMutability": "nonpayable",
      "type": "constructor"
    },
    {
      "payable": true,
      "stateMutability": "payable",
      "type": "fallback",
      "anonymous": false,
      "inputs": [
        {
          "indexed": false,
          "name": "summoner",
          "type": "address"
        },
        {
          "indexed": false,
          "name": "initialShares",
          "type": "uint256"
        }
      ],
      "name": "Summoned"
    },
    {
      "anonymous": false,
      "inputs": [
        {
          "indexed": false,
          "name": "summoner",
          "type": "address"
        },
        {
          "indexed": false,
          "name": "initialShares",
          "type": "uint256"
        },
        {
          "indexed": false,
          "name": "title",
          "type": "string"
        },
        {
          "indexed": false,
          "name": "documentationAddress",
          "type": "bytes32"
        },
        {
          "indexed": false,
          "name": "isProposalOrApplication",
          "type": "bool"
        }
      ],
      "name": "Summoned",
      "type": "event"
    },
    {
      "anonymous": false,
      "inputs": [
        {
          "indexed": false,
          "name": "proposalIndex",
          "type": "uint256"
        },
        {
          "indexed": false,
          "name": "proposer",
          "type": "address"
        },
        {
          "indexed": false,
          "name": "title",
          "type": "string"
        },
        {
          "indexed": false,
          "name": "documentationAddress",
          "type": "bytes32"
        },
        {
          "indexed": false,
          "name": "isProposalOrApplication",
          "type": "bool"
        }
      ],
      "name": "SubmittedProposal",
      "type": "event"
    },
    {
      "anonymous": false,
      "inputs": [
        {
          "indexed": false,
          "name": "proposalIndex",
          "type": "uint256"
        },
        {
          "indexed": false,
          "name": "confirmation",
          "type": "bool"
        },
        {
          "indexed": false,
          "name": "vote",
          "type": "uint8"
        }
      ],
      "name": "ConfirmedApplication",
      "type": "event"
    },
    {
      "anonymous": false,
      "inputs": [
        {
          "indexed": false,
          "name": "proposalIndex",
          "type": "uint256"
        },
        {
          "indexed": false,
          "name": "voter",
          "type": "address"
        },
        {
          "indexed": false,
          "name": "vote",
          "type": "uint8"
        }
      ],
      "name": "SubmittedVote",
      "type": "event"
    },
    {
      "anonymous": false,
      "inputs": [
        {
          "indexed": false,
          "name": "proposalIndex",
          "type": "uint256"
        },
        {
          "indexed": false,
          "name": "didPass",
          "type": "bool"
        }
      ],
      "name": "ProcessedProposal",
      "type": "event"
    },
    {
      "anonymous": false,
      "inputs": [
        {
          "indexed": false,
          "name": "applicant",
          "type": "address"
        },
        {
          "indexed": false,
          "name": "sharesMinted",
          "type": "uint256"
        }
      ],
      "name": "MemberJoinedGuild",
      "type": "event"
    },
    {
      "anonymous": false,
      "inputs": [
        {
          "indexed": false,
          "name": "applicant",
          "type": "address"
        },
        {
          "indexed": false,
          "name": "sharesRequested",
          "type": "uint256"
        },
        {
          "indexed": false,
          "name": "yesVotes",
          "type": "uint256"
        },
        {
          "indexed": false,
          "name": "totalVotes",
          "type": "uint256"
        }
      ],
      "name": "MemberReceivedNewShares",
      "type": "event"
    },
    {
      "anonymous": false,
      "inputs": [
        {
          "indexed": false,
          "name": "applicant",
          "type": "address"
        },
        {
          "indexed": false,
          "name": "noVotes",
          "type": "uint256"
        },
        {
          "indexed": false,
          "name": "yesVotes",
          "type": "uint256"
        },
        {
          "indexed": false,
          "name": "totalVotes",
          "type": "uint256"
        }
      ],
      "name": "MemberApplicationFailed",
      "type": "event"
    },
    {
      "anonymous": false,
      "inputs": [],
      "name": "ExternalFundGuild",
      "type": "event"
    },
    {
      "anonymous": false,
      "inputs": [],
      "name": "ExternalFundProposal",
      "type": "event"
    },
    {
      "constant": false,
      "inputs": [],
      "name": "RageQuit",
      "outputs": [],
      "payable": false,
      "stateMutability": "nonpayable",
      "type": "event",
      "anonymous": false
    },
    {
      "constant": false,
      "inputs": [
        {
          "name": "_isProposalOrApplication",
          "type": "bool"
        },
        {
          "name": "_applicant",
          "type": "address"
        },
        {
          "name": "_title",
          "type": "string"
        },
        {
          "name": "_documentationAddress",
          "type": "bytes32"
        },
        {
          "name": "_fundingGoal",
          "type": "uint256"
        },
        {
          "name": "_sharesRequested",
          "type": "uint256"
        }
      ],
      "name": "toggleContractFreeze",
      "outputs": [],
      "payable": false,
      "stateMutability": "nonpayable",
      "type": "function"
    },
    {
      "constant": false,
      "inputs": [
        {
          "name": "_isProposalOrApplication",
          "type": "bool"
        },
        {
          "name": "_applicant",
          "type": "address"
        },
        {
          "name": "_title",
          "type": "string"
        },
        {
          "name": "_documentationAddress",
          "type": "bytes32"
        },
        {
          "name": "_fundingGoal",
          "type": "uint256"
        },
        {
          "name": "_sharesRequested",
          "type": "uint256"
        }
      ],
      "name": "submitProposal",
      "outputs": [],
      "payable": true,
      "stateMutability": "payable",
      "type": "function"
    },
    {
      "constant": false,
      "inputs": [
        {
          "name": "_proposalIndex",
          "type": "uint256"
        },
        {
          "name": "confirmation",
          "type": "bool"
        }
      ],
      "name": "confirmApplication",
      "outputs": [],
      "payable": true,
      "stateMutability": "payable",
      "type": "function"
    },
    {
      "constant": false,
      "inputs": [
        {
          "name": "_proposalIndex",
          "type": "uint256"
        },
        {
          "name": "_uint8vote",
          "type": "uint8"
        }
      ],
      "name": "submitVote",
      "outputs": [],
      "payable": false,
      "stateMutability": "nonpayable",
      "type": "function"
    },
    {
      "constant": false,
      "inputs": [
        {
          "name": "_proposalIndex",
          "type": "uint256"
        }
      ],
      "name": "processProposal",
      "outputs": [],
      "payable": false,
      "stateMutability": "nonpayable",
      "type": "function"
    },
    {
      "constant": false,
      "inputs": [
        {
          "name": "_proposalIndex",
          "type": "uint256"
        }
      ],
      "name": "rageQuit",
      "outputs": [],
      "payable": false,
      "stateMutability": "nonpayable",
      "type": "function"
    },
    {
      "constant": false,
      "inputs": [
        {
          "name": "_proposalIndex",
          "type": "uint256"
        }
      ],
      "name": "externalFundProposal",
      "outputs": [],
      "payable": false,
      "stateMutability": "nonpayable",
      "type": "function"
    },
    {
      "constant": false,
      "inputs": [],
      "name": "externalFundDAO",
      "outputs": [],
      "payable": false,
      "stateMutability": "nonpayable",
      "type": "function"
    },
    {
      "constant": false,
      "inputs": [],
      "name": "shutDownDAO",
      "outputs": [],
      "payable": false,
      "stateMutability": "nonpayable",
      "type": "function"
    }
  ],
  "bytecode": "0x60806040526000600e60006101000a81548160ff0219169083151502179055503480156200002c57600080fd5b5060405161010080620044c383398101806040526101008110156200005057600080fd5b81019080805190602001909291908051906020019092919080519060200190929190805190602001909291908051906020019092919080519060200190929190805190602001909291908051906020019092919050505060008811151562000146576040517f08c379a00000000000000000000000000000000000000000000000000000000081526004018080602001828103825260308152602001807f7244414f3a3a636f6e7374727563746f72202d20566f74696e6720706572696f81526020017f642063616e6e6f74206265207a65726f0000000000000000000000000000000081525060400191505060405180910390fd5b670de0b6b3a76400008811151515620001ed576040517f08c379a00000000000000000000000000000000000000000000000000000000081526004018080602001828103825260368152602001807f7244414f3a3a636f6e7374727563746f72202d20566f74696e6720706572696f81526020017f64206973206f7574206f6620626f756e6461726965730000000000000000000081525060400191505060405180910390fd5b6000871115156200028c576040517f08c379a00000000000000000000000000000000000000000000000000000000081526004018080602001828103825260328152602001807f7244414f3a3a636f6e7374727563746f72202d2052616765717569742070657281526020017f696f642063616e6e6f74206265207a65726f000000000000000000000000000081525060400191505060405180910390fd5b670de0b6b3a7640000871115151562000333576040517f08c379a00000000000000000000000000000000000000000000000000000000081526004018080602001828103825260388152602001807f7244414f3a3a636f6e7374727563746f72202d2052616765717569742070657281526020017f696f64206973206f7574206f6620626f756e646172696573000000000000000081525060400191505060405180910390fd5b600086111515620003d2576040517f08c379a000000000000000000000000000000000000000000000000000000000815260040180806020018281038252603f8152602001807f7244414f3a3a636f6e7374727563746f72202d2050726f706f73616c2064657081526020017f6f7369742063616e6e6f74206265206e65676174697665206f72207a65726f0081525060400191505060405180910390fd5b670de0b6b3a7640000861115151562000479576040517f08c379a00000000000000000000000000000000000000000000000000000000081526004018080602001828103825260398152602001807f7244414f3a3a636f6e7374727563746f72202d2050726f706f73616c2064657081526020017f6f736974206973206f7574206f6620626f756e6461726965730000000000000081525060400191505060405180910390fd5b6000851115156200053e576040517f08c379a000000000000000000000000000000000000000000000000000000000815260040180806020018281038252604b8152602001807f7244414f3a3a636f6e7374727563746f72202d2050726f63657373696e67207281526020017f65776172642063616e2774206265207a65726f2e20497420736572766573206181526020017f7320696e63656e7469766500000000000000000000000000000000000000000081525060600191505060405180910390fd5b670de0b6b3a76400008511151515620005e5576040517f08c379a000000000000000000000000000000000000000000000000000000000815260040180806020018281038252603a8152602001807f7244414f3a3a636f6e7374727563746f72202d2050726f63657373696e67207281526020017f6577617264206973206f7574206f6620626f756e64617269657300000000000081525060400191505060405180910390fd5b60008411151562000684576040517f08c379a000000000000000000000000000000000000000000000000000000000815260040180806020018281038252603c8152602001807f7244414f3a3a636f6e7374727563746f72202d20496e697469616c6c7920726581526020017f717565737465642073686172652063616e2774206265207a65726f2e0000000081525060400191505060405180910390fd5b670de0b6b3a7640000841115151562000751576040517f08c379a00000000000000000000000000000000000000000000000000000000081526004018080602001828103825260428152602001807f7244414f3a3a636f6e7374727563746f72202d20496e697469616c6c7920726581526020017f71756573746564207368617265206973206f7574206f6620626f756e6461726981526020017f657300000000000000000000000000000000000000000000000000000000000081525060600191505060405180910390fd5b60008360ff16111515620007f3576040517f08c379a00000000000000000000000000000000000000000000000000000000081526004018080602001828103825260298152602001807f7244414f3a3a636f6e7374727563746f72202d2051756f72756d2063616e277481526020017f206265207a65726f2e000000000000000000000000000000000000000000000081525060400191505060405180910390fd5b606460ff168360ff161115151562000899576040517f08c379a000000000000000000000000000000000000000000000000000000000815260040180806020018281038252602f8152602001807f7244414f3a3a636f6e7374727563746f72202d2051756f72756d206973206f7581526020017f74206f6620626f756e646172696573000000000000000000000000000000000081525060400191505060405180910390fd5b60008260ff161115156200093b576040517f08c379a000000000000000000000000000000000000000000000000000000000815260040180806020018281038252602b8152602001807f7244414f3a3a636f6e7374727563746f72202d204d616a6f726974792063616e81526020017f2774206265207a65726f2e00000000000000000000000000000000000000000081525060400191505060405180910390fd5b606460ff168260ff1611151515620009e1576040517f08c379a00000000000000000000000000000000000000000000000000000000081526004018080602001828103825260318152602001807f7244414f3a3a636f6e7374727563746f72202d204d616a6f726974792069732081526020017f6f7574206f6620626f756e64617269657300000000000000000000000000000081525060400191505060405180910390fd5b60008160ff1611151562000a83576040517f08c379a00000000000000000000000000000000000000000000000000000000081526004018080602001828103825260318152602001807f7244414f3a3a636f6e7374727563746f72202d2044696c7574696f6e20626f7581526020017f6e642063616e2774206265207a65726f2e00000000000000000000000000000081525060400191505060405180910390fd5b606460ff168160ff161115151562000b29576040517f08c379a00000000000000000000000000000000000000000000000000000000081526004018080602001828103825260378152602001807f7244414f3a3a636f6e7374727563746f72202d2044696c7574696f6e20626f7581526020017f6e64206973206f7574206f6620626f756e64617269657300000000000000000081525060400191505060405180910390fd5b876000819055508660018190555062000b62670de0b6b3a76400008762000deb6401000000000262003321179091906401000000009004565b60028190555062000b93670de0b6b3a76400008662000deb6401000000000262003321179091906401000000009004565b60038190555082600560146101000a81548160ff021916908360ff16021790555081600560156101000a81548160ff021916908360ff16021790555080600560166101000a81548160ff021916908360ff16021790555033600560006101000a81548173ffffffffffffffffffffffffffffffffffffffff021916908373ffffffffffffffffffffffffffffffffffffffff16021790555060073390806001815401808255809150509060018203906000526020600020016000909192909190916101000a81548173ffffffffffffffffffffffffffffffffffffffff021916908373ffffffffffffffffffffffffffffffffffffffff1602179055505083600660003373ffffffffffffffffffffffffffffffffffffffff1673ffffffffffffffffffffffffffffffffffffffff16815260200190815260200160002060000181905550600660003373ffffffffffffffffffffffffffffffffffffffff1673ffffffffffffffffffffffffffffffffffffffff16815260200190815260200160002060000154600c819055504260048190555060006008819055507f0e8aa7f796bed52c73f9870426b0a412b431824dadecf05d1ea47c409f84425e33600660003373ffffffffffffffffffffffffffffffffffffffff1673ffffffffffffffffffffffffffffffffffffffff16815260200190815260200160002060000154604051808373ffffffffffffffffffffffffffffffffffffffff1673ffffffffffffffffffffffffffffffffffffffff1681526020018281526020019250505060405180910390a1505050505050505062000ebc565b60008083141562000e00576000905062000eb6565b6000828402905082848281151562000e1457fe5b0414151562000eb1576040517f08c379a00000000000000000000000000000000000000000000000000000000081526004018080602001828103825260218152602001807f536166654d6174683a206d756c7469706c69636174696f6e206f766572666c6f81526020017f770000000000000000000000000000000000000000000000000000000000000081525060400191505060405180910390fd5b809150505b92915050565b6135f78062000ecc6000396000f3fe608060405260043610610154576000357c0100000000000000000000000000000000000000000000000000000000900463ffffffff16806307f733d21461015657806308ae4b0c146101c55780630a7512251461023c5780630c0512e9146102535780631a396a4a1461027e5780632efea6d8146102a957806334be9ffb146102d45780633b214a741461030e57806351e6ba1d146104815780636a5e46281461049857806377ff7036146104af578063889229df146104da5780638b594efc1461050b57806399653fbe1461053c578063b0ccbf8c14610584578063bcb2f8c61461059b578063bf6a32b0146105d6578063c58b4bc014610601578063c726dea81461062c578063d055cde4146106a7578063d3f4e514146106d8578063d7ac30b4146107dd578063e143d1991461082c578063e63bc62d14610883578063f1662e6d146108be578063ffa1345b146108e9575b005b34801561016257600080fd5b506101af6004803603604081101561017957600080fd5b81019080803573ffffffffffffffffffffffffffffffffffffffff16906020019092919080359060200190929190505050610914565b6040518082815260200191505060405180910390f35b3480156101d157600080fd5b50610214600480360360208110156101e857600080fd5b81019080803573ffffffffffffffffffffffffffffffffffffffff169060200190929190505050610944565b6040518084815260200183815260200182151515158152602001935050505060405180910390f35b34801561024857600080fd5b5061025161097b565b005b34801561025f57600080fd5b50610268610ab9565b6040518082815260200191505060405180910390f35b34801561028a57600080fd5b50610293610abf565b6040518082815260200191505060405180910390f35b3480156102b557600080fd5b506102be610ac5565b6040518082815260200191505060405180910390f35b61030c600480360360408110156102ea57600080fd5b8101908080359060200190929190803515159060200190929190505050610acb565b005b34801561031a57600080fd5b506103476004803603602081101561033157600080fd5b8101908080359060200190929190505050610fe1565b604051808f81526020018e73ffffffffffffffffffffffffffffffffffffffff1673ffffffffffffffffffffffffffffffffffffffff1681526020018d73ffffffffffffffffffffffffffffffffffffffff1673ffffffffffffffffffffffffffffffffffffffff1681526020018c8152602001806020018b81526020018a815260200189151515158152602001888152602001878152602001868152602001851515151581526020018481526020018315151515815260200182810382528c818151815260200191508051906020019080838360005b8381101561043957808201518184015260208101905061041e565b50505050905090810190601f1680156104665780820380516001836020036101000a031916815260200191505b509f5050505050505050505050505050505060405180910390f35b34801561048d57600080fd5b5061049661115b565b005b3480156104a457600080fd5b506104ad611272565b005b3480156104bb57600080fd5b506104c4611274565b6040518082815260200191505060405180910390f35b3480156104e657600080fd5b506104ef61127a565b604051808260ff1660ff16815260200191505060405180910390f35b34801561051757600080fd5b5061052061128d565b604051808260ff1660ff16815260200191505060405180910390f35b34801561054857600080fd5b506105826004803603604081101561055f57600080fd5b8101908080359060200190929190803560ff1690602001909291905050506112a0565b005b34801561059057600080fd5b50610599611a1d565b005b3480156105a757600080fd5b506105d4600480360360208110156105be57600080fd5b8101908080359060200190929190505050611aff565b005b3480156105e257600080fd5b506105eb611cae565b6040518082815260200191505060405180910390f35b34801561060d57600080fd5b50610616611cb4565b6040518082815260200191505060405180910390f35b34801561063857600080fd5b506106656004803603602081101561064f57600080fd5b8101908080359060200190929190505050611cba565b604051808273ffffffffffffffffffffffffffffffffffffffff1673ffffffffffffffffffffffffffffffffffffffff16815260200191505060405180910390f35b3480156106b357600080fd5b506106bc611cf8565b604051808260ff1660ff16815260200191505060405180910390f35b6107db600480360360c08110156106ee57600080fd5b81019080803515159060200190929190803573ffffffffffffffffffffffffffffffffffffffff1690602001909291908035906020019064010000000081111561073757600080fd5b82018360208201111561074957600080fd5b8035906020019184600183028401116401000000008311171561076b57600080fd5b91908080601f016020809104026020016040519081016040528093929190818152602001838380828437600081840152601f19601f820116905080830192505050505050509192919290803590602001909291908035906020019092919080359060200190929190505050611d0b565b005b3480156107e957600080fd5b506108166004803603602081101561080057600080fd5b810190808035906020019092919050505061264c565b6040518082815260200191505060405180910390f35b34801561083857600080fd5b50610841612664565b604051808273ffffffffffffffffffffffffffffffffffffffff1673ffffffffffffffffffffffffffffffffffffffff16815260200191505060405180910390f35b34801561088f57600080fd5b506108bc600480360360208110156108a657600080fd5b810190808035906020019092919050505061268a565b005b3480156108ca57600080fd5b506108d3613200565b6040518082815260200191505060405180910390f35b3480156108f557600080fd5b506108fe613206565b6040518082815260200191505060405180910390f35b600a6020528160005260406000208181548110151561092f57fe5b90600052602060002001600091509150505481565b60066020528060005260406000206000915090508060000154908060010154908060020160009054906101000a900460ff16905083565b600e60009054906101000a900460ff161515610ab757600560009054906101000a900473ffffffffffffffffffffffffffffffffffffffff1673ffffffffffffffffffffffffffffffffffffffff163373ffffffffffffffffffffffffffffffffffffffff16141515610a7c576040517f08c379a00000000000000000000000000000000000000000000000000000000081526004018080602001828103825260328152602001807f7244414f3a3a697353756d6d6f6e6572202d206e6f74207468652073756d6d6f81526020017f6e6572206f6620726573656172636844414f000000000000000000000000000081525060400191505060405180910390fd5b600560009054906101000a900473ffffffffffffffffffffffffffffffffffffffff1673ffffffffffffffffffffffffffffffffffffffff16ff5b565b60085481565b600d5481565b60035481565b816008548111151515610b92576040517f08c379a00000000000000000000000000000000000000000000000000000000081526004018080602001828103825260498152602001807f7244414f3a3a70726f6365737350726f706f73616c202d2070726f706f73616c81526020017f496e646578206973206e6f742076616c69642c206e6f74206578697374696e6781526020017f2070726f706f73616c000000000000000000000000000000000000000000000081525060600191505060405180910390fd5b60006009610baa60018661320c90919063ffffffff16565b815481101515610bb657fe5b90600052602060002090600f020190506000151581600e0160009054906101000a900460ff161515141515610c79576040517f08c379a00000000000000000000000000000000000000000000000000000000081526004018080602001828103825260398152602001807f7244414f3a3a636f6e6669726d4170706c69636174696f6e202d2050726f706f81526020017f73616c206973206e6f7420616e206170706c69636174696f6e0000000000000081525060400191505060405180910390fd5b8060020160009054906101000a900473ffffffffffffffffffffffffffffffffffffffff1673ffffffffffffffffffffffffffffffffffffffff163373ffffffffffffffffffffffffffffffffffffffff16141515610d8c576040517f08c379a00000000000000000000000000000000000000000000000000000000081526004018080602001828103825260468152602001807f7244414f3a3a636f6e6669726d4170706c69636174696f6e202d2043616e206f81526020017f6e6c792062652063616c6c65642066726f6d206170706c6963616e742773206181526020017f646472657373000000000000000000000000000000000000000000000000000081525060600191505060405180910390fd5b600015158160070160009054906101000a900460ff161515141515610e3f576040517f08c379a000000000000000000000000000000000000000000000000000000000815260040180806020018281038252603e8152602001807f7244414f3a3a636f6e6669726d4170706c69636174696f6e202d2050726f706f81526020017f73616c20686173206265656e20616c726561647920636f6e6669726d6564000081525060400191505060405180910390fd5b60008160080154610e5b6000544261320c90919063ffffffff16565b10905060011515811515141515610f26576040517f08c379a00000000000000000000000000000000000000000000000000000000081526004018080602001828103825260528152602001807f7244414f3a3a636f6e6669726d4170706c69636174696f6e202d2070726f706f81526020017f73616c20706572696f6420656e6465642c206e6f206c6f6e676572206163636581526020017f70747320636f6e6669726d6174696f6e732e000000000000000000000000000081525060600191505060405180910390fd5b600115158415151415610fda57838260070160006101000a81548160ff02191690831515021790555034600660003373ffffffffffffffffffffffffffffffffffffffff1673ffffffffffffffffffffffffffffffffffffffff168152602001908152602001600020600101819055507fbb8f1823466b39979f6e956d33e4625dcc915656daf9de09055bfd48ad3e5f88858560405180838152602001821515151581526020019250505060405180910390a15b5050505050565b600981815481101515610ff057fe5b90600052602060002090600f02016000915090508060000154908060010160009054906101000a900473ffffffffffffffffffffffffffffffffffffffff16908060020160009054906101000a900473ffffffffffffffffffffffffffffffffffffffff1690806003015490806004018054600181600116156101000203166002900480601f0160208091040260200160405190810160405280929190818152602001828054600181600116156101000203166002900480156110f45780601f106110c9576101008083540402835291602001916110f4565b820191906000526020600020905b8154815290600101906020018083116110d757829003601f168201915b5050505050908060050154908060060154908060070160009054906101000a900460ff169080600801549080600a01549080600b01549080600c0160009054906101000a900460ff169080600d01549080600e0160009054906101000a900460ff1690508e565b600560009054906101000a900473ffffffffffffffffffffffffffffffffffffffff1673ffffffffffffffffffffffffffffffffffffffff163373ffffffffffffffffffffffffffffffffffffffff16141515611246576040517f08c379a00000000000000000000000000000000000000000000000000000000081526004018080602001828103825260328152602001807f7244414f3a3a697353756d6d6f6e6572202d206e6f74207468652073756d6d6f81526020017f6e6572206f6620726573656172636844414f000000000000000000000000000081525060400191505060405180910390fd5b600e60009054906101000a900460ff1615600e60006101000a81548160ff021916908315150217905550565b565b600c5481565b600560169054906101000a900460ff1681565b600560149054906101000a900460ff1681565b6000600660003373ffffffffffffffffffffffffffffffffffffffff1673ffffffffffffffffffffffffffffffffffffffff16815260200190815260200160002060000154111515611380576040517f08c379a000000000000000000000000000000000000000000000000000000000815260040180806020018281038252602e8152602001807f7244414f3a3a6d656d6265724f6e6c79202d206e6f742061206d656d6265722081526020017f6f6620726573656172636844414f00000000000000000000000000000000000081525060400191505060405180910390fd5b816008548111151515611447576040517f08c379a00000000000000000000000000000000000000000000000000000000081526004018080602001828103825260498152602001807f7244414f3a3a70726f6365737350726f706f73616c202d2070726f706f73616c81526020017f496e646578206973206e6f742076616c69642c206e6f74206578697374696e6781526020017f2070726f706f73616c000000000000000000000000000000000000000000000081525060600191505060405180910390fd5b8260011515600961146260018461320c90919063ffffffff16565b81548110151561146e57fe5b90600052602060002090600f020160070160009054906101000a900460ff16151514151561152a576040517f08c379a000000000000000000000000000000000000000000000000000000000815260040180806020018281038252602f8152602001807f7244414f3a3a636f6e6669726d4170706c69636174696f6e202d2050726f706f81526020017f73616c206973206e6f74206f70656e000000000000000000000000000000000081525060400191505060405180910390fd5b6000600961154260018761320c90919063ffffffff16565b81548110151561154e57fe5b90600052602060002090600f020190506000816008015461157a6000544261320c90919063ffffffff16565b10905060011515811515141515611645576040517f08c379a000000000000000000000000000000000000000000000000000000000815260040180806020018281038252605c8152602001807f7244414f3a3a7375626d6974566f7465202d2070726f706f73616c207065726981526020017f6f6420656e6465642c206e6f206c6f6e676572206163636570747320766f746581526020017f732e2054696d6520746f2070726f6365737350726f706f73616c28290000000081525060600191505060405180910390fd5b60038560ff161015156116e6576040517f08c379a00000000000000000000000000000000000000000000000000000000081526004018080602001828103825260318152602001807f7244414f3a3a7375626d6974566f7465202d205f75696e7438766f7465206d7581526020017f7374206265206c657373207468616e203300000000000000000000000000000081525060400191505060405180910390fd5b60008560ff1660028111156116f757fe5b90506000600281111561170657fe5b8360090160003373ffffffffffffffffffffffffffffffffffffffff1673ffffffffffffffffffffffffffffffffffffffff16815260200190815260200160002060009054906101000a900460ff16600281111561176057fe5b1415156117fb576040517f08c379a00000000000000000000000000000000000000000000000000000000081526004018080602001828103825260278152602001807f7244414f3a3a7375626d6974566f7465202d206d656d62657220616c7265616481526020017f7920766f7465640000000000000000000000000000000000000000000000000081525060400191505060405180910390fd5b808360090160003373ffffffffffffffffffffffffffffffffffffffff1673ffffffffffffffffffffffffffffffffffffffff16815260200190815260200160002060006101000a81548160ff0219169083600281111561185857fe5b02179055506001600281111561186a57fe5b81600281111561187657fe5b141561191a576118d5600660003373ffffffffffffffffffffffffffffffffffffffff1673ffffffffffffffffffffffffffffffffffffffff1681526020019081526020016000206000015484600a015461329790919063ffffffff16565b83600a0181905550600b600088815260200190815260200160002054600c54111561191557600c54600b6000898152602001908152602001600020819055505b61199b565b60028081111561192657fe5b81600281111561193257fe5b141561199a57611991600660003373ffffffffffffffffffffffffffffffffffffffff1673ffffffffffffffffffffffffffffffffffffffff1681526020019081526020016000206000015484600b015461329790919063ffffffff16565b83600b01819055505b5b7f25a0c31eb8e3cc4efdd26be8ef3500e0bac7e9743fbb14a4a105653e862c26d1873388604051808481526020018373ffffffffffffffffffffffffffffffffffffffff1673ffffffffffffffffffffffffffffffffffffffff1681526020018260ff1660ff168152602001935050505060405180910390a150505050505050565b6000600660003373ffffffffffffffffffffffffffffffffffffffff1673ffffffffffffffffffffffffffffffffffffffff16815260200190815260200160002060000154111515611afd576040517f08c379a000000000000000000000000000000000000000000000000000000000815260040180806020018281038252602e8152602001807f7244414f3a3a6d656d6265724f6e6c79202d206e6f742061206d656d6265722081526020017f6f6620726573656172636844414f00000000000000000000000000000000000081525060400191505060405180910390fd5b565b806008548111151515611bc6576040517f08c379a00000000000000000000000000000000000000000000000000000000081526004018080602001828103825260498152602001807f7244414f3a3a70726f6365737350726f706f73616c202d2070726f706f73616c81526020017f496e646578206973206e6f742076616c69642c206e6f74206578697374696e6781526020017f2070726f706f73616c000000000000000000000000000000000000000000000081525060600191505060405180910390fd5b81600115156009611be160018461320c90919063ffffffff16565b815481101515611bed57fe5b90600052602060002090600f020160070160009054906101000a900460ff161515141515611ca9576040517f08c379a000000000000000000000000000000000000000000000000000000000815260040180806020018281038252602f8152602001807f7244414f3a3a636f6e6669726d4170706c69636174696f6e202d2050726f706f81526020017f73616c206973206e6f74206f70656e000000000000000000000000000000000081525060400191505060405180910390fd5b505050565b60005481565b60015481565b600781815481101515611cc957fe5b906000526020600020016000915054906101000a900473ffffffffffffffffffffffffffffffffffffffff1681565b600560159054906101000a900460ff1681565b6000600660003373ffffffffffffffffffffffffffffffffffffffff1673ffffffffffffffffffffffffffffffffffffffff16815260200190815260200160002060000154111515611deb576040517f08c379a000000000000000000000000000000000000000000000000000000000815260040180806020018281038252602e8152602001807f7244414f3a3a6d656d6265724f6e6c79202d206e6f742061206d656d6265722081526020017f6f6620726573656172636844414f00000000000000000000000000000000000081525060400191505060405180910390fd5b600e60009054906101000a900460ff16151561264457600060025434141515611ec8576040517f08c379a00000000000000000000000000000000000000000000000000000000081526004018080602001828103825260438152602001807f7244414f3a3a7375626d697450726f706f73616c202d2050726f706f73616c2081526020017f6465706f736974206973206e6f7420657175616c20746f20726571756972656d81526020017f656e74000000000000000000000000000000000000000000000000000000000081525060600191505060405180910390fd5b6000602060ff16111515611f6a576040517f08c379a00000000000000000000000000000000000000000000000000000000081526004018080602001828103825260388152602001807f7244414f3a3a7375626d697450726f706f73616c202d2041747461636865642081526020017f646f63756d656e746174696f6e206973206d697373696e67000000000000000081525060400191505060405180910390fd5b6001151587151514156120c457600083111515612015576040517f08c379a00000000000000000000000000000000000000000000000000000000081526004018080602001828103825260328152602001807f7244414f3a3a7375626d697450726f706f73616c202d2046756e64696e67206781526020017f6f616c2063616e6e6f74206265207a65726f000000000000000000000000000081525060400191505060405180910390fd5b670de0b6b3a764000083111515156120bb576040517f08c379a00000000000000000000000000000000000000000000000000000000081526004018080602001828103825260388152602001807f7244414f3a3a7375626d697450726f706f73616c202d2046756e64696e67206781526020017f6f616c206973206f7574206f6620626f756e646172696573000000000000000081525060400191505060405180910390fd5b60009150600190505b60001515871515141561224c5760008211151561216f576040517f08c379a00000000000000000000000000000000000000000000000000000000081526004018080602001828103825260368152602001807f7244414f3a3a7375626d697450726f706f73616c202d2053686172657320726581526020017f717565737465642063616e6e6f74206265207a65726f0000000000000000000081525060400191505060405180910390fd5b600061219a600d5461218c600c548661329790919063ffffffff16565b61329790919063ffffffff16565b9050670de0b6b3a76400008111151515612242576040517f08c379a000000000000000000000000000000000000000000000000000000000815260040180806020018281038252603c8152602001807f7244414f3a3a7375626d697450726f706f73616c202d2053686172657320726581526020017f71756573746564206973206f7574206f6620626f756e6461726965730000000081525060400191505060405180910390fd5b6000935060009150505b6000612264600160085461329790919063ffffffff16565b905061227c600160085461329790919063ffffffff16565b60088190555061228a613481565b6101c0604051908101604052808381526020013373ffffffffffffffffffffffffffffffffffffffff1681526020018973ffffffffffffffffffffffffffffffffffffffff16815260200185815260200188815260200187815260200186815260200184151581526020014281526020016000815260200160008152602001600015158152602001600081526020018a15158152509050881515612348576123418160600151600d5461329790919063ffffffff16565b600d819055505b6009819080600181540180825580915050906001820390600052602060002090600f0201600090919290919091506000820151816000015560208201518160010160006101000a81548173ffffffffffffffffffffffffffffffffffffffff021916908373ffffffffffffffffffffffffffffffffffffffff16021790555060408201518160020160006101000a81548173ffffffffffffffffffffffffffffffffffffffff021916908373ffffffffffffffffffffffffffffffffffffffff160217905550606082015181600301556080820151816004019080519060200190612434929190613526565b5060a0820151816005015560c0820151816006015560e08201518160070160006101000a81548160ff021916908315150217905550610100820151816008015561012082015181600a015561014082015181600b015561016082015181600c0160006101000a81548160ff02191690831515021790555061018082015181600d01556101a082015181600e0160006101000a81548160ff021916908315150217905550505050600a60003373ffffffffffffffffffffffffffffffffffffffff1673ffffffffffffffffffffffffffffffffffffffff1681526020019081526020016000208290806001815401808255809150509060018203906000526020600020016000909192909190915055507f5112e1fd2fccbfb994e10502638ec30741ddd29d276dcee5a7eefb22aea8a54381600001513383608001518460a00151856101a00151604051808681526020018573ffffffffffffffffffffffffffffffffffffffff1673ffffffffffffffffffffffffffffffffffffffff1681526020018060200184815260200183151515158152602001828103825285818151815260200191508051906020019080838360005b838110156126025780820151818401526020810190506125e7565b50505050905090810190601f16801561262f5780820380516001836020036101000a031916815260200191505b50965050505050505060405180910390a15050505b505050505050565b600b6020528060005260406000206000915090505481565b600560009054906101000a900473ffffffffffffffffffffffffffffffffffffffff1681565b6000600660003373ffffffffffffffffffffffffffffffffffffffff1673ffffffffffffffffffffffffffffffffffffffff1681526020019081526020016000206000015411151561276a576040517f08c379a000000000000000000000000000000000000000000000000000000000815260040180806020018281038252602e8152602001807f7244414f3a3a6d656d6265724f6e6c79202d206e6f742061206d656d6265722081526020017f6f6620726573656172636844414f00000000000000000000000000000000000081525060400191505060405180910390fd5b600e60009054906101000a900460ff1615156131fd57806008548111151515612847576040517f08c379a00000000000000000000000000000000000000000000000000000000081526004018080602001828103825260498152602001807f7244414f3a3a70726f6365737350726f706f73616c202d2070726f706f73616c81526020017f496e646578206973206e6f742076616c69642c206e6f74206578697374696e6781526020017f2070726f706f73616c000000000000000000000000000000000000000000000081525060600191505060405180910390fd5b6000600961285f60018561320c90919063ffffffff16565b81548110151561286b57fe5b90600052602060002090600f02019050600081600801546128976000544261320c90919063ffffffff16565b10905060001515811515141515612962576040517f08c379a00000000000000000000000000000000000000000000000000000000081526004018080602001828103825260418152602001807f7244414f3a3a70726f6365737350726f706f73616c202d2070726f706f73616c81526020017f20766f74696e6720706572696f6420686173206e6f742070617373656420796581526020017f740000000000000000000000000000000000000000000000000000000000000081525060600191505060405180910390fd5b81600b015482600a01541182600c0160006101000a81548160ff021916908315150217905550600b6000858152602001908152602001600020546129c3600560169054906101000a900460ff1660ff16600c5461332190919063ffffffff16565b10156129e757600082600c0160006101000a81548160ff0219169083151502179055505b6000612a0483600b015484600a015461329790919063ffffffff16565b9050612a2d600560149054906101000a900460ff1660ff16600c5461332190919063ffffffff16565b612a4160648361332190919063ffffffff16565b1183600c0160006101000a81548160ff021916908315150217905550600560159054906101000a900460ff1660ff16612a9a6064612a8c8487600a01546133ee90919063ffffffff16565b61332190919063ffffffff16565b1183600c0160006101000a81548160ff02191690831515021790555060008360070160006101000a81548160ff021916908315150217905550612aec8360030154600d5461320c90919063ffffffff16565b600d819055506001151583600c0160009054906101000a900460ff1615151415612f62576001151583600e0160009054906101000a900460ff1615151415612ba2578260010160009054906101000a900473ffffffffffffffffffffffffffffffffffffffff1673ffffffffffffffffffffffffffffffffffffffff166108fc84600601549081150290604051600060405180830381858888f19350505050158015612b9c573d6000803e3d6000fd5b50612f5d565b6000151583600e0160009054906101000a900460ff1615151415612f5c57600660008460020160009054906101000a900473ffffffffffffffffffffffffffffffffffffffff1673ffffffffffffffffffffffffffffffffffffffff1673ffffffffffffffffffffffffffffffffffffffff16815260200190815260200160002060020160009054906101000a900460ff1615612d4f57612cb68360030154600660008660020160009054906101000a900473ffffffffffffffffffffffffffffffffffffffff1673ffffffffffffffffffffffffffffffffffffffff1673ffffffffffffffffffffffffffffffffffffffff1681526020019081526020016000206000015461329790919063ffffffff16565b507f840d4f6dd7ca199b8c347731634f2a239f9938efc631362173db9841f650b09d8360020160009054906101000a900473ffffffffffffffffffffffffffffffffffffffff168460030154604051808373ffffffffffffffffffffffffffffffffffffffff1673ffffffffffffffffffffffffffffffffffffffff1681526020018281526020019250505060405180910390a1612f5b565b60078360020160009054906101000a900473ffffffffffffffffffffffffffffffffffffffff1690806001815401808255809150509060018203906000526020600020016000909192909190916101000a81548173ffffffffffffffffffffffffffffffffffffffff021916908373ffffffffffffffffffffffffffffffffffffffff160217905550508260030154600660008560020160009054906101000a900473ffffffffffffffffffffffffffffffffffffffff1673ffffffffffffffffffffffffffffffffffffffff1673ffffffffffffffffffffffffffffffffffffffff168152602001908152602001600020600001819055506001600660008560020160009054906101000a900473ffffffffffffffffffffffffffffffffffffffff1673ffffffffffffffffffffffffffffffffffffffff1673ffffffffffffffffffffffffffffffffffffffff16815260200190815260200160002060020160006101000a81548160ff0219169083151502179055507f74d524b329f99ba73ae6076b03ebe7fba2d19412d52c9ba4c4373e85937c45d48360020160009054906101000a900473ffffffffffffffffffffffffffffffffffffffff168460030154604051808373ffffffffffffffffffffffffffffffffffffffff1673ffffffffffffffffffffffffffffffffffffffff1681526020018281526020019250505060405180910390a15b5b5b613133565b6000151583600c0160009054906101000a900460ff1615151415613132578260020160009054906101000a900473ffffffffffffffffffffffffffffffffffffffff1673ffffffffffffffffffffffffffffffffffffffff166108fc600660008660020160009054906101000a900473ffffffffffffffffffffffffffffffffffffffff1673ffffffffffffffffffffffffffffffffffffffff1673ffffffffffffffffffffffffffffffffffffffff168152602001908152602001600020600101549081150290604051600060405180830381858888f19350505050158015613050573d6000803e3d6000fd5b506000151583600e0160009054906101000a900460ff1615151415613131577f04def509c5bb32a15a5c1882de834a3e0a5808f568849a754f474f3e62d5ad578360020160009054906101000a900473ffffffffffffffffffffffffffffffffffffffff1684600b015485600a01546130da87600a015488600b015461329790919063ffffffff16565b604051808573ffffffffffffffffffffffffffffffffffffffff1673ffffffffffffffffffffffffffffffffffffffff16815260200184815260200183815260200182815260200194505050505060405180910390a15b5b5b8260010160009054906101000a900473ffffffffffffffffffffffffffffffffffffffff1673ffffffffffffffffffffffffffffffffffffffff166108fc6002549081150290604051600060405180830381858888f1935050505015801561319f573d6000803e3d6000fd5b507f85acde6aac08108614a0800c99b5790887e4d6edcef99cf6f9eadc9fc597467c836000015484600c0160009054906101000a900460ff1660405180838152602001821515151581526020019250505060405180910390a1505050505b50565b60025481565b60045481565b6000828211151515613286576040517f08c379a000000000000000000000000000000000000000000000000000000000815260040180806020018281038252601e8152602001807f536166654d6174683a207375627472616374696f6e206f766572666c6f77000081525060200191505060405180910390fd5b600082840390508091505092915050565b6000808284019050838110151515613317576040517f08c379a000000000000000000000000000000000000000000000000000000000815260040180806020018281038252601b8152602001807f536166654d6174683a206164646974696f6e206f766572666c6f77000000000081525060200191505060405180910390fd5b8091505092915050565b60008083141561333457600090506133e8565b6000828402905082848281151561334757fe5b041415156133e3576040517f08c379a00000000000000000000000000000000000000000000000000000000081526004018080602001828103825260218152602001807f536166654d6174683a206d756c7469706c69636174696f6e206f766572666c6f81526020017f770000000000000000000000000000000000000000000000000000000000000081525060400191505060405180910390fd5b809150505b92915050565b60008082111515613467576040517f08c379a000000000000000000000000000000000000000000000000000000000815260040180806020018281038252601a8152602001807f536166654d6174683a206469766973696f6e206279207a65726f00000000000081525060200191505060405180910390fd5b6000828481151561347457fe5b0490508091505092915050565b6101c06040519081016040528060008152602001600073ffffffffffffffffffffffffffffffffffffffff168152602001600073ffffffffffffffffffffffffffffffffffffffff16815260200160008152602001606081526020016000801916815260200160008152602001600015158152602001600081526020016000815260200160008152602001600015158152602001600081526020016000151581525090565b828054600181600116156101000203166002900490600052602060002090601f016020900481019282601f1061356757805160ff1916838001178555613595565b82800160010185558215613595579182015b82811115613594578251825591602001919060010190613579565b5b5090506135a291906135a6565b5090565b6135c891905b808211156135c45760008160009055506001016135ac565b5090565b9056fea165627a7a723058209969ee97a95708df2af5ec2e98025d7e1192bdfea69eff952a62996907d137a10029",
  "source": "/// @author Adrian Lenard\n/// @title researchDAO - Collective intelligence for the research community\n/// @notice Purpose of this contract is to enable guild like operation for researchers, while enabling crowdfunding capital to accelerate research funding\n/// @dev All function calls are currently implemented without side effects\n\npragma solidity ^0.5.0;\n\n// Importing SafeMath library for safe operations\nimport './OpenZeppelin//SafeMath.sol';\n\n// Imports for Remix IDE\n//import 'https://github.com/OpenZeppelin/openzeppelin-solidity/blob/master/contracts/math/SafeMath.sol';\n\ncontract researchDAO {\n\nusing SafeMath for uint;                     // Enabling contract to use SafeMath library for uint type operations\n\n// Global constants for constructor\n\nuint256 public globalVotingPeriod;            // Default value is 30 days or 2.592e+6 seconds\nuint256 public globalRagequitPeriod;          // Default value is 7 days or 604800 seconds\nuint256 public globalProposalDeposit;         // Default value is 10 ETH\nuint256 public globalProcessingReward;        // Default value is 0.1 ETH to incentivize processing. 10 means: 1/10 ETH per\nuint256 public globalSummoningTime;           // The block.timestamp at contract deployment\naddress payable public globalSummonerAddress; // The address which summoned the DAO\nuint8 public globalQuorum;                    // Default value is 50 for 50%, this sets the required participation for a proposal vote to pass\nuint8 public globalMajority;                  // Default value is 50 for 50%, this sets the number of required Yes votes for a vote to pass\nuint8 public globalDilutionBound;             // Default value is 2 for 2x dilution, this prevents extreme dilution of members\n\n// Security limits thanks to Moloch DAO\n// These numbers are quite arbitrary; they are small enough to avoid overflows when doing calculations\n// with periods or shares, yet big enough to not limit reasonable use cases.\n\nuint256 constant MAX_VOTING_PERIOD_LENGTH = 10**18;     // maximum length of voting period\nuint256 constant MAX_GRACE_PERIOD_LENGTH = 10**18;      // maximum length of grace/ragequit period\nuint256 constant MAX_PROPOSAL_DEPOSIT = 10**18;         // maximum number of proposal deposit that can be used\nuint256 constant MAX_NUMBER_OF_SHARES = 10**18;         // maximum number of shares that can be minted\nuint256 constant MAX_PROCESS_REWARD = 10**18;           // maximum number for processing reward that can be used\nuint256 constant MAX_INITIAL_SHARE = 10**18;            // maximum number for initial share request that can be used\nuint256 constant MAX_FUNDING_GOAL = 10**18;             // maximum number for funding that can be used\nuint8 constant MAX_QUORUM = 10**2;                      // maximum number for quorum that can be used\nuint8 constant MAX_MAJORITY = 10**2;                    // maximum number for majority that can be used\nuint8 constant MAX_DILUTION_BOUND = 10**2;              // maximum number for dilution bound that can be used\n\n// Events\n\nevent Summoned(address summoner, uint256 initialShares );\nevent SubmittedProposal(\n  uint256 proposalIndex,\n  address proposer,\n  string title,\n  bytes32 documentationAddress,\n  bool isProposalOrApplication\n  );\nevent ConfirmedApplication(uint256 proposalIndex, bool confirmation);\nevent SubmittedVote(uint256 proposalIndex, address voter, uint8 vote);\nevent ProcessedProposal(uint256 proposalIndex, bool didPass);\nevent MemberJoinedGuild(address applicant, uint256 sharesMinted);\nevent MemberReceivedNewShares(address applicant, uint256 sharesRequested);\nevent MemberApplicationFailed(address applicant, uint256 noVotes, uint256 yesVotes, uint256 totalVotes);\n\n\nevent ExternalFundGuild();\nevent ExternalFundProposal();\nevent RageQuit();\n\n// Guild governance - These variables are responsible for governance related values\n\n// Members\nstruct Member {\n    uint256 shares;         // rDAO voting shares - voting power\n    uint256 contribution;   // Checking who offered how much when joining\n    bool exists;            // General switch to indicate if an address is already a member\n}\nmapping(address => Member) public members;   // Storing member details in a mapping\naddress[] public memberArray;                // Member array\n\n// Votes\nenum Vote {\n    Null,   // default value\n    Yes,\n    No\n}\n// Proposal structure\nstruct Proposal {     // This struct serves as the framework for a proposal to be submitted\n\n    uint256 proposalIndex;  // the numeric ID of the proposal\n    address payable proposer;   // the address of the submitter\n    address payable applicant;  // the applicant address who would like to join\n    uint256 sharesRequested;  // shares requested for the proposed member\n    string  title;  // simple title for the proposal, e.g.: Adrian L. new membership proposal\n    bytes32 documentationAddress;   // IPFS hash of the detailed documentation, e.g.: research project description\n    uint256 fundingGoal;  // amount of the required funding, coming from guild fund and external contributors\n    bool isProposalOpen;   // state of the proposal, default is open, closed in processProposal() call\n    uint256 creationTimestamp;  // now (block.timestamp) when proposal is submitted\n    mapping(address => Vote) votesByMembers;   // stores each members vote in a mapping\n    uint256 yesVote;  // #of Yes votes\n    uint256 noVote;   // #of No votes\n    bool    didPass;  // result state of proposal, changed when calling processProposal()\n    uint256 externalFundsCollected;  // the amount received from external contributors\n    bool isProposalOrApplication;   // This is used for switching between member application and proposal for research.\n                                       // [0 = proposal for research, 1 = new member application]\n    }\n\nuint256 public proposalCounter;     // Storing actual highest index for proposals - incremented upon submitProposal()\nProposal[] public proposalQueue;    // Storing proposals in an array for queuing\nmapping(address => uint256[]) public proposalsOfMembers;      // Storing proposals for each member in an array\n// Storing the number of total shares at the moment of last  Yes vote casted on a particular proposal - used for dilution bound\nmapping(uint256 => uint256) public maxTotalSharesAtYesVote;\n\n// Guild bank - These variables handle internal share allocations\n// Member shares are stored in the Member struct used in members mapping\nuint256 public rDAO_totalShareSupply;                // Counting the total shares issued\nuint256 public totalSharesRequested;                 // Counting the total shares requested in the currently open proposals\n\n// Modifiers\n\n// memberOnly serves as the restriction modifier for calls to only allow members to call\nmodifier memberOnly {\n    require(members[msg.sender].shares > 0, \"rDAO::memberOnly - not a member of researchDAO\");\n    _;\n}\n// isSummoner serves as the restriction modifier for calls to only allow summer to call - used in circuit breaker\nmodifier isSummoner {\n    require(msg.sender == globalSummonerAddress, \"rDAO::isSummoner - not the summoner of researchDAO\");\n    _;\n}\n// Checking if proposal index is a valid proposal\nmodifier isValidProposalIndex(uint256 _proposalIndex) {\n  require(_proposalIndex <= proposalCounter, \"rDAO::processProposal - proposalIndex is not valid, not existing proposal\");\n  _;\n\n}\n// Checking if proposal is open\nmodifier isProposalOpen(uint256 _proposalIndex) {\n  require(proposalQueue[_proposalIndex.sub(1)].isProposalOpen == true,  \"rDAO::confirmApplication - Proposal is not open\");\n  _;\n}\n\n// Implementing circuit breaker logic\nbool private stopped = false;\n\nmodifier stopInEmergency {\n    if(!stopped)\n    _;\n}\n\nmodifier onlyInEmergency {\n    require(stopped);\n    _;\n}\n// Circuit breaker switch to freeze functions - can be only called by the summoner\nfunction toggleContractFreeze() isSummoner public {\n    stopped = !stopped;\n}\n\n\n// Summoning constructor\n/// @notice Constructor function for summoning the DAO\n/// @param _globalVotingPeriod The number which sets the voting period in seconds\n/// @param _globalRagequitPeriod The number which sets the ragequit period in seconds\n/// @param _globalProposalDeposit The number that sets the required deposit upon proposal submission\n/// @param _globalProcessingReward The number that sets the reward value when a member processes an ended proposal\n/// @param _initialSharesRequested The number of the shares the summoner receives when summoning the DAO\n/// @param _globalQuorum The quorum percentage required for a vote to pass\n/// @param _globalMajority The majority percentage that is requirement for Yes votes to pass\n/// @param _globalDilutionBound The number that prohibits extreme dilution of remaining members after a massive coordinated ragequit\n\n  constructor(\n  uint256 _globalVotingPeriod,\n  uint256 _globalRagequitPeriod,\n  uint256 _globalProposalDeposit,\n  uint256 _globalProcessingReward,\n  uint256 _initialSharesRequested,\n  uint8 _globalQuorum,\n  uint8 _globalMajority,\n  uint8 _globalDilutionBound)\n  public\n  {\n    // Checking summoning global constant values for security limits\n    require(_globalVotingPeriod > 0,                                \"rDAO::constructor - Voting period cannot be zero\");\n    require(_globalVotingPeriod <= MAX_VOTING_PERIOD_LENGTH,        \"rDAO::constructor - Voting period is out of boundaries\");\n    require(_globalRagequitPeriod > 0,                              \"rDAO::constructor - Ragequit period cannot be zero\");\n    require(_globalRagequitPeriod <= MAX_VOTING_PERIOD_LENGTH,      \"rDAO::constructor - Ragequit period is out of boundaries\");\n    require(_globalProposalDeposit > 0,                             \"rDAO::constructor - Proposal deposit cannot be negative or zero\");\n    require(_globalProposalDeposit <= MAX_PROPOSAL_DEPOSIT,         \"rDAO::constructor - Proposal deposit is out of boundaries\");\n    require(_globalProcessingReward > 0,                            \"rDAO::constructor - Processing reward can't be zero. It serves as incentive\");\n    require(_globalProcessingReward <= MAX_PROCESS_REWARD,          \"rDAO::constructor - Processing reward is out of boundaries\");\n    require(_initialSharesRequested > 0,                            \"rDAO::constructor - Initially requested share can't be zero.\");\n    require(_initialSharesRequested <= MAX_INITIAL_SHARE,           \"rDAO::constructor - Initially requested share is out of boundaries\");\n    require(_globalQuorum > 0,                                      \"rDAO::constructor - Quorum can't be zero.\");\n    require(_globalQuorum <= MAX_QUORUM,                            \"rDAO::constructor - Quorum is out of boundaries\");\n    require(_globalMajority > 0,                                    \"rDAO::constructor - Majority can't be zero.\");\n    require(_globalMajority <= MAX_MAJORITY,                        \"rDAO::constructor - Majority is out of boundaries\");\n    require(_globalDilutionBound > 0,                               \"rDAO::constructor - Dilution bound can't be zero.\");\n    require(_globalDilutionBound <= MAX_DILUTION_BOUND,             \"rDAO::constructor - Dilution bound is out of boundaries\");\n\n    // Setting global constansts based on constructor parameters\n    globalVotingPeriod = _globalVotingPeriod;\n    globalRagequitPeriod = _globalRagequitPeriod;\n    globalProposalDeposit = _globalProposalDeposit.mul(1e18);   // Converting wei to ether\n    globalProcessingReward = _globalProcessingReward.mul(1e18); // Converting wei to ether\n    globalQuorum = _globalQuorum;\n    globalMajority = _globalMajority;\n    globalDilutionBound = _globalDilutionBound;\n    globalSummonerAddress = msg.sender;\n\n    // Storing summoner as a member\n    memberArray.push(msg.sender);\n\n    // Setting up initial founding member and storing his shares in members mapping\n    members[msg.sender].shares = _initialSharesRequested;\n\n    // Initializing share supply according to summoning parameters\n    rDAO_totalShareSupply = members[msg.sender].shares;\n\n    // Storing the timestamp of the summoning (now is alias for block.timestamp)\n    globalSummoningTime = now;\n\n    // Counter initialization\n    proposalCounter = 0;\n\n    // Emitting the corresponding event with the summoners address and the allocated share number\n    emit Summoned(msg.sender, members[msg.sender].shares);\n\n  }\n\n// Functions\n// ---------\n// submitProposal()           when a member proposes something either for research or new membership application\n// submitVote()               when a member casts a vote on a given proposal from within the DAO\n// processProposal()          when a member finalizes a proposal by closing it and executing it based on the results\n// confirmApplication()       when a proposed member confirms his application to avoid proposal of an applicant without consent\n// rageQuit()                 when a member ragequits and collects his funds based on rDAO share amount\n// externalFundProposal()     when an external contributor funds a specific proposal\n// externalFundDAO()          when an external contributor funds the DAO generally to let internal members decide over the fund\n\n/// @notice submitProposal function creates a new proposal submitted by an existing member\n/// @param _isProposalOrApplication Acts as a switch for deciding the proposal type: proposal for research OR proposal for new member application\n/// @param _applicant The address of the applying member\n/// @param _title The title of the submitted proposal\n/// @param _documentationAddress Hash address for the detailed documentation of the proposal\n/// @param _fundingGoal Funds required by the proposer to realize the research proposal\n/// @param _sharesRequested New shares minted for the applying member\n\nfunction submitProposal(\nbool _isProposalOrApplication,\naddress payable _applicant,\nstring memory _title,\nbytes32 _documentationAddress,\nuint256 _fundingGoal,\nuint256 _sharesRequested)\npublic\npayable\nmemberOnly\nstopInEmergency\n{\n  // Setting up a switch to set if proposal open or not - used for application confirmation\n  bool isOpen;\n  // Checking if there is deposit sent with submitProposal function\n  require(msg.value == globalProposalDeposit,               \"rDAO::submitProposal - Proposal deposit is not equal to requirement\");\n  // Checking inputs for all types of proposal\n  require(_documentationAddress.length > 0,                 \"rDAO::submitProposal - Attached documentation is missing\");\n\n  // IF proposal for research\n  if ( _isProposalOrApplication == true ) {\n    require(_fundingGoal > 0,                               \"rDAO::submitProposal - Funding goal cannot be zero\");\n    require(_fundingGoal <= MAX_FUNDING_GOAL,               \"rDAO::submitProposal - Funding goal is out of boundaries\");\n    _sharesRequested = 0;                                   // Zeroing out. Not needed when proposing a research\n    isOpen = true;                                          // Research proposal does not need confirmation\n  }\n\n  // IF proposal for new member application\n  if( _isProposalOrApplication == false ) {\n    require(_sharesRequested > 0,                           \"rDAO::submitProposal - Shares requested cannot be zero\");\n    // Calculating total shares requested plus total shares minted\n    uint256 shareUpperBoundaries = _sharesRequested.add(rDAO_totalShareSupply).add(totalSharesRequested);\n    require(shareUpperBoundaries <= MAX_NUMBER_OF_SHARES,   \"rDAO::submitProposal - Shares requested is out of boundaries\");\n    _fundingGoal = 0;                                       // Zeroing out. Not needed when proposing a new member\n    isOpen = false;                                         // Application proposal needs confirmation of applicant, therefore not open by default\n  }\n\n  // Copying current #for proposals and incrementing counter\n  uint256 _proposalIndex = proposalCounter.add(1);\n  proposalCounter = proposalCounter.add(1);\n\n  // Creating proposal with fn parameters\n  Proposal memory proposal = Proposal({\n    proposalIndex: _proposalIndex,\n    proposer: msg.sender,\n    applicant: _applicant,\n    sharesRequested: _sharesRequested,\n    title: _title,\n    documentationAddress: _documentationAddress,\n    fundingGoal: _fundingGoal,\n    isProposalOpen: isOpen,\n    creationTimestamp: now,\n    yesVote: 0,\n    noVote: 0,\n    didPass: false,\n    externalFundsCollected: 0,\n    isProposalOrApplication: _isProposalOrApplication\n  });\n\n  // Adding #of shares requested by the current proposal to totalSharesRequested if this is a member application\n  if (!_isProposalOrApplication) {\n    totalSharesRequested = totalSharesRequested.add(proposal.sharesRequested);\n  }\n\n  // Adding the created proposal to the proposal queue\n  proposalQueue.push(proposal);\n\n  // Adding proposal to proposalsOfMembers mapping array\n  proposalsOfMembers[msg.sender].push(_proposalIndex);\n\n  // Emitting related event\n  emit SubmittedProposal(proposal.proposalIndex, msg.sender, proposal.title, proposal.documentationAddress, proposal.isProposalOrApplication);\n\n}\n/// @notice confirmApplication function to allow applicant confirm his application proposal\n/// @param _proposalIndex The index/ID of the proposal to vote on\n/// @param confirmation If confirms or not (true of false)\n\nfunction confirmApplication(\n  uint256 _proposalIndex,\n  bool confirmation\n  )\n  public\n  payable\n  isValidProposalIndex(_proposalIndex)\n{\n\n  Proposal storage proposal = proposalQueue[_proposalIndex.sub(1)];\n\n  // Checking if confirmation has not been called by applicatan\n  require(proposal.isProposalOrApplication == false, \"rDAO::confirmApplication - Proposal is not an application\");\n  // Checking if given proposal applicant is calling the function\n  require(msg.sender == proposal.applicant,   \"rDAO::confirmApplication - Can only be called from applicant's address\");\n  // Checking if confirmation has not been called by applicatan\n  require(proposal.isProposalOpen == false, \"rDAO::confirmApplication - Proposal has been already confirmed\");\n\n  // Checking if the proposal voting period has ended\n  bool isTimeLeft = now.sub(globalVotingPeriod) < proposal.creationTimestamp;\n  require(isTimeLeft == true,                 \"rDAO::confirmApplication - proposal period ended, no longer accepts confirmations.\");\n  // Setting confirmation status, true opens up the proposal, false leaves as is(false by default on submitProposal)\n  if (confirmation == true) {\n    proposal.isProposalOpen = confirmation;\n    // Storing contribution value of the applicant\n    members[msg.sender].contribution = msg.value;\n    // Emitting relevant event\n    emit ConfirmedApplication(_proposalIndex, confirmation);\n  }\n}\n\n/// @notice submitVote function to cast a vote on a given proposal\n/// @param _proposalIndex The index/ID of the proposal to vote on\n/// @param _uint8vote The vote - 0: Null, 1: Yes, 2: No\n\nfunction submitVote(\n  uint256 _proposalIndex,\n  uint8 _uint8vote\n)\npublic\nmemberOnly\nisValidProposalIndex(_proposalIndex)\nisProposalOpen(_proposalIndex)\n{\n  // require proposalIndex to a valid proposal using proposalCount\n  // check timeframe: require VOTING_PERIOD - proposal.creationTimestamp > 0\n  // convert vote from uint to Vote struct to use with votesByMembers\n  // store member and his vote in votesByMembers\n  // mapping (address => Vote) votesByMembers;   // stores each members vote in a mapping\n  // store YesVote or NoVote and add up voter shares\n  // emit Event submittedVote()\n\n  Proposal storage proposal = proposalQueue[_proposalIndex.sub(1)];\n\n  // Checking if the proposal voting period has ended\n  bool isTimeLeft = now.sub(globalVotingPeriod) < proposal.creationTimestamp;\n  require(isTimeLeft == true,                               \"rDAO::submitVote - proposal period ended, no longer accepts votes. Time to processProposal()\");\n  // Checking that the input parameter _uint8vote is at most 3 and converting it into a Vote sturct\n  require(_uint8vote < 3,                                   \"rDAO::submitVote - _uint8vote must be less than 3\");\n  Vote vote = Vote(_uint8vote);\n  // Checking if the member has voted already and storing the casted vote into votesByMembers\n  require(proposal.votesByMembers[msg.sender] == Vote.Null , \"rDAO::submitVote - member already voted\");\n  proposal.votesByMembers[msg.sender] = vote;\n\n  // Incrementing vote counters in proposal based on casted vote times the shares of the voting member\n  if (vote == Vote.Yes) {\n    proposal.yesVote = proposal.yesVote.add(members[msg.sender].shares);\n    // Updating the number of total shares minted when member voted yes and share supply changed since last yes vote\n    if (rDAO_totalShareSupply > maxTotalSharesAtYesVote[_proposalIndex]) {\n      maxTotalSharesAtYesVote[_proposalIndex] = rDAO_totalShareSupply;\n    }\n  } else if (vote == Vote.No) {\n    proposal.noVote = proposal.noVote.add(members[msg.sender].shares);\n  }\n\n  // Emitting the relevant event SubmittedVote()\n  emit SubmittedVote(_proposalIndex, msg.sender, _uint8vote);\n\n}\n\n/// @notice processProposal processes an ended proposal and executes the proposed subject\n/// @param _proposalIndex The index/ID of the proposal to process\n/// @dev If proposal fails need to transfer back external contributions\n\nfunction processProposal(uint256 _proposalIndex)\npublic\nmemberOnly\nstopInEmergency\nisValidProposalIndex(_proposalIndex)\n//isProposalOpen(_proposalIndex) - unconfirmed proposals should be processable also, to return deposit\n{\n  // check if proposal exists\n  // check if proposal has ended\n  // [check if quorum reached ?] 50% minimum\n  // count votes and modify didPass\n  // close proposal - isProposalOpen\n  // based on isProposalOrApplication\n  //      - proposal:    distribute funds or send back contributions\n  //      - application: distribute shares\n  // return proposer ETH deposit\n\n  // Storing proposal data\n  Proposal storage proposal = proposalQueue[_proposalIndex.sub(1)];\n\n  // Checking if the proposal is voting period has passed\n  bool isTimeLeft = now.sub(globalVotingPeriod) < proposal.creationTimestamp;\n  require(isTimeLeft == false, \"rDAO::processProposal - proposal voting period has not passed yet\");\n\n  // Setting vote results based on summary of casted votes\n  proposal.didPass = proposal.yesVote > proposal.noVote;\n\n  // Setting proposal fail if dilution bound would be exceeded\n  if (rDAO_totalShareSupply.mul(globalDilutionBound) < maxTotalSharesAtYesVote[_proposalIndex]) {\n    proposal.didPass = false;\n  }\n\n  // Checking quorum and majority and setting proposal fail if either of them is not reached\n  // Calculating total vote count\n  uint256 totalVotes = proposal.yesVote.add(proposal.noVote);\n  // Modify result to false if quorum is not reached\n  proposal.didPass = totalVotes.mul(100) > rDAO_totalShareSupply.mul(globalQuorum);\n  // Modifying result to false if majority is not reached\n  proposal.didPass = proposal.yesVote.div(totalVotes).mul(100) > globalMajority;\n\n  // Closing the proposal\n  proposal.isProposalOpen = false;\n\n  // Substracting requested share #of proposal from the current totalSharesRequested counter\n  totalSharesRequested = totalSharesRequested.sub(proposal.sharesRequested);\n\n  if (proposal.didPass == true) {\n    // Execution logic based on proposal type [proposal vs. application]\n    // IF proposal then send funds to proposer if didPass == true\n    // IF application then add applicant to members and mint his shares\n    //\n    // Proposal\n    if (proposal.isProposalOrApplication == true) {\n      // Send out funds to proposer\n      proposal.proposer.transfer(proposal.fundingGoal);\n    }\n    // Application\n    else if (proposal.isProposalOrApplication == false) {\n      // If member already exists\n      if (members[proposal.applicant].exists) {\n        // Adding new member shares\n        members[proposal.applicant].shares.add(proposal.sharesRequested);\n        // Emitting event\n        emit MemberReceivedNewShares(proposal.applicant, proposal.sharesRequested);\n      }\n      // If member does not exist\n      else  {\n        // Adding member to memberArray\n        memberArray.push(proposal.applicant);\n        // Adding member shares\n        members[proposal.applicant].shares = proposal.sharesRequested;\n        // Setting existance of member\n        members[proposal.applicant].exists = true;\n        // Emitting event of new joined member\n        emit MemberJoinedGuild(proposal.applicant, proposal.sharesRequested);\n      }\n    }\n  }\n  else if (proposal.didPass == false) {\n      // Pay back contribution made by proposal applicant\n      proposal.applicant.transfer(members[proposal.applicant].contribution);\n\n      // Pay back external contributors\n      /// @dev Needs implementation\n\n      if (proposal.isProposalOrApplication == false) {\n        // Emit event of failed application\n        emit MemberApplicationFailed(proposal.applicant, proposal.noVote, proposal.yesVote, proposal.noVote.add(proposal.yesVote));\n      }\n  }\n    // Return deposit to proposer\n    proposal.proposer.transfer(globalProposalDeposit);\n\n    // Emitting event\n    emit ProcessedProposal(proposal.proposalIndex, proposal.didPass);\n\n    // Paying processing reward to msg.sender\n    // Reentrancy protection - executing all state changes before transferring funds\n    msg.sender.call.value(globalProcessingReward);\n    // The 2 lines below are failing due to probable gas\n    //require(msg.sender.send(globalProcessingReward), \"rDAO::processProposal - Reward Transfer\");\n    //msg.sender.transfer(globalProcessingReward);\n}\n\n/// @notice Allows guild members to quit the guild if a voting would draw undesired outcome for them\n/// @dev not implemented yet\nfunction rageQuit() public memberOnly {}\n\n/// @notice Allows external contributors to fund a particular proposal\n/// @dev not implemented yet\nfunction externalFundProposal(uint256 _proposalIndex) public isValidProposalIndex(_proposalIndex) isProposalOpen(_proposalIndex) {}\n\n/// @notice Allows external contributors to fund the guild bank generally\n/// @dev not implemented yet\nfunction externalFundDAO() public {}\n\n// Getter functions\n// Allow contract to receive external general contributions that goes to the guild funds\n///@notice Fallback function for the contract\nfunction() external payable {}\n\n// Mortal function to shut down contract on upgrade and send all of its funds to the summoner adderess\nfunction shutDownDAO() public stopInEmergency isSummoner {\n    selfdestruct(globalSummonerAddress);\n}\n\n}",
  "sourcePath": "/Users/adr/Documents/GitHub/Bootcamp_FinalProject/Consensys-Bootcamp-Final-Project-researchDAO/contracts/researchDAO.sol",
  "compiler": {
    "name": "solc",
    "version": "0.5.0+commit.1d4f565a.Emscripten.clang"
  },
  "schemaVersion": "3.0.9",
  "updatedAt": "2019-07-23T10:17:55.112Z",
  "devdoc": {
    "methods": {
      "confirmApplication(uint256,bool)": {
        "params": {
          "_proposalIndex": "The index/ID of the proposal to vote on",
          "confirmation": "If confirms or not (true of false)"
        }
      },
      "constructor": {
        "params": {
          "_globalDilutionBound": "The number that prohibits extreme dilution of remaining members after a massive coordinated ragequit",
          "_globalMajority": "The majority percentage that is requirement for Yes votes to pass",
          "_globalProcessingReward": "The number that sets the reward value when a member processes an ended proposal",
          "_globalProposalDeposit": "The number that sets the required deposit upon proposal submission",
          "_globalQuorum": "The quorum percentage required for a vote to pass",
          "_globalRagequitPeriod": "The number which sets the ragequit period in seconds",
          "_globalVotingPeriod": "The number which sets the voting period in seconds",
          "_initialSharesRequested": "The number of the shares the summoner receives when summoning the DAO"
        }
      },
      "externalFundDAO()": {
        "details": "not implemented yet"
      },
      "externalFundProposal(uint256)": {
        "details": "not implemented yet"
      },
      "processProposal(uint256)": {
        "details": "If proposal fails need to transfer back external contributions",
        "params": {
          "_proposalIndex": "The index/ID of the proposal to process"
        }
      },
      "rageQuit()": {
        "details": "not implemented yet"
      },
      "submitProposal(bool,address,string,bytes32,uint256,uint256)": {
        "params": {
          "_applicant": "The address of the applying member",
          "_documentationAddress": "Hash address for the detailed documentation of the proposal",
          "_fundingGoal": "Funds required by the proposer to realize the research proposal",
          "_isProposalOrApplication": "Acts as a switch for deciding the proposal type: proposal for research OR proposal for new member application",
          "_sharesRequested": "New shares minted for the applying member",
          "_title": "The title of the submitted proposal"
        }
      },
      "submitVote(uint256,uint8)": {
        "params": {
          "_proposalIndex": "The index/ID of the proposal to vote on",
          "_uint8vote": "The vote - 0: Null, 1: Yes, 2: No"
        }
      }
    }
  },
  "userdoc": {
    "methods": {
      "confirmApplication(uint256,bool)": {
        "notice": "confirmApplication function to allow applicant confirm his application proposal"
      },
      "constructor": "Constructor function for summoning the DAO",
      "externalFundDAO()": {
        "notice": "Allows external contributors to fund the guild bank generally"
      },
      "externalFundProposal(uint256)": {
        "notice": "Allows external contributors to fund a particular proposal"
      },
      "processProposal(uint256)": {
        "notice": "processProposal processes an ended proposal and executes the proposed subject"
      },
      "rageQuit()": {
        "notice": "Allows guild members to quit the guild if a voting would draw undesired outcome for them"
      },
      "submitProposal(bool,address,string,bytes32,uint256,uint256)": {
        "notice": "submitProposal function creates a new proposal submitted by an existing member"
      },
      "submitVote(uint256,uint8)": {
        "notice": "submitVote function to cast a vote on a given proposal"
      }
    }
  }
}